{
  "_format": "hh-sol-artifact-1",
  "contractName": "MockHederaTokenService",
  "sourceName": "contracts/mocks/MockHederaTokenService.sol",
  "abi": [
    {
      "anonymous": false,
      "inputs": [
        {
          "indexed": false,
          "internalType": "address",
          "name": "account",
          "type": "address"
        },
        {
          "indexed": false,
          "internalType": "address",
          "name": "token",
          "type": "address"
        }
      ],
      "name": "MockAssociation",
      "type": "event"
    },
    {
      "anonymous": false,
      "inputs": [
        {
          "indexed": false,
          "internalType": "address",
          "name": "token",
          "type": "address"
        },
        {
          "indexed": false,
          "internalType": "address",
          "name": "from",
          "type": "address"
        },
        {
          "indexed": false,
          "internalType": "address",
          "name": "to",
          "type": "address"
        },
        {
          "indexed": false,
          "internalType": "int64",
          "name": "amount",
          "type": "int64"
        }
      ],
      "name": "MockTransfer",
      "type": "event"
    },
    {
      "inputs": [
        {
          "internalType": "address",
          "name": "account",
          "type": "address"
        },
        {
          "internalType": "address",
          "name": "token",
          "type": "address"
        }
      ],
      "name": "associateToken",
      "outputs": [
        {
          "internalType": "int32",
          "name": "responseCode",
          "type": "int32"
        }
      ],
      "stateMutability": "nonpayable",
      "type": "function"
    },
    {
      "inputs": [
        {
          "internalType": "address",
          "name": "token",
          "type": "address"
        },
        {
          "internalType": "address",
          "name": "account",
          "type": "address"
        }
      ],
      "name": "balanceOf",
      "outputs": [
        {
          "internalType": "int32",
          "name": "responseCode",
          "type": "int32"
        },
        {
          "internalType": "int64",
          "name": "balance",
          "type": "int64"
        }
      ],
      "stateMutability": "view",
      "type": "function"
    },
    {
      "inputs": [
        {
          "internalType": "address",
          "name": "account",
          "type": "address"
        },
        {
          "internalType": "address",
          "name": "token",
          "type": "address"
        }
      ],
      "name": "isAssociated",
      "outputs": [
        {
          "internalType": "int32",
          "name": "responseCode",
          "type": "int32"
        },
        {
          "internalType": "bool",
          "name": "associated",
          "type": "bool"
        }
      ],
      "stateMutability": "view",
      "type": "function"
    },
    {
      "inputs": [
        {
          "internalType": "address",
          "name": "token",
          "type": "address"
        },
        {
          "internalType": "address",
          "name": "account",
          "type": "address"
        },
        {
          "internalType": "int64",
          "name": "amount",
          "type": "int64"
        }
      ],
      "name": "mintTo",
      "outputs": [],
      "stateMutability": "nonpayable",
      "type": "function"
    },
    {
      "inputs": [
        {
          "internalType": "address",
          "name": "account",
          "type": "address"
        },
        {
          "internalType": "address",
          "name": "token",
          "type": "address"
        },
        {
          "internalType": "bool",
          "name": "associated",
          "type": "bool"
        }
      ],
      "name": "setAssociation",
      "outputs": [],
      "stateMutability": "nonpayable",
      "type": "function"
    },
    {
      "inputs": [
        {
          "internalType": "address",
          "name": "token",
          "type": "address"
        },
        {
          "internalType": "address",
          "name": "account",
          "type": "address"
        },
        {
          "internalType": "int64",
          "name": "amount",
          "type": "int64"
        }
      ],
      "name": "setBalance",
      "outputs": [],
      "stateMutability": "nonpayable",
      "type": "function"
    },
    {
      "inputs": [
        {
          "internalType": "address",
          "name": "token",
          "type": "address"
        },
        {
          "internalType": "address",
          "name": "from",
          "type": "address"
        },
        {
          "internalType": "address",
          "name": "to",
          "type": "address"
        },
        {
          "internalType": "int64",
          "name": "amount",
          "type": "int64"
        }
      ],
      "name": "transferToken",
      "outputs": [
        {
          "internalType": "int32",
          "name": "responseCode",
          "type": "int32"
        }
      ],
      "stateMutability": "nonpayable",
      "type": "function"
    },
    {
      "inputs": [
        {
          "internalType": "address",
          "name": "token",
          "type": "address"
        },
        {
          "internalType": "address[]",
          "name": "from",
          "type": "address[]"
        },
        {
          "internalType": "address[]",
          "name": "to",
          "type": "address[]"
        },
        {
          "internalType": "int64[]",
          "name": "amounts",
          "type": "int64[]"
        }
      ],
      "name": "transferTokens",
      "outputs": [
        {
          "internalType": "int32",
          "name": "responseCode",
          "type": "int32"
        }
      ],
      "stateMutability": "nonpayable",
      "type": "function"
    }
  ],
  "bytecode": "0x608060405234801561001057600080fd5b5061150a806100206000396000f3fe608060405234801561001057600080fd5b50600436106100885760003560e01c8063b3b549d91161005b578063b3b549d914610126578063c790ed3a14610142578063eca3691714610172578063f7888aec146101a257610088565b80632300a8e71461008d57806325ef49c7146100a957806349146bde146100c55780636cf99248146100f5575b600080fd5b6100a760048036038101906100a29190610d57565b6101d3565b005b6100c360048036038101906100be9190610de3565b61026c565b005b6100df60048036038101906100da9190610e36565b6103c5565b6040516100ec9190610e92565b60405180910390f35b61010f600480360381019061010a9190610e36565b61049e565b60405161011d929190610ebc565b60405180910390f35b610140600480360381019061013b9190610de3565b610538565b005b61015c60048036038101906101579190611101565b6105e2565b6040516101699190610e92565b60405180910390f35b61018c600480360381019061018791906111bc565b6109a9565b6040516101999190610e92565b60405180910390f35b6101bc60048036038101906101b79190610e36565b610c14565b6040516101ca929190611232565b60405180910390f35b80600160008573ffffffffffffffffffffffffffffffffffffffff1673ffffffffffffffffffffffffffffffffffffffff16815260200190815260200160002060008473ffffffffffffffffffffffffffffffffffffffff1673ffffffffffffffffffffffffffffffffffffffff16815260200190815260200160002060006101000a81548160ff021916908315150217905550505050565b806000808573ffffffffffffffffffffffffffffffffffffffff1673ffffffffffffffffffffffffffffffffffffffff16815260200190815260200160002060008473ffffffffffffffffffffffffffffffffffffffff1673ffffffffffffffffffffffffffffffffffffffff16815260200190815260200160002060008282829054906101000a900460070b610303919061128a565b92506101000a81548167ffffffffffffffff021916908360070b67ffffffffffffffff16021790555060018060008473ffffffffffffffffffffffffffffffffffffffff1673ffffffffffffffffffffffffffffffffffffffff16815260200190815260200160002060008573ffffffffffffffffffffffffffffffffffffffff1673ffffffffffffffffffffffffffffffffffffffff16815260200190815260200160002060006101000a81548160ff021916908315150217905550505050565b600060018060008573ffffffffffffffffffffffffffffffffffffffff1673ffffffffffffffffffffffffffffffffffffffff16815260200190815260200160002060008473ffffffffffffffffffffffffffffffffffffffff1673ffffffffffffffffffffffffffffffffffffffff16815260200190815260200160002060006101000a81548160ff0219169083151502179055507fb4a9426a710163f562eb585b3ee9a146df36a8ad3af3e30da848a4cc7159fa22838360405161048c929190611315565b60405180910390a16016905092915050565b6000806016600160008673ffffffffffffffffffffffffffffffffffffffff1673ffffffffffffffffffffffffffffffffffffffff16815260200190815260200160002060008573ffffffffffffffffffffffffffffffffffffffff1673ffffffffffffffffffffffffffffffffffffffff16815260200190815260200160002060009054906101000a900460ff16915091509250929050565b806000808573ffffffffffffffffffffffffffffffffffffffff1673ffffffffffffffffffffffffffffffffffffffff16815260200190815260200160002060008473ffffffffffffffffffffffffffffffffffffffff1673ffffffffffffffffffffffffffffffffffffffff16815260200190815260200160002060006101000a81548167ffffffffffffffff021916908360070b67ffffffffffffffff160217905550505050565b6000825184511480156105f6575081518351145b610635576040517f08c379a000000000000000000000000000000000000000000000000000000000815260040161062c9061139b565b60405180910390fd5b60005b845181101561099b57828181518110610654576106536113bb565b5b602002602001015160070b6000808873ffffffffffffffffffffffffffffffffffffffff1673ffffffffffffffffffffffffffffffffffffffff16815260200190815260200160002060008784815181106106b2576106b16113bb565b5b602002602001015173ffffffffffffffffffffffffffffffffffffffff1673ffffffffffffffffffffffffffffffffffffffff16815260200190815260200160002060009054906101000a900460070b60070b12156107155760be9150506109a1565b828181518110610728576107276113bb565b5b60200260200101516000808873ffffffffffffffffffffffffffffffffffffffff1673ffffffffffffffffffffffffffffffffffffffff1681526020019081526020016000206000878481518110610783576107826113bb565b5b602002602001015173ffffffffffffffffffffffffffffffffffffffff1673ffffffffffffffffffffffffffffffffffffffff16815260200190815260200160002060008282829054906101000a900460070b6107e091906113ea565b92506101000a81548167ffffffffffffffff021916908360070b67ffffffffffffffff16021790555082818151811061081c5761081b6113bb565b5b60200260200101516000808873ffffffffffffffffffffffffffffffffffffffff1673ffffffffffffffffffffffffffffffffffffffff1681526020019081526020016000206000868481518110610877576108766113bb565b5b602002602001015173ffffffffffffffffffffffffffffffffffffffff1673ffffffffffffffffffffffffffffffffffffffff16815260200190815260200160002060008282829054906101000a900460070b6108d4919061128a565b92506101000a81548167ffffffffffffffff021916908360070b67ffffffffffffffff1602179055507ff53f9b7180e8d832a5985b634ce06a38735ffe3acc64a2c397c08e9a566f312c86868381518110610932576109316113bb565b5b602002602001015186848151811061094d5761094c6113bb565b5b6020026020010151868581518110610968576109676113bb565b5b60200260200101516040516109809493929190611466565b60405180910390a18080610993906114b5565b915050610638565b50601690505b949350505050565b60008160070b6000808773ffffffffffffffffffffffffffffffffffffffff1673ffffffffffffffffffffffffffffffffffffffff16815260200190815260200160002060008673ffffffffffffffffffffffffffffffffffffffff1673ffffffffffffffffffffffffffffffffffffffff16815260200190815260200160002060009054906101000a900460070b60070b1215610a4a5760be9050610c0c565b816000808773ffffffffffffffffffffffffffffffffffffffff1673ffffffffffffffffffffffffffffffffffffffff16815260200190815260200160002060008673ffffffffffffffffffffffffffffffffffffffff1673ffffffffffffffffffffffffffffffffffffffff16815260200190815260200160002060008282829054906101000a900460070b610ae191906113ea565b92506101000a81548167ffffffffffffffff021916908360070b67ffffffffffffffff160217905550816000808773ffffffffffffffffffffffffffffffffffffffff1673ffffffffffffffffffffffffffffffffffffffff16815260200190815260200160002060008573ffffffffffffffffffffffffffffffffffffffff1673ffffffffffffffffffffffffffffffffffffffff16815260200190815260200160002060008282829054906101000a900460070b610ba1919061128a565b92506101000a81548167ffffffffffffffff021916908360070b67ffffffffffffffff1602179055507ff53f9b7180e8d832a5985b634ce06a38735ffe3acc64a2c397c08e9a566f312c85858585604051610bff9493929190611466565b60405180910390a1601690505b949350505050565b60008060166000808673ffffffffffffffffffffffffffffffffffffffff1673ffffffffffffffffffffffffffffffffffffffff16815260200190815260200160002060008573ffffffffffffffffffffffffffffffffffffffff1673ffffffffffffffffffffffffffffffffffffffff16815260200190815260200160002060009054906101000a900460070b915091509250929050565b6000604051905090565b600080fd5b600080fd5b600073ffffffffffffffffffffffffffffffffffffffff82169050919050565b6000610cec82610cc1565b9050919050565b610cfc81610ce1565b8114610d0757600080fd5b50565b600081359050610d1981610cf3565b92915050565b60008115159050919050565b610d3481610d1f565b8114610d3f57600080fd5b50565b600081359050610d5181610d2b565b92915050565b600080600060608486031215610d7057610d6f610cb7565b5b6000610d7e86828701610d0a565b9350506020610d8f86828701610d0a565b9250506040610da086828701610d42565b9150509250925092565b60008160070b9050919050565b610dc081610daa565b8114610dcb57600080fd5b50565b600081359050610ddd81610db7565b92915050565b600080600060608486031215610dfc57610dfb610cb7565b5b6000610e0a86828701610d0a565b9350506020610e1b86828701610d0a565b9250506040610e2c86828701610dce565b9150509250925092565b60008060408385031215610e4d57610e4c610cb7565b5b6000610e5b85828601610d0a565b9250506020610e6c85828601610d0a565b9150509250929050565b60008160030b9050919050565b610e8c81610e76565b82525050565b6000602082019050610ea76000830184610e83565b92915050565b610eb681610d1f565b82525050565b6000604082019050610ed16000830185610e83565b610ede6020830184610ead565b9392505050565b600080fd5b6000601f19601f8301169050919050565b7f4e487b7100000000000000000000000000000000000000000000000000000000600052604160045260246000fd5b610f3382610eea565b810181811067ffffffffffffffff82111715610f5257610f51610efb565b5b80604052505050565b6000610f65610cad565b9050610f718282610f2a565b919050565b600067ffffffffffffffff821115610f9157610f90610efb565b5b602082029050602081019050919050565b600080fd5b6000610fba610fb584610f76565b610f5b565b90508083825260208201905060208402830185811115610fdd57610fdc610fa2565b5b835b818110156110065780610ff28882610d0a565b845260208401935050602081019050610fdf565b5050509392505050565b600082601f83011261102557611024610ee5565b5b8135611035848260208601610fa7565b91505092915050565b600067ffffffffffffffff82111561105957611058610efb565b5b602082029050602081019050919050565b600061107d6110788461103e565b610f5b565b905080838252602082019050602084028301858111156110a05761109f610fa2565b5b835b818110156110c957806110b58882610dce565b8452602084019350506020810190506110a2565b5050509392505050565b600082601f8301126110e8576110e7610ee5565b5b81356110f884826020860161106a565b91505092915050565b6000806000806080858703121561111b5761111a610cb7565b5b600061112987828801610d0a565b945050602085013567ffffffffffffffff81111561114a57611149610cbc565b5b61115687828801611010565b935050604085013567ffffffffffffffff81111561117757611176610cbc565b5b61118387828801611010565b925050606085013567ffffffffffffffff8111156111a4576111a3610cbc565b5b6111b0878288016110d3565b91505092959194509250565b600080600080608085870312156111d6576111d5610cb7565b5b60006111e487828801610d0a565b94505060206111f587828801610d0a565b935050604061120687828801610d0a565b925050606061121787828801610dce565b91505092959194509250565b61122c81610daa565b82525050565b60006040820190506112476000830185610e83565b6112546020830184611223565b9392505050565b7f4e487b7100000000000000000000000000000000000000000000000000000000600052601160045260246000fd5b600061129582610daa565b91506112a083610daa565b925081677fffffffffffffff038313600083121516156112c3576112c261125b565b5b817fffffffffffffffffffffffffffffffffffffffffffffffff80000000000000000383126000831216156112fb576112fa61125b565b5b828201905092915050565b61130f81610ce1565b82525050565b600060408201905061132a6000830185611306565b6113376020830184611306565b9392505050565b600082825260208201905092915050565b7f4172726179206c656e677468206d69736d617463680000000000000000000000600082015250565b600061138560158361133e565b91506113908261134f565b602082019050919050565b600060208201905081810360008301526113b481611378565b9050919050565b7f4e487b7100000000000000000000000000000000000000000000000000000000600052603260045260246000fd5b60006113f582610daa565b915061140083610daa565b9250827fffffffffffffffffffffffffffffffffffffffffffffffff80000000000000000182126000841215161561143b5761143a61125b565b5b82677fffffffffffffff01821360008412161561145b5761145a61125b565b5b828203905092915050565b600060808201905061147b6000830187611306565b6114886020830186611306565b6114956040830185611306565b6114a26060830184611223565b95945050505050565b6000819050919050565b60006114c0826114ab565b91507fffffffffffffffffffffffffffffffffffffffffffffffffffffffffffffffff82036114f2576114f161125b565b5b60018201905091905056fea164736f6c634300080d000a",
  "linkReferences": {},
  "deployedLinkReferences": {}
}