{"contracts/mocks/MaliciousReentrancy.sol":{"MaliciousReentrancy":{"abi":[{"inputs":[{"internalType":"address","name":"_targetDistributor","type":"address"}],"stateMutability":"nonpayable","type":"constructor"},{"anonymous":false,"inputs":[{"indexed":false,"internalType":"uint256","name":"count","type":"uint256"}],"name":"AttackAttempted","type":"event"},{"anonymous":false,"inputs":[{"indexed":false,"internalType":"string","name":"reason","type":"string"}],"name":"AttackFailed","type":"event"},{"inputs":[],"name":"attack","outputs":[],"stateMutability":"payable","type":"function"},{"inputs":[],"name":"attackCount","outputs":[{"internalType":"uint256","name":"","type":"uint256"}],"stateMutability":"view","type":"function"},{"inputs":[],"name":"maxAttacks","outputs":[{"internalType":"uint256","name":"","type":"uint256"}],"stateMutability":"view","type":"function"},{"inputs":[{"internalType":"uint256","name":"_max","type":"uint256"}],"name":"setMaxAttacks","outputs":[],"stateMutability":"nonpayable","type":"function"},{"inputs":[],"name":"targetDistributor","outputs":[{"internalType":"address","name":"","type":"address"}],"stateMutability":"view","type":"function"},{"inputs":[],"name":"withdraw","outputs":[],"stateMutability":"nonpayable","type":"function"},{"stateMutability":"payable","type":"receive"}],"evm":{"bytecode":{"linkReferences":{},"object":"6080604052600360025534801561001557600080fd5b506040516108bb3803806108bb833981810160405281019061003791906100e0565b806000806101000a81548173ffffffffffffffffffffffffffffffffffffffff021916908373ffffffffffffffffffffffffffffffffffffffff1602179055505061010d565b600080fd5b600073ffffffffffffffffffffffffffffffffffffffff82169050919050565b60006100ad82610082565b9050919050565b6100bd816100a2565b81146100c857600080fd5b50565b6000815190506100da816100b4565b92915050565b6000602082840312156100f6576100f561007d565b5b6000610104848285016100cb565b91505092915050565b61079f8061011c6000396000f3fe6080604052600436106100595760003560e01c80633ccfd60b1461020f578063407c282114610226578063617a09d7146102515780639e5faafc1461027a578063a37573d614610284578063ee2472f4146102af5761020a565b3661020a5760016000815480929190610071906104ec565b91905055507f9de7696c1ddde10847858955a8530cc578ad5b8a8887b231fad51acf0a4cfa0a6001546040516100a79190610543565b60405180910390a160025460015410156102085760008060009054906101000a900473ffffffffffffffffffffffffffffffffffffffff1673ffffffffffffffffffffffffffffffffffffffff166040516024016040516020818303038152906040527f886bec17000000000000000000000000000000000000000000000000000000007bffffffffffffffffffffffffffffffffffffffffffffffffffffffff19166020820180517bffffffffffffffffffffffffffffffffffffffffffffffffffffffff838183161783525050505060405161018591906105d8565b6000604051808303816000865af19150503d80600081146101c2576040519150601f19603f3d011682016040523d82523d6000602084013e6101c7565b606091505b5050905080610206577ff7ce286cb87e5c742d8641799444d56f1df046fa657c97d13b6f4fddb35a8cc36040516101fd9061064c565b60405180910390a15b505b005b600080fd5b34801561021b57600080fd5b506102246102da565b005b34801561023257600080fd5b5061023b610323565b6040516102489190610543565b60405180910390f35b34801561025d57600080fd5b506102786004803603810190610273919061069d565b610329565b005b610282610333565b005b34801561029057600080fd5b50610299610489565b6040516102a69190610543565b60405180910390f35b3480156102bb57600080fd5b506102c461048f565b6040516102d1919061070b565b60405180910390f35b3373ffffffffffffffffffffffffffffffffffffffff166108fc479081150290604051600060405180830381858888f19350505050158015610320573d6000803e3d6000fd5b50565b60015481565b8060028190555050565b600060018190555060008060009054906101000a900473ffffffffffffffffffffffffffffffffffffffff1673ffffffffffffffffffffffffffffffffffffffff166040516024016040516020818303038152906040527f886bec17000000000000000000000000000000000000000000000000000000007bffffffffffffffffffffffffffffffffffffffffffffffffffffffff19166020820180517bffffffffffffffffffffffffffffffffffffffffffffffffffffffff838183161783525050505060405161040591906105d8565b6000604051808303816000865af19150503d8060008114610442576040519150601f19603f3d011682016040523d82523d6000602084013e610447565b606091505b5050905080610486577ff7ce286cb87e5c742d8641799444d56f1df046fa657c97d13b6f4fddb35a8cc360405161047d90610772565b60405180910390a15b50565b60025481565b60008054906101000a900473ffffffffffffffffffffffffffffffffffffffff1681565b7f4e487b7100000000000000000000000000000000000000000000000000000000600052601160045260246000fd5b6000819050919050565b60006104f7826104e2565b91507fffffffffffffffffffffffffffffffffffffffffffffffffffffffffffffffff8203610529576105286104b3565b5b600182019050919050565b61053d816104e2565b82525050565b60006020820190506105586000830184610534565b92915050565b600081519050919050565b600081905092915050565b60005b83811015610592578082015181840152602081019050610577565b838111156105a1576000848401525b50505050565b60006105b28261055e565b6105bc8185610569565b93506105cc818560208601610574565b80840191505092915050565b60006105e482846105a7565b915081905092915050565b600082825260208201905092915050565b7f5265656e7472616e637920626c6f636b65640000000000000000000000000000600082015250565b60006106366012836105ef565b915061064182610600565b602082019050919050565b6000602082019050818103600083015261066581610629565b9050919050565b600080fd5b61067a816104e2565b811461068557600080fd5b50565b60008135905061069781610671565b92915050565b6000602082840312156106b3576106b261066c565b5b60006106c184828501610688565b91505092915050565b600073ffffffffffffffffffffffffffffffffffffffff82169050919050565b60006106f5826106ca565b9050919050565b610705816106ea565b82525050565b600060208201905061072060008301846106fc565b92915050565b7f496e697469616c2061747461636b206661696c65640000000000000000000000600082015250565b600061075c6015836105ef565b915061076782610726565b602082019050919050565b6000602082019050818103600083015261078b8161074f565b905091905056fea164736f6c634300080d000a","opcodes":"PUSH1 0x80 PUSH1 0x40 MSTORE PUSH1 0x3 PUSH1 0x2 SSTORE CALLVALUE DUP1 ISZERO PUSH2 0x15 JUMPI PUSH1 0x0 DUP1 REVERT JUMPDEST POP PUSH1 0x40 MLOAD PUSH2 0x8BB CODESIZE SUB DUP1 PUSH2 0x8BB DUP4 CODECOPY DUP2 DUP2 ADD PUSH1 0x40 MSTORE DUP2 ADD SWAP1 PUSH2 0x37 SWAP2 SWAP1 PUSH2 0xE0 JUMP JUMPDEST DUP1 PUSH1 0x0 DUP1 PUSH2 0x100 EXP DUP2 SLOAD DUP2 PUSH20 0xFFFFFFFFFFFFFFFFFFFFFFFFFFFFFFFFFFFFFFFF MUL NOT AND SWAP1 DUP4 PUSH20 0xFFFFFFFFFFFFFFFFFFFFFFFFFFFFFFFFFFFFFFFF AND MUL OR SWAP1 SSTORE POP POP PUSH2 0x10D JUMP JUMPDEST PUSH1 0x0 DUP1 REVERT JUMPDEST PUSH1 0x0 PUSH20 0xFFFFFFFFFFFFFFFFFFFFFFFFFFFFFFFFFFFFFFFF DUP3 AND SWAP1 POP SWAP2 SWAP1 POP JUMP JUMPDEST PUSH1 0x0 PUSH2 0xAD DUP3 PUSH2 0x82 JUMP JUMPDEST SWAP1 POP SWAP2 SWAP1 POP JUMP JUMPDEST PUSH2 0xBD DUP2 PUSH2 0xA2 JUMP JUMPDEST DUP2 EQ PUSH2 0xC8 JUMPI PUSH1 0x0 DUP1 REVERT JUMPDEST POP JUMP JUMPDEST PUSH1 0x0 DUP2 MLOAD SWAP1 POP PUSH2 0xDA DUP2 PUSH2 0xB4 JUMP JUMPDEST SWAP3 SWAP2 POP POP JUMP JUMPDEST PUSH1 0x0 PUSH1 0x20 DUP3 DUP5 SUB SLT ISZERO PUSH2 0xF6 JUMPI PUSH2 0xF5 PUSH2 0x7D JUMP JUMPDEST JUMPDEST PUSH1 0x0 PUSH2 0x104 DUP5 DUP3 DUP6 ADD PUSH2 0xCB JUMP JUMPDEST SWAP2 POP POP SWAP3 SWAP2 POP POP JUMP JUMPDEST PUSH2 0x79F DUP1 PUSH2 0x11C PUSH1 0x0 CODECOPY PUSH1 0x0 RETURN INVALID PUSH1 0x80 PUSH1 0x40 MSTORE PUSH1 0x4 CALLDATASIZE LT PUSH2 0x59 JUMPI PUSH1 0x0 CALLDATALOAD PUSH1 0xE0 SHR DUP1 PUSH4 0x3CCFD60B EQ PUSH2 0x20F JUMPI DUP1 PUSH4 0x407C2821 EQ PUSH2 0x226 JUMPI DUP1 PUSH4 0x617A09D7 EQ PUSH2 0x251 JUMPI DUP1 PUSH4 0x9E5FAAFC EQ PUSH2 0x27A JUMPI DUP1 PUSH4 0xA37573D6 EQ PUSH2 0x284 JUMPI DUP1 PUSH4 0xEE2472F4 EQ PUSH2 0x2AF JUMPI PUSH2 0x20A JUMP JUMPDEST CALLDATASIZE PUSH2 0x20A JUMPI PUSH1 0x1 PUSH1 0x0 DUP2 SLOAD DUP1 SWAP3 SWAP2 SWAP1 PUSH2 0x71 SWAP1 PUSH2 0x4EC JUMP JUMPDEST SWAP2 SWAP1 POP SSTORE POP PUSH32 0x9DE7696C1DDDE10847858955A8530CC578AD5B8A8887B231FAD51ACF0A4CFA0A PUSH1 0x1 SLOAD PUSH1 0x40 MLOAD PUSH2 0xA7 SWAP2 SWAP1 PUSH2 0x543 JUMP JUMPDEST PUSH1 0x40 MLOAD DUP1 SWAP2 SUB SWAP1 LOG1 PUSH1 0x2 SLOAD PUSH1 0x1 SLOAD LT ISZERO PUSH2 0x208 JUMPI PUSH1 0x0 DUP1 PUSH1 0x0 SWAP1 SLOAD SWAP1 PUSH2 0x100 EXP SWAP1 DIV PUSH20 0xFFFFFFFFFFFFFFFFFFFFFFFFFFFFFFFFFFFFFFFF AND PUSH20 0xFFFFFFFFFFFFFFFFFFFFFFFFFFFFFFFFFFFFFFFF AND PUSH1 0x40 MLOAD PUSH1 0x24 ADD PUSH1 0x40 MLOAD PUSH1 0x20 DUP2 DUP4 SUB SUB DUP2 MSTORE SWAP1 PUSH1 0x40 MSTORE PUSH32 0x886BEC1700000000000000000000000000000000000000000000000000000000 PUSH28 0xFFFFFFFFFFFFFFFFFFFFFFFFFFFFFFFFFFFFFFFFFFFFFFFFFFFFFFFF NOT AND PUSH1 0x20 DUP3 ADD DUP1 MLOAD PUSH28 0xFFFFFFFFFFFFFFFFFFFFFFFFFFFFFFFFFFFFFFFFFFFFFFFFFFFFFFFF DUP4 DUP2 DUP4 AND OR DUP4 MSTORE POP POP POP POP PUSH1 0x40 MLOAD PUSH2 0x185 SWAP2 SWAP1 PUSH2 0x5D8 JUMP JUMPDEST PUSH1 0x0 PUSH1 0x40 MLOAD DUP1 DUP4 SUB DUP2 PUSH1 0x0 DUP7 GAS CALL SWAP2 POP POP RETURNDATASIZE DUP1 PUSH1 0x0 DUP2 EQ PUSH2 0x1C2 JUMPI PUSH1 0x40 MLOAD SWAP2 POP PUSH1 0x1F NOT PUSH1 0x3F RETURNDATASIZE ADD AND DUP3 ADD PUSH1 0x40 MSTORE RETURNDATASIZE DUP3 MSTORE RETURNDATASIZE PUSH1 0x0 PUSH1 0x20 DUP5 ADD RETURNDATACOPY PUSH2 0x1C7 JUMP JUMPDEST PUSH1 0x60 SWAP2 POP JUMPDEST POP POP SWAP1 POP DUP1 PUSH2 0x206 JUMPI PUSH32 0xF7CE286CB87E5C742D8641799444D56F1DF046FA657C97D13B6F4FDDB35A8CC3 PUSH1 0x40 MLOAD PUSH2 0x1FD SWAP1 PUSH2 0x64C JUMP JUMPDEST PUSH1 0x40 MLOAD DUP1 SWAP2 SUB SWAP1 LOG1 JUMPDEST POP JUMPDEST STOP JUMPDEST PUSH1 0x0 DUP1 REVERT JUMPDEST CALLVALUE DUP1 ISZERO PUSH2 0x21B JUMPI PUSH1 0x0 DUP1 REVERT JUMPDEST POP PUSH2 0x224 PUSH2 0x2DA JUMP JUMPDEST STOP JUMPDEST CALLVALUE DUP1 ISZERO PUSH2 0x232 JUMPI PUSH1 0x0 DUP1 REVERT JUMPDEST POP PUSH2 0x23B PUSH2 0x323 JUMP JUMPDEST PUSH1 0x40 MLOAD PUSH2 0x248 SWAP2 SWAP1 PUSH2 0x543 JUMP JUMPDEST PUSH1 0x40 MLOAD DUP1 SWAP2 SUB SWAP1 RETURN JUMPDEST CALLVALUE DUP1 ISZERO PUSH2 0x25D JUMPI PUSH1 0x0 DUP1 REVERT JUMPDEST POP PUSH2 0x278 PUSH1 0x4 DUP1 CALLDATASIZE SUB DUP2 ADD SWAP1 PUSH2 0x273 SWAP2 SWAP1 PUSH2 0x69D JUMP JUMPDEST PUSH2 0x329 JUMP JUMPDEST STOP JUMPDEST PUSH2 0x282 PUSH2 0x333 JUMP JUMPDEST STOP JUMPDEST CALLVALUE DUP1 ISZERO PUSH2 0x290 JUMPI PUSH1 0x0 DUP1 REVERT JUMPDEST POP PUSH2 0x299 PUSH2 0x489 JUMP JUMPDEST PUSH1 0x40 MLOAD PUSH2 0x2A6 SWAP2 SWAP1 PUSH2 0x543 JUMP JUMPDEST PUSH1 0x40 MLOAD DUP1 SWAP2 SUB SWAP1 RETURN JUMPDEST CALLVALUE DUP1 ISZERO PUSH2 0x2BB JUMPI PUSH1 0x0 DUP1 REVERT JUMPDEST POP PUSH2 0x2C4 PUSH2 0x48F JUMP JUMPDEST PUSH1 0x40 MLOAD PUSH2 0x2D1 SWAP2 SWAP1 PUSH2 0x70B JUMP JUMPDEST PUSH1 0x40 MLOAD DUP1 SWAP2 SUB SWAP1 RETURN JUMPDEST CALLER PUSH20 0xFFFFFFFFFFFFFFFFFFFFFFFFFFFFFFFFFFFFFFFF AND PUSH2 0x8FC SELFBALANCE SWAP1 DUP2 ISZERO MUL SWAP1 PUSH1 0x40 MLOAD PUSH1 0x0 PUSH1 0x40 MLOAD DUP1 DUP4 SUB DUP2 DUP6 DUP9 DUP9 CALL SWAP4 POP POP POP POP ISZERO DUP1 ISZERO PUSH2 0x320 JUMPI RETURNDATASIZE PUSH1 0x0 DUP1 RETURNDATACOPY RETURNDATASIZE PUSH1 0x0 REVERT JUMPDEST POP JUMP JUMPDEST PUSH1 0x1 SLOAD DUP2 JUMP JUMPDEST DUP1 PUSH1 0x2 DUP2 SWAP1 SSTORE POP POP JUMP JUMPDEST PUSH1 0x0 PUSH1 0x1 DUP2 SWAP1 SSTORE POP PUSH1 0x0 DUP1 PUSH1 0x0 SWAP1 SLOAD SWAP1 PUSH2 0x100 EXP SWAP1 DIV PUSH20 0xFFFFFFFFFFFFFFFFFFFFFFFFFFFFFFFFFFFFFFFF AND PUSH20 0xFFFFFFFFFFFFFFFFFFFFFFFFFFFFFFFFFFFFFFFF AND PUSH1 0x40 MLOAD PUSH1 0x24 ADD PUSH1 0x40 MLOAD PUSH1 0x20 DUP2 DUP4 SUB SUB DUP2 MSTORE SWAP1 PUSH1 0x40 MSTORE PUSH32 0x886BEC1700000000000000000000000000000000000000000000000000000000 PUSH28 0xFFFFFFFFFFFFFFFFFFFFFFFFFFFFFFFFFFFFFFFFFFFFFFFFFFFFFFFF NOT AND PUSH1 0x20 DUP3 ADD DUP1 MLOAD PUSH28 0xFFFFFFFFFFFFFFFFFFFFFFFFFFFFFFFFFFFFFFFFFFFFFFFFFFFFFFFF DUP4 DUP2 DUP4 AND OR DUP4 MSTORE POP POP POP POP PUSH1 0x40 MLOAD PUSH2 0x405 SWAP2 SWAP1 PUSH2 0x5D8 JUMP JUMPDEST PUSH1 0x0 PUSH1 0x40 MLOAD DUP1 DUP4 SUB DUP2 PUSH1 0x0 DUP7 GAS CALL SWAP2 POP POP RETURNDATASIZE DUP1 PUSH1 0x0 DUP2 EQ PUSH2 0x442 JUMPI PUSH1 0x40 MLOAD SWAP2 POP PUSH1 0x1F NOT PUSH1 0x3F RETURNDATASIZE ADD AND DUP3 ADD PUSH1 0x40 MSTORE RETURNDATASIZE DUP3 MSTORE RETURNDATASIZE PUSH1 0x0 PUSH1 0x20 DUP5 ADD RETURNDATACOPY PUSH2 0x447 JUMP JUMPDEST PUSH1 0x60 SWAP2 POP JUMPDEST POP POP SWAP1 POP DUP1 PUSH2 0x486 JUMPI PUSH32 0xF7CE286CB87E5C742D8641799444D56F1DF046FA657C97D13B6F4FDDB35A8CC3 PUSH1 0x40 MLOAD PUSH2 0x47D SWAP1 PUSH2 0x772 JUMP JUMPDEST PUSH1 0x40 MLOAD DUP1 SWAP2 SUB SWAP1 LOG1 JUMPDEST POP JUMP JUMPDEST PUSH1 0x2 SLOAD DUP2 JUMP JUMPDEST PUSH1 0x0 DUP1 SLOAD SWAP1 PUSH2 0x100 EXP SWAP1 DIV PUSH20 0xFFFFFFFFFFFFFFFFFFFFFFFFFFFFFFFFFFFFFFFF AND DUP2 JUMP JUMPDEST PUSH32 0x4E487B7100000000000000000000000000000000000000000000000000000000 PUSH1 0x0 MSTORE PUSH1 0x11 PUSH1 0x4 MSTORE PUSH1 0x24 PUSH1 0x0 REVERT JUMPDEST PUSH1 0x0 DUP2 SWAP1 POP SWAP2 SWAP1 POP JUMP JUMPDEST PUSH1 0x0 PUSH2 0x4F7 DUP3 PUSH2 0x4E2 JUMP JUMPDEST SWAP2 POP PUSH32 0xFFFFFFFFFFFFFFFFFFFFFFFFFFFFFFFFFFFFFFFFFFFFFFFFFFFFFFFFFFFFFFFF DUP3 SUB PUSH2 0x529 JUMPI PUSH2 0x528 PUSH2 0x4B3 JUMP JUMPDEST JUMPDEST PUSH1 0x1 DUP3 ADD SWAP1 POP SWAP2 SWAP1 POP JUMP JUMPDEST PUSH2 0x53D DUP2 PUSH2 0x4E2 JUMP JUMPDEST DUP3 MSTORE POP POP JUMP JUMPDEST PUSH1 0x0 PUSH1 0x20 DUP3 ADD SWAP1 POP PUSH2 0x558 PUSH1 0x0 DUP4 ADD DUP5 PUSH2 0x534 JUMP JUMPDEST SWAP3 SWAP2 POP POP JUMP JUMPDEST PUSH1 0x0 DUP2 MLOAD SWAP1 POP SWAP2 SWAP1 POP JUMP JUMPDEST PUSH1 0x0 DUP2 SWAP1 POP SWAP3 SWAP2 POP POP JUMP JUMPDEST PUSH1 0x0 JUMPDEST DUP4 DUP2 LT ISZERO PUSH2 0x592 JUMPI DUP1 DUP3 ADD MLOAD DUP2 DUP5 ADD MSTORE PUSH1 0x20 DUP2 ADD SWAP1 POP PUSH2 0x577 JUMP JUMPDEST DUP4 DUP2 GT ISZERO PUSH2 0x5A1 JUMPI PUSH1 0x0 DUP5 DUP5 ADD MSTORE JUMPDEST POP POP POP POP JUMP JUMPDEST PUSH1 0x0 PUSH2 0x5B2 DUP3 PUSH2 0x55E JUMP JUMPDEST PUSH2 0x5BC DUP2 DUP6 PUSH2 0x569 JUMP JUMPDEST SWAP4 POP PUSH2 0x5CC DUP2 DUP6 PUSH1 0x20 DUP7 ADD PUSH2 0x574 JUMP JUMPDEST DUP1 DUP5 ADD SWAP2 POP POP SWAP3 SWAP2 POP POP JUMP JUMPDEST PUSH1 0x0 PUSH2 0x5E4 DUP3 DUP5 PUSH2 0x5A7 JUMP JUMPDEST SWAP2 POP DUP2 SWAP1 POP SWAP3 SWAP2 POP POP JUMP JUMPDEST PUSH1 0x0 DUP3 DUP3 MSTORE PUSH1 0x20 DUP3 ADD SWAP1 POP SWAP3 SWAP2 POP POP JUMP JUMPDEST PUSH32 0x5265656E7472616E637920626C6F636B65640000000000000000000000000000 PUSH1 0x0 DUP3 ADD MSTORE POP JUMP JUMPDEST PUSH1 0x0 PUSH2 0x636 PUSH1 0x12 DUP4 PUSH2 0x5EF JUMP JUMPDEST SWAP2 POP PUSH2 0x641 DUP3 PUSH2 0x600 JUMP JUMPDEST PUSH1 0x20 DUP3 ADD SWAP1 POP SWAP2 SWAP1 POP JUMP JUMPDEST PUSH1 0x0 PUSH1 0x20 DUP3 ADD SWAP1 POP DUP2 DUP2 SUB PUSH1 0x0 DUP4 ADD MSTORE PUSH2 0x665 DUP2 PUSH2 0x629 JUMP JUMPDEST SWAP1 POP SWAP2 SWAP1 POP JUMP JUMPDEST PUSH1 0x0 DUP1 REVERT JUMPDEST PUSH2 0x67A DUP2 PUSH2 0x4E2 JUMP JUMPDEST DUP2 EQ PUSH2 0x685 JUMPI PUSH1 0x0 DUP1 REVERT JUMPDEST POP JUMP JUMPDEST PUSH1 0x0 DUP2 CALLDATALOAD SWAP1 POP PUSH2 0x697 DUP2 PUSH2 0x671 JUMP JUMPDEST SWAP3 SWAP2 POP POP JUMP JUMPDEST PUSH1 0x0 PUSH1 0x20 DUP3 DUP5 SUB SLT ISZERO PUSH2 0x6B3 JUMPI PUSH2 0x6B2 PUSH2 0x66C JUMP JUMPDEST JUMPDEST PUSH1 0x0 PUSH2 0x6C1 DUP5 DUP3 DUP6 ADD PUSH2 0x688 JUMP JUMPDEST SWAP2 POP POP SWAP3 SWAP2 POP POP JUMP JUMPDEST PUSH1 0x0 PUSH20 0xFFFFFFFFFFFFFFFFFFFFFFFFFFFFFFFFFFFFFFFF DUP3 AND SWAP1 POP SWAP2 SWAP1 POP JUMP JUMPDEST PUSH1 0x0 PUSH2 0x6F5 DUP3 PUSH2 0x6CA JUMP JUMPDEST SWAP1 POP SWAP2 SWAP1 POP JUMP JUMPDEST PUSH2 0x705 DUP2 PUSH2 0x6EA JUMP JUMPDEST DUP3 MSTORE POP POP JUMP JUMPDEST PUSH1 0x0 PUSH1 0x20 DUP3 ADD SWAP1 POP PUSH2 0x720 PUSH1 0x0 DUP4 ADD DUP5 PUSH2 0x6FC JUMP JUMPDEST SWAP3 SWAP2 POP POP JUMP JUMPDEST PUSH32 0x496E697469616C2061747461636B206661696C65640000000000000000000000 PUSH1 0x0 DUP3 ADD MSTORE POP JUMP JUMPDEST PUSH1 0x0 PUSH2 0x75C PUSH1 0x15 DUP4 PUSH2 0x5EF JUMP JUMPDEST SWAP2 POP PUSH2 0x767 DUP3 PUSH2 0x726 JUMP JUMPDEST PUSH1 0x20 DUP3 ADD SWAP1 POP SWAP2 SWAP1 POP JUMP JUMPDEST PUSH1 0x0 PUSH1 0x20 DUP3 ADD SWAP1 POP DUP2 DUP2 SUB PUSH1 0x0 DUP4 ADD MSTORE PUSH2 0x78B DUP2 PUSH2 0x74F JUMP JUMPDEST SWAP1 POP SWAP2 SWAP1 POP JUMP INVALID LOG1 PUSH5 0x736F6C6343 STOP ADDMOD 0xD STOP EXP "},"methodIdentifiers":{"attack()":"9e5faafc","attackCount()":"407c2821","maxAttacks()":"a37573d6","setMaxAttacks(uint256)":"617a09d7","targetDistributor()":"ee2472f4","withdraw()":"3ccfd60b"}}}}}