{"contracts/FractionalFactory.sol":{"FractionalFactory":{"abi":[{"inputs":[],"stateMutability":"nonpayable","type":"constructor"},{"inputs":[],"name":"DistributorAlreadyExists","type":"error"},{"inputs":[],"name":"InvalidAddress","type":"error"},{"inputs":[],"name":"Unauthorized","type":"error"},{"anonymous":false,"inputs":[{"indexed":true,"internalType":"address","name":"distributor","type":"address"},{"indexed":true,"internalType":"address","name":"assetNft","type":"address"},{"indexed":true,"internalType":"address","name":"fractionToken","type":"address"},{"indexed":false,"internalType":"uint256","name":"totalSupply","type":"uint256"},{"indexed":false,"internalType":"address","name":"owner","type":"address"}],"name":"DistributorCreated","type":"event"},{"anonymous":false,"inputs":[{"indexed":true,"internalType":"address","name":"previousOwner","type":"address"},{"indexed":true,"internalType":"address","name":"newOwner","type":"address"}],"name":"OwnershipTransferred","type":"event"},{"inputs":[{"internalType":"uint256","name":"","type":"uint256"}],"name":"allDistributors","outputs":[{"internalType":"address","name":"","type":"address"}],"stateMutability":"view","type":"function"},{"inputs":[{"internalType":"address","name":"","type":"address"}],"name":"assetToDistributor","outputs":[{"internalType":"address","name":"","type":"address"}],"stateMutability":"view","type":"function"},{"inputs":[{"internalType":"address","name":"assetNft","type":"address"},{"internalType":"address","name":"fractionToken","type":"address"},{"internalType":"uint256","name":"totalSupply","type":"uint256"},{"internalType":"address","name":"distributorOwner","type":"address"}],"name":"createDistributor","outputs":[{"internalType":"address","name":"distributor","type":"address"}],"stateMutability":"nonpayable","type":"function"},{"inputs":[{"internalType":"address","name":"","type":"address"}],"name":"fractionToDistributor","outputs":[{"internalType":"address","name":"","type":"address"}],"stateMutability":"view","type":"function"},{"inputs":[],"name":"getAllDistributors","outputs":[{"internalType":"address[]","name":"","type":"address[]"}],"stateMutability":"view","type":"function"},{"inputs":[{"internalType":"uint256","name":"index","type":"uint256"}],"name":"getDistributorAt","outputs":[{"internalType":"address","name":"","type":"address"}],"stateMutability":"view","type":"function"},{"inputs":[{"internalType":"address","name":"assetNft","type":"address"}],"name":"getDistributorByAsset","outputs":[{"internalType":"address","name":"","type":"address"}],"stateMutability":"view","type":"function"},{"inputs":[{"internalType":"address","name":"fractionToken","type":"address"}],"name":"getDistributorByFraction","outputs":[{"internalType":"address","name":"","type":"address"}],"stateMutability":"view","type":"function"},{"inputs":[],"name":"getDistributorCount","outputs":[{"internalType":"uint256","name":"","type":"uint256"}],"stateMutability":"view","type":"function"},{"inputs":[{"internalType":"address","name":"","type":"address"}],"name":"isDistributor","outputs":[{"internalType":"bool","name":"","type":"bool"}],"stateMutability":"view","type":"function"},{"inputs":[],"name":"owner","outputs":[{"internalType":"address","name":"","type":"address"}],"stateMutability":"view","type":"function"},{"inputs":[{"internalType":"address","name":"newOwner","type":"address"}],"name":"transferOwnership","outputs":[],"stateMutability":"nonpayable","type":"function"}],"evm":{"bytecode":{"linkReferences":{},"object":"608060405234801561001057600080fd5b5033600460006101000a81548173ffffffffffffffffffffffffffffffffffffffff021916908373ffffffffffffffffffffffffffffffffffffffff1602179055506145e9806100616000396000f3fe60806040523480156200001157600080fd5b5060043610620000c45760003560e01c80638f0c86fa116200007b5780638f0c86fa14620001e5578063c1702d74146200021b578063c72bc67e1462000251578063d0297eda1462000287578063f2fde38b14620002bd578063f6edf18c14620002dd57620000c4565b806315e0c19114620000c95780633052ffa014620000ff5780637bd66c7f14620001355780638cc5fbdd146200016b5780638da5cb5b14620001a15780638e24c34b14620001c3575b600080fd5b620000e76004803603810190620000e1919062000d34565b620002ff565b604051620000f6919062000d77565b60405180910390f35b6200011d600480360381019062000117919062000dcf565b62000332565b6040516200012c919062000d77565b60405180910390f35b6200015360048036038101906200014d919062000e41565b6200084c565b60405162000162919062000d77565b60405180910390f35b62000189600480360381019062000183919062000d34565b6200088c565b60405162000198919062000d77565b60405180910390f35b620001ab620008f5565b604051620001ba919062000d77565b60405180910390f35b620001cd6200091b565b604051620001dc919062000f41565b60405180910390f35b620002036004803603810190620001fd919062000d34565b620009ab565b60405162000212919062000f82565b60405180910390f35b62000239600480360381019062000233919062000d34565b620009cb565b60405162000248919062000d77565b60405180910390f35b6200026f600480360381019062000269919062000e41565b62000a34565b6040516200027e919062000d77565b60405180910390f35b620002a560048036038101906200029f919062000d34565b62000ac8565b604051620002b4919062000d77565b60405180910390f35b620002db6004803603810190620002d5919062000d34565b62000afb565b005b620002e762000cb0565b604051620002f6919062000fb0565b60405180910390f35b60026020528060005260406000206000915054906101000a900473ffffffffffffffffffffffffffffffffffffffff1681565b60008073ffffffffffffffffffffffffffffffffffffffff168573ffffffffffffffffffffffffffffffffffffffff1614806200039b5750600073ffffffffffffffffffffffffffffffffffffffff168473ffffffffffffffffffffffffffffffffffffffff16145b15620003d3576040517fe6c4247b00000000000000000000000000000000000000000000000000000000815260040160405180910390fd5b600073ffffffffffffffffffffffffffffffffffffffff168273ffffffffffffffffffffffffffffffffffffffff16036200043a576040517fe6c4247b00000000000000000000000000000000000000000000000000000000815260040160405180910390fd5b600073ffffffffffffffffffffffffffffffffffffffff16600160008773ffffffffffffffffffffffffffffffffffffffff1673ffffffffffffffffffffffffffffffffffffffff16815260200190815260200160002060009054906101000a900473ffffffffffffffffffffffffffffffffffffffff1673ffffffffffffffffffffffffffffffffffffffff161462000500576040517f198bba4800000000000000000000000000000000000000000000000000000000815260040160405180910390fd5b600073ffffffffffffffffffffffffffffffffffffffff16600260008673ffffffffffffffffffffffffffffffffffffffff1673ffffffffffffffffffffffffffffffffffffffff16815260200190815260200160002060009054906101000a900473ffffffffffffffffffffffffffffffffffffffff1673ffffffffffffffffffffffffffffffffffffffff1614620005c6576040517f198bba4800000000000000000000000000000000000000000000000000000000815260040160405180910390fd5b600085858585604051620005da9062000cbc565b620005e9949392919062000fcd565b604051809103906000f08015801562000606573d6000803e3d6000fd5b5090508091506000829080600181540180825580915050600190039060005260206000200160009091909190916101000a81548173ffffffffffffffffffffffffffffffffffffffff021916908373ffffffffffffffffffffffffffffffffffffffff16021790555081600160008873ffffffffffffffffffffffffffffffffffffffff1673ffffffffffffffffffffffffffffffffffffffff16815260200190815260200160002060006101000a81548173ffffffffffffffffffffffffffffffffffffffff021916908373ffffffffffffffffffffffffffffffffffffffff16021790555081600260008773ffffffffffffffffffffffffffffffffffffffff1673ffffffffffffffffffffffffffffffffffffffff16815260200190815260200160002060006101000a81548173ffffffffffffffffffffffffffffffffffffffff021916908373ffffffffffffffffffffffffffffffffffffffff1602179055506001600360008473ffffffffffffffffffffffffffffffffffffffff1673ffffffffffffffffffffffffffffffffffffffff16815260200190815260200160002060006101000a81548160ff0219169083151502179055508473ffffffffffffffffffffffffffffffffffffffff168673ffffffffffffffffffffffffffffffffffffffff168373ffffffffffffffffffffffffffffffffffffffff167ffeeea802d29d8b3953b2bc5c50f6f702f2451c6866e61443e2075b8734e1181987876040516200083b9291906200101a565b60405180910390a450949350505050565b600081815481106200085d57600080fd5b906000526020600020016000915054906101000a900473ffffffffffffffffffffffffffffffffffffffff1681565b6000600160008373ffffffffffffffffffffffffffffffffffffffff1673ffffffffffffffffffffffffffffffffffffffff16815260200190815260200160002060009054906101000a900473ffffffffffffffffffffffffffffffffffffffff169050919050565b600460009054906101000a900473ffffffffffffffffffffffffffffffffffffffff1681565b60606000805480602002602001604051908101604052809291908181526020018280548015620009a157602002820191906000526020600020905b8160009054906101000a900473ffffffffffffffffffffffffffffffffffffffff1673ffffffffffffffffffffffffffffffffffffffff168152602001906001019080831162000956575b5050505050905090565b60036020528060005260406000206000915054906101000a900460ff1681565b6000600260008373ffffffffffffffffffffffffffffffffffffffff1673ffffffffffffffffffffffffffffffffffffffff16815260200190815260200160002060009054906101000a900473ffffffffffffffffffffffffffffffffffffffff169050919050565b60008080549050821062000a7f576040517f08c379a000000000000000000000000000000000000000000000000000000000815260040162000a7690620010a8565b60405180910390fd5b6000828154811062000a965762000a95620010ca565b5b9060005260206000200160009054906101000a900473ffffffffffffffffffffffffffffffffffffffff169050919050565b60016020528060005260406000206000915054906101000a900473ffffffffffffffffffffffffffffffffffffffff1681565b600460009054906101000a900473ffffffffffffffffffffffffffffffffffffffff1673ffffffffffffffffffffffffffffffffffffffff163373ffffffffffffffffffffffffffffffffffffffff161462000b83576040517f82b4290000000000000000000000000000000000000000000000000000000000815260040160405180910390fd5b600073ffffffffffffffffffffffffffffffffffffffff168173ffffffffffffffffffffffffffffffffffffffff160362000bea576040517fe6c4247b00000000000000000000000000000000000000000000000000000000815260040160405180910390fd5b6000600460009054906101000a900473ffffffffffffffffffffffffffffffffffffffff16905081600460006101000a81548173ffffffffffffffffffffffffffffffffffffffff021916908373ffffffffffffffffffffffffffffffffffffffff1602179055508173ffffffffffffffffffffffffffffffffffffffff168173ffffffffffffffffffffffffffffffffffffffff167f8be0079c531659141344cd1fd0a4f28419497f9722a3daafe3b4186f6b6457e060405160405180910390a35050565b60008080549050905090565b6134e380620010fa83390190565b600080fd5b600073ffffffffffffffffffffffffffffffffffffffff82169050919050565b600062000cfc8262000ccf565b9050919050565b62000d0e8162000cef565b811462000d1a57600080fd5b50565b60008135905062000d2e8162000d03565b92915050565b60006020828403121562000d4d5762000d4c62000cca565b5b600062000d5d8482850162000d1d565b91505092915050565b62000d718162000cef565b82525050565b600060208201905062000d8e600083018462000d66565b92915050565b6000819050919050565b62000da98162000d94565b811462000db557600080fd5b50565b60008135905062000dc98162000d9e565b92915050565b6000806000806080858703121562000dec5762000deb62000cca565b5b600062000dfc8782880162000d1d565b945050602062000e0f8782880162000d1d565b935050604062000e228782880162000db8565b925050606062000e358782880162000d1d565b91505092959194509250565b60006020828403121562000e5a5762000e5962000cca565b5b600062000e6a8482850162000db8565b91505092915050565b600081519050919050565b600082825260208201905092915050565b6000819050602082019050919050565b62000eaa8162000cef565b82525050565b600062000ebe838362000e9f565b60208301905092915050565b6000602082019050919050565b600062000ee48262000e73565b62000ef0818562000e7e565b935062000efd8362000e8f565b8060005b8381101562000f3457815162000f18888262000eb0565b975062000f258362000eca565b92505060018101905062000f01565b5085935050505092915050565b6000602082019050818103600083015262000f5d818462000ed7565b905092915050565b60008115159050919050565b62000f7c8162000f65565b82525050565b600060208201905062000f99600083018462000f71565b92915050565b62000faa8162000d94565b82525050565b600060208201905062000fc7600083018462000f9f565b92915050565b600060808201905062000fe4600083018762000d66565b62000ff3602083018662000d66565b62001002604083018562000f9f565b62001011606083018462000d66565b95945050505050565b600060408201905062001031600083018562000f9f565b62001040602083018462000d66565b9392505050565b600082825260208201905092915050565b7f496e646578206f7574206f6620626f756e647300000000000000000000000000600082015250565b60006200109060138362001047565b91506200109d8262001058565b602082019050919050565b60006020820190508181036000830152620010c38162001081565b9050919050565b7f4e487b7100000000000000000000000000000000000000000000000000000000600052603260045260246000fdfe60c06040523480156200001157600080fd5b50604051620034e3380380620034e38339818101604052810190620000379190620003c2565b806001600081905550600073ffffffffffffffffffffffffffffffffffffffff168173ffffffffffffffffffffffffffffffffffffffff1603620000b55760006040517f1e4fbdf7000000000000000000000000000000000000000000000000000000008152600401620000ac919062000445565b60405180910390fd5b620000c6816200025760201b60201c565b50600073ffffffffffffffffffffffffffffffffffffffff168473ffffffffffffffffffffffffffffffffffffffff1614806200012f5750600073ffffffffffffffffffffffffffffffffffffffff168373ffffffffffffffffffffffffffffffffffffffff16145b1562000167576040517fe6c4247b00000000000000000000000000000000000000000000000000000000815260040160405180910390fd5b60008203620001a2576040517f2c5211c600000000000000000000000000000000000000000000000000000000815260040160405180910390fd5b8373ffffffffffffffffffffffffffffffffffffffff1660808173ffffffffffffffffffffffffffffffffffffffff16815250508273ffffffffffffffffffffffffffffffffffffffff1660a08173ffffffffffffffffffffffffffffffffffffffff1681525050816002819055507fd847752640337969f783ba291f56251d6165ba92dd3d27984ad0f81995aef0b660008360405162000245929190620004c0565b60405180910390a150505050620004ed565b6000600160009054906101000a900473ffffffffffffffffffffffffffffffffffffffff16905081600160006101000a81548173ffffffffffffffffffffffffffffffffffffffff021916908373ffffffffffffffffffffffffffffffffffffffff1602179055508173ffffffffffffffffffffffffffffffffffffffff168173ffffffffffffffffffffffffffffffffffffffff167f8be0079c531659141344cd1fd0a4f28419497f9722a3daafe3b4186f6b6457e060405160405180910390a35050565b600080fd5b600073ffffffffffffffffffffffffffffffffffffffff82169050919050565b60006200034f8262000322565b9050919050565b620003618162000342565b81146200036d57600080fd5b50565b600081519050620003818162000356565b92915050565b6000819050919050565b6200039c8162000387565b8114620003a857600080fd5b50565b600081519050620003bc8162000391565b92915050565b60008060008060808587031215620003df57620003de6200031d565b5b6000620003ef8782880162000370565b9450506020620004028782880162000370565b93505060406200041587828801620003ab565b9250506060620004288782880162000370565b91505092959194509250565b6200043f8162000342565b82525050565b60006020820190506200045c600083018462000434565b92915050565b6000819050919050565b6000819050919050565b600062000497620004916200048b8462000462565b6200046c565b62000387565b9050919050565b620004a98162000476565b82525050565b620004ba8162000387565b82525050565b6000604082019050620004d760008301856200049e565b620004e66020830184620004af565b9392505050565b60805160a051612fc96200051a6000396000818161111201526114df01526000611d650152612fc96000f3fe6080604052600436106101a05760003560e01c806364a1f248116100ec578063ae4491051161008a578063c0908a7111610064578063c0908a7114610676578063e7ab70be146106b3578063eef72a3c146106de578063f2fde38b146107075761027f565b8063ae4491051461061a578063b1fe48de14610624578063b21b83e01461064d5761027f565b8063715018a6116100c6578063715018a614610596578063886bec17146105ad57806389cd9cf4146105c45780638da5cb5b146105ef5761027f565b806364a1f2481461050557806366d49bab1461053057806369580566146105595761027f565b8063338b5dea11610159578063457dfc6711610133578063457dfc67146104495780635873eb9b1461047457806358e574c5146104b15780635c975abb146104da5761027f565b8063338b5dea146103a657806339151165146103cf57806339491b8c1461040c5761027f565b806314205e281461028457806316c38b3c146102c15780631ab4e875146102ea5780631b4d5975146103275780631e2de0d1146103525780631fa91a851461037b5761027f565b3661027f576000341180156101b757506000600254115b80156101d05750600960009054906101000a900460ff16155b1561027d57600060025464e8d4a51000346101eb91906123b2565b6101f5919061243b565b90508060036000828254610209919061246c565b925050819055503460046000828254610222919061246c565b925050819055503373ffffffffffffffffffffffffffffffffffffffff167fb548377c5c0a1b6b67e22a933676c80a1874369367c95ad48b87360a3c065011346003546040516102739291906124d1565b60405180910390a2505b005b600080fd5b34801561029057600080fd5b506102ab60048036038101906102a69190612562565b610730565b6040516102b8919061258f565b60405180910390f35b3480156102cd57600080fd5b506102e860048036038101906102e391906125e2565b6107e3565b005b3480156102f657600080fd5b50610311600480360381019061030c919061260f565b61083f565b60405161031e919061258f565b60405180910390f35b34801561033357600080fd5b5061033c610864565b604051610349919061258f565b60405180910390f35b34801561035e57600080fd5b50610379600480360381019061037491906126b4565b61086a565b005b34801561038757600080fd5b50610390610d7f565b60405161039d919061258f565b60405180910390f35b3480156103b257600080fd5b506103cd60048036038101906103c8919061272d565b610d87565b005b3480156103db57600080fd5b506103f660048036038101906103f19190612562565b6110d8565b604051610403919061258f565b60405180910390f35b34801561041857600080fd5b50610433600480360381019061042e9190612562565b6110f0565b604051610440919061277c565b60405180910390f35b34801561045557600080fd5b5061045e611110565b60405161046b91906127a6565b60405180910390f35b34801561048057600080fd5b5061049b60048036038101906104969190612562565b611134565b6040516104a8919061258f565b60405180910390f35b3480156104bd57600080fd5b506104d860048036038101906104d391906127ff565b61114c565b005b3480156104e657600080fd5b506104ef611417565b6040516104fc919061277c565b60405180910390f35b34801561051157600080fd5b5061051a61142a565b604051610527919061258f565b60405180910390f35b34801561053c57600080fd5b5061055760048036038101906105529190612866565b611430565b005b34801561056557600080fd5b50610580600480360381019061057b9190612562565b6114bd565b60405161058d919061258f565b60405180910390f35b3480156105a257600080fd5b506105ab611590565b005b3480156105b957600080fd5b506105c26115a4565b005b3480156105d057600080fd5b506105d9611846565b6040516105e6919061258f565b60405180910390f35b3480156105fb57600080fd5b5061060461184c565b60405161061191906127a6565b60405180910390f35b610622611876565b005b34801561063057600080fd5b5061064b60048036038101906106469190612893565b6119ec565b005b34801561065957600080fd5b50610674600480360381019061066f91906128d3565b611b03565b005b34801561068257600080fd5b5061069d60048036038101906106989190612562565b611c7b565b6040516106aa919061258f565b60405180910390f35b3480156106bf57600080fd5b506106c8611d63565b6040516106d591906127a6565b60405180910390f35b3480156106ea57600080fd5b50610705600480360381019061070091906126b4565b611d87565b005b34801561071357600080fd5b5061072e60048036038101906107299190612562565b612164565b005b600061016773ffffffffffffffffffffffffffffffffffffffff1663f7888aec83306040518363ffffffff1660e01b815260040161076f929190612926565b6040805180830381865afa9250505080156107a857506040513d601f19601f820116820180604052508101906107a591906129c1565b60015b6107b557600090506107de565b601660030b8260030b146107ce576000925050506107de565b8067ffffffffffffffff16925050505b919050565b6107eb6121ea565b80600960006101000a81548160ff0219169083151502179055507f4543baa938cb97f5073ec206ad35638cdb1f4db8f677d31579b2f6fe7d18c14a81604051610834919061277c565b60405180910390a150565b6008602052816000526040600020602052806000526040600020600091509150505481565b60035481565b600960009054906101000a900460ff16156108b1576040517fab35696f00000000000000000000000000000000000000000000000000000000815260040160405180910390fd5b6108b9612263565b60006108c433611c7b565b905060008383905067ffffffffffffffff8111156108e5576108e4612a01565b5b6040519080825280602002602001820160405280156109135781602001602082028036833780820191505090505b5090506000821115610a3357600061092a336114bd565b905064e8d4a510006003548261094091906123b2565b61094a919061243b565b600660003373ffffffffffffffffffffffffffffffffffffffff1673ffffffffffffffffffffffffffffffffffffffff1681526020019081526020016000208190555060003373ffffffffffffffffffffffffffffffffffffffff16846040516109b390612a61565b60006040518083038185875af1925050503d80600081146109f0576040519150601f19603f3d011682016040523d82523d6000602084013e6109f5565b606091505b5050905080610a30576040517f90b8ec1800000000000000000000000000000000000000000000000000000000815260040160405180910390fd5b50505b600061016790506000805b86869050811015610cd5576000600860003373ffffffffffffffffffffffffffffffffffffffff1673ffffffffffffffffffffffffffffffffffffffff1681526020019081526020016000206000898985818110610a9f57610a9e612a76565b5b9050602002016020810190610ab49190612562565b73ffffffffffffffffffffffffffffffffffffffff1673ffffffffffffffffffffffffffffffffffffffff1681526020019081526020016000205490506000811115610cc1576001925080858381518110610b1257610b11612a76565b5b6020026020010181815250506000600860003373ffffffffffffffffffffffffffffffffffffffff1673ffffffffffffffffffffffffffffffffffffffff16815260200190815260200160002060008a8a86818110610b7457610b73612a76565b5b9050602002016020810190610b899190612562565b73ffffffffffffffffffffffffffffffffffffffff1673ffffffffffffffffffffffffffffffffffffffff1681526020019081526020016000208190555060008473ffffffffffffffffffffffffffffffffffffffff1663eca369178a8a86818110610bf857610bf7612a76565b5b9050602002016020810190610c0d9190612562565b3033866040518563ffffffff1660e01b8152600401610c2f9493929190612ab4565b6020604051808303816000875af1158015610c4e573d6000803e3d6000fd5b505050506040513d601f19601f82011682018060405250810190610c729190612af9565b9050601660030b8160030b14610cbf57806040517f71dd4a98000000000000000000000000000000000000000000000000000000008152600401610cb69190612b35565b60405180910390fd5b505b508080610ccd90612b50565b915050610a3e565b50600084148015610ce4575080155b15610d1b576040517f73380d9900000000000000000000000000000000000000000000000000000000815260040160405180910390fd5b3373ffffffffffffffffffffffffffffffffffffffff167f630ffd80ca0ea5347d3fc507ec01147eb329af83f39cb0d336e9ba79a6a1355885888887604051610d679493929190612d19565b60405180910390a250505050610d7b6122a9565b5050565b600047905090565b600960009054906101000a900460ff1615610dce576040517fab35696f00000000000000000000000000000000000000000000000000000000815260040160405180910390fd5b610dd6612263565b600073ffffffffffffffffffffffffffffffffffffffff168273ffffffffffffffffffffffffffffffffffffffff1603610e3c576040517fe6c4247b00000000000000000000000000000000000000000000000000000000815260040160405180910390fd5b60008103610e76576040517f2c5211c600000000000000000000000000000000000000000000000000000000815260040160405180910390fd5b600060025403610eb2576040517f2c5211c600000000000000000000000000000000000000000000000000000000815260040160405180910390fd5b600760008373ffffffffffffffffffffffffffffffffffffffff1673ffffffffffffffffffffffffffffffffffffffff16815260200190815260200160002060009054906101000a900460ff16610f35576040517f3f9f188e00000000000000000000000000000000000000000000000000000000815260040160405180910390fd5b6000610167905060008173ffffffffffffffffffffffffffffffffffffffff1663eca36917853330876040518563ffffffff1660e01b8152600401610f7d9493929190612ab4565b6020604051808303816000875af1158015610f9c573d6000803e3d6000fd5b505050506040513d601f19601f82011682018060405250810190610fc09190612af9565b9050601660030b8160030b1461100d57806040517f71dd4a980000000000000000000000000000000000000000000000000000000081526004016110049190612b35565b60405180910390fd5b82600560008673ffffffffffffffffffffffffffffffffffffffff1673ffffffffffffffffffffffffffffffffffffffff168152602001908152602001600020600082825461105c919061246c565b925050819055508373ffffffffffffffffffffffffffffffffffffffff163373ffffffffffffffffffffffffffffffffffffffff167f080c225c8e9d9f966820ef915f5f555d575e9c3a188f1252d19e94aa2250f09d85426040516110c29291906124d1565b60405180910390a350506110d46122a9565b5050565b60056020528060005260406000206000915090505481565b60076020528060005260406000206000915054906101000a900460ff1681565b7f000000000000000000000000000000000000000000000000000000000000000081565b60066020528060005260406000206000915090505481565b6111546121ea565b600073ffffffffffffffffffffffffffffffffffffffff168473ffffffffffffffffffffffffffffffffffffffff16036111ba576040517fe6c4247b00000000000000000000000000000000000000000000000000000000815260040160405180910390fd5b60008311156112a257824710156111fd576040517ff4d678b800000000000000000000000000000000000000000000000000000000815260040160405180910390fd5b60008473ffffffffffffffffffffffffffffffffffffffff168460405161122390612a61565b60006040518083038185875af1925050503d8060008114611260576040519150601f19603f3d011682016040523d82523d6000602084013e611265565b606091505b50509050806112a0576040517f90b8ec1800000000000000000000000000000000000000000000000000000000815260040160405180910390fd5b505b600073ffffffffffffffffffffffffffffffffffffffff168273ffffffffffffffffffffffffffffffffffffffff16141580156112df5750600081115b156113bf576000610167905060008173ffffffffffffffffffffffffffffffffffffffff1663eca36917853089876040518563ffffffff1660e01b815260040161132c9493929190612dbf565b6020604051808303816000875af115801561134b573d6000803e3d6000fd5b505050506040513d601f19601f8201168201806040525081019061136f9190612af9565b9050601660030b8160030b146113bc57806040517f71dd4a980000000000000000000000000000000000000000000000000000000081526004016113b39190612b35565b60405180910390fd5b50505b8373ffffffffffffffffffffffffffffffffffffffff167fbbae553982d541d38dacb1ea468ac757f324d0e279b6e4a2958f9e894da575ff84848460405161140993929190612e04565b60405180910390a250505050565b600960009054906101000a900460ff1681565b60045481565b6114386121ea565b60008103611472576040517f2c5211c600000000000000000000000000000000000000000000000000000000815260040160405180910390fd5b60006002549050816002819055507fd847752640337969f783ba291f56251d6165ba92dd3d27984ad0f81995aef0b681836040516114b19291906124d1565b60405180910390a15050565b600061016773ffffffffffffffffffffffffffffffffffffffff1663f7888aec7f0000000000000000000000000000000000000000000000000000000000000000846040518363ffffffff1660e01b815260040161151c929190612926565b6040805180830381865afa92505050801561155557506040513d601f19601f8201168201806040525081019061155291906129c1565b60015b611562576000905061158b565b601660030b8260030b1461157b5760009250505061158b565b8067ffffffffffffffff16925050505b919050565b6115986121ea565b6115a260006122b3565b565b600960009054906101000a900460ff16156115eb576040517fab35696f00000000000000000000000000000000000000000000000000000000815260040160405180910390fd5b6115f3612263565b60006115fe33611c7b565b90506000810361163a576040517f73380d9900000000000000000000000000000000000000000000000000000000815260040160405180910390fd5b6000611645336114bd565b905064e8d4a510006003548261165b91906123b2565b611665919061243b565b600660003373ffffffffffffffffffffffffffffffffffffffff1673ffffffffffffffffffffffffffffffffffffffff1681526020019081526020016000208190555060003373ffffffffffffffffffffffffffffffffffffffff16836040516116ce90612a61565b60006040518083038185875af1925050503d806000811461170b576040519150601f19603f3d011682016040523d82523d6000602084013e611710565b606091505b505090508061174b576040517f90b8ec1800000000000000000000000000000000000000000000000000000000815260040160405180910390fd5b60008067ffffffffffffffff81111561176757611766612a01565b5b6040519080825280602002602001820160405280156117955781602001602082028036833780820191505090505b50905060008067ffffffffffffffff8111156117b4576117b3612a01565b5b6040519080825280602002602001820160405280156117e25781602001602082028036833780820191505090505b5090503373ffffffffffffffffffffffffffffffffffffffff167f630ffd80ca0ea5347d3fc507ec01147eb329af83f39cb0d336e9ba79a6a1355886848460405161182f93929190612ec1565b60405180910390a250505050506118446122a9565b565b60025481565b6000600160009054906101000a900473ffffffffffffffffffffffffffffffffffffffff16905090565b600960009054906101000a900460ff16156118bd576040517fab35696f00000000000000000000000000000000000000000000000000000000815260040160405180910390fd5b6118c5612263565b600034036118ff576040517f2c5211c600000000000000000000000000000000000000000000000000000000815260040160405180910390fd5b60006002540361193b576040517f2c5211c600000000000000000000000000000000000000000000000000000000815260040160405180910390fd5b600060025464e8d4a510003461195191906123b2565b61195b919061243b565b9050806003600082825461196f919061246c565b925050819055503460046000828254611988919061246c565b925050819055503373ffffffffffffffffffffffffffffffffffffffff167fb548377c5c0a1b6b67e22a933676c80a1874369367c95ad48b87360a3c065011346003546040516119d99291906124d1565b60405180910390a2506119ea6122a9565b565b6119f46121ea565b600073ffffffffffffffffffffffffffffffffffffffff168273ffffffffffffffffffffffffffffffffffffffff1603611a5a576040517fe6c4247b00000000000000000000000000000000000000000000000000000000815260040160405180910390fd5b80600760008473ffffffffffffffffffffffffffffffffffffffff1673ffffffffffffffffffffffffffffffffffffffff16815260200190815260200160002060006101000a81548160ff0219169083151502179055508173ffffffffffffffffffffffffffffffffffffffff167f60d450f9fba6f163c4d4f6329637ebd4b3d6c2d87f36229cf43b40d45753f7db82604051611af7919061277c565b60405180910390a25050565b611b0b6121ea565b600073ffffffffffffffffffffffffffffffffffffffff168373ffffffffffffffffffffffffffffffffffffffff161480611b725750600073ffffffffffffffffffffffffffffffffffffffff168273ffffffffffffffffffffffffffffffffffffffff16145b15611ba9576040517fe6c4247b00000000000000000000000000000000000000000000000000000000815260040160405180910390fd5b60008103611be3576040517f2c5211c600000000000000000000000000000000000000000000000000000000815260040160405180910390fd5b80600860008573ffffffffffffffffffffffffffffffffffffffff1673ffffffffffffffffffffffffffffffffffffffff16815260200190815260200160002060008473ffffffffffffffffffffffffffffffffffffffff1673ffffffffffffffffffffffffffffffffffffffff1681526020019081526020016000206000828254611c6f919061246c565b92505081905550505050565b600080611c87836114bd565b905060008103611c9b576000915050611d5e565b600064e8d4a5100060035483611cb191906123b2565b611cbb919061243b565b9050600660008573ffffffffffffffffffffffffffffffffffffffff1673ffffffffffffffffffffffffffffffffffffffff168152602001908152602001600020548111611d0e57600092505050611d5e565b600660008573ffffffffffffffffffffffffffffffffffffffff1673ffffffffffffffffffffffffffffffffffffffff1681526020019081526020016000205481611d599190612f06565b925050505b919050565b7f000000000000000000000000000000000000000000000000000000000000000081565b600960009054906101000a900460ff1615611dce576040517fab35696f00000000000000000000000000000000000000000000000000000000815260040160405180910390fd5b611dd6612263565b60008282905067ffffffffffffffff811115611df557611df4612a01565b5b604051908082528060200260200182016040528015611e235781602001602082028036833780820191505090505b509050600080610167905060005b858590508110156120c8576000600860003373ffffffffffffffffffffffffffffffffffffffff1673ffffffffffffffffffffffffffffffffffffffff1681526020019081526020016000206000888885818110611e9257611e91612a76565b5b9050602002016020810190611ea79190612562565b73ffffffffffffffffffffffffffffffffffffffff1673ffffffffffffffffffffffffffffffffffffffff16815260200190815260200160002054905060008111156120b4576001935080858381518110611f0557611f04612a76565b5b6020026020010181815250506000600860003373ffffffffffffffffffffffffffffffffffffffff1673ffffffffffffffffffffffffffffffffffffffff1681526020019081526020016000206000898986818110611f6757611f66612a76565b5b9050602002016020810190611f7c9190612562565b73ffffffffffffffffffffffffffffffffffffffff1673ffffffffffffffffffffffffffffffffffffffff1681526020019081526020016000208190555060008373ffffffffffffffffffffffffffffffffffffffff1663eca36917898986818110611feb57611fea612a76565b5b90506020020160208101906120009190612562565b3033866040518563ffffffff1660e01b81526004016120229493929190612ab4565b6020604051808303816000875af1158015612041573d6000803e3d6000fd5b505050506040513d601f19601f820116820180604052508101906120659190612af9565b9050601660030b8160030b146120b257806040517f71dd4a980000000000000000000000000000000000000000000000000000000081526004016120a99190612b35565b60405180910390fd5b505b5080806120c090612b50565b915050611e31565b5081612100576040517f73380d9900000000000000000000000000000000000000000000000000000000815260040160405180910390fd5b3373ffffffffffffffffffffffffffffffffffffffff167f630ffd80ca0ea5347d3fc507ec01147eb329af83f39cb0d336e9ba79a6a13558600087878760405161214d9493929190612f75565b60405180910390a25050506121606122a9565b5050565b61216c6121ea565b600073ffffffffffffffffffffffffffffffffffffffff168173ffffffffffffffffffffffffffffffffffffffff16036121de5760006040517f1e4fbdf70000000000000000000000000000000000000000000000000000000081526004016121d591906127a6565b60405180910390fd5b6121e7816122b3565b50565b3373ffffffffffffffffffffffffffffffffffffffff1661220961184c565b73ffffffffffffffffffffffffffffffffffffffff161461226157336040517f118cdaa700000000000000000000000000000000000000000000000000000000815260040161225891906127a6565b60405180910390fd5b565b60026000540361229f576040517f3ee5aeb500000000000000000000000000000000000000000000000000000000815260040160405180910390fd5b6002600081905550565b6001600081905550565b6000600160009054906101000a900473ffffffffffffffffffffffffffffffffffffffff16905081600160006101000a81548173ffffffffffffffffffffffffffffffffffffffff021916908373ffffffffffffffffffffffffffffffffffffffff1602179055508173ffffffffffffffffffffffffffffffffffffffff168173ffffffffffffffffffffffffffffffffffffffff167f8be0079c531659141344cd1fd0a4f28419497f9722a3daafe3b4186f6b6457e060405160405180910390a35050565b6000819050919050565b7f4e487b7100000000000000000000000000000000000000000000000000000000600052601160045260246000fd5b60006123bd82612379565b91506123c883612379565b9250817fffffffffffffffffffffffffffffffffffffffffffffffffffffffffffffffff048311821515161561240157612400612383565b5b828202905092915050565b7f4e487b7100000000000000000000000000000000000000000000000000000000600052601260045260246000fd5b600061244682612379565b915061245183612379565b9250826124615761246061240c565b5b828204905092915050565b600061247782612379565b915061248283612379565b9250827fffffffffffffffffffffffffffffffffffffffffffffffffffffffffffffffff038211156124b7576124b6612383565b5b828201905092915050565b6124cb81612379565b82525050565b60006040820190506124e660008301856124c2565b6124f360208301846124c2565b9392505050565b600080fd5b600080fd5b600073ffffffffffffffffffffffffffffffffffffffff82169050919050565b600061252f82612504565b9050919050565b61253f81612524565b811461254a57600080fd5b50565b60008135905061255c81612536565b92915050565b600060208284031215612578576125776124fa565b5b60006125868482850161254d565b91505092915050565b60006020820190506125a460008301846124c2565b92915050565b60008115159050919050565b6125bf816125aa565b81146125ca57600080fd5b50565b6000813590506125dc816125b6565b92915050565b6000602082840312156125f8576125f76124fa565b5b6000612606848285016125cd565b91505092915050565b60008060408385031215612626576126256124fa565b5b60006126348582860161254d565b92505060206126458582860161254d565b9150509250929050565b600080fd5b600080fd5b600080fd5b60008083601f8401126126745761267361264f565b5b8235905067ffffffffffffffff81111561269157612690612654565b5b6020830191508360208202830111156126ad576126ac612659565b5b9250929050565b600080602083850312156126cb576126ca6124fa565b5b600083013567ffffffffffffffff8111156126e9576126e86124ff565b5b6126f58582860161265e565b92509250509250929050565b61270a81612379565b811461271557600080fd5b50565b60008135905061272781612701565b92915050565b60008060408385031215612744576127436124fa565b5b60006127528582860161254d565b925050602061276385828601612718565b9150509250929050565b612776816125aa565b82525050565b6000602082019050612791600083018461276d565b92915050565b6127a081612524565b82525050565b60006020820190506127bb6000830184612797565b92915050565b60006127cc82612504565b9050919050565b6127dc816127c1565b81146127e757600080fd5b50565b6000813590506127f9816127d3565b92915050565b60008060008060808587031215612819576128186124fa565b5b6000612827878288016127ea565b945050602061283887828801612718565b93505060406128498782880161254d565b925050606061285a87828801612718565b91505092959194509250565b60006020828403121561287c5761287b6124fa565b5b600061288a84828501612718565b91505092915050565b600080604083850312156128aa576128a96124fa565b5b60006128b88582860161254d565b92505060206128c9858286016125cd565b9150509250929050565b6000806000606084860312156128ec576128eb6124fa565b5b60006128fa8682870161254d565b935050602061290b8682870161254d565b925050604061291c86828701612718565b9150509250925092565b600060408201905061293b6000830185612797565b6129486020830184612797565b9392505050565b60008160030b9050919050565b6129658161294f565b811461297057600080fd5b50565b6000815190506129828161295c565b92915050565b60008160070b9050919050565b61299e81612988565b81146129a957600080fd5b50565b6000815190506129bb81612995565b92915050565b600080604083850312156129d8576129d76124fa565b5b60006129e685828601612973565b92505060206129f7858286016129ac565b9150509250929050565b7f4e487b7100000000000000000000000000000000000000000000000000000000600052604160045260246000fd5b600081905092915050565b50565b6000612a4b600083612a30565b9150612a5682612a3b565b600082019050919050565b6000612a6c82612a3e565b9150819050919050565b7f4e487b7100000000000000000000000000000000000000000000000000000000600052603260045260246000fd5b612aae81612988565b82525050565b6000608082019050612ac96000830187612797565b612ad66020830186612797565b612ae36040830185612797565b612af06060830184612aa5565b95945050505050565b600060208284031215612b0f57612b0e6124fa565b5b6000612b1d84828501612973565b91505092915050565b612b2f8161294f565b82525050565b6000602082019050612b4a6000830184612b26565b92915050565b6000612b5b82612379565b91507fffffffffffffffffffffffffffffffffffffffffffffffffffffffffffffffff8203612b8d57612b8c612383565b5b600182019050919050565b600082825260208201905092915050565b6000819050919050565b612bbc81612524565b82525050565b6000612bce8383612bb3565b60208301905092915050565b6000612be9602084018461254d565b905092915050565b6000602082019050919050565b6000612c0a8385612b98565b9350612c1582612ba9565b8060005b85811015612c4e57612c2b8284612bda565b612c358882612bc2565b9750612c4083612bf1565b925050600181019050612c19565b5085925050509392505050565b600081519050919050565b600082825260208201905092915050565b6000819050602082019050919050565b612c9081612379565b82525050565b6000612ca28383612c87565b60208301905092915050565b6000602082019050919050565b6000612cc682612c5b565b612cd08185612c66565b9350612cdb83612c77565b8060005b83811015612d0c578151612cf38882612c96565b9750612cfe83612cae565b925050600181019050612cdf565b5085935050505092915050565b6000606082019050612d2e60008301876124c2565b8181036020830152612d41818587612bfe565b90508181036040830152612d558184612cbb565b905095945050505050565b6000819050919050565b6000612d85612d80612d7b84612504565b612d60565b612504565b9050919050565b6000612d9782612d6a565b9050919050565b6000612da982612d8c565b9050919050565b612db981612d9e565b82525050565b6000608082019050612dd46000830187612797565b612de16020830186612797565b612dee6040830185612db0565b612dfb6060830184612aa5565b95945050505050565b6000606082019050612e1960008301866124c2565b612e266020830185612797565b612e3360408301846124c2565b949350505050565b600081519050919050565b6000819050602082019050919050565b6000602082019050919050565b6000612e6e82612e3b565b612e788185612b98565b9350612e8383612e46565b8060005b83811015612eb4578151612e9b8882612bc2565b9750612ea683612e56565b925050600181019050612e87565b5085935050505092915050565b6000606082019050612ed660008301866124c2565b8181036020830152612ee88185612e63565b90508181036040830152612efc8184612cbb565b9050949350505050565b6000612f1182612379565b9150612f1c83612379565b925082821015612f2f57612f2e612383565b5b828203905092915050565b6000819050919050565b6000612f5f612f5a612f5584612f3a565b612d60565b612379565b9050919050565b612f6f81612f44565b82525050565b6000606082019050612f8a6000830187612f66565b8181036020830152612f9d818587612bfe565b90508181036040830152612fb18184612cbb565b90509594505050505056fea164736f6c634300080d000aa164736f6c634300080d000a","opcodes":"PUSH1 0x80 PUSH1 0x40 MSTORE CALLVALUE DUP1 ISZERO PUSH2 0x10 JUMPI PUSH1 0x0 DUP1 REVERT JUMPDEST POP CALLER PUSH1 0x4 PUSH1 0x0 PUSH2 0x100 EXP DUP2 SLOAD DUP2 PUSH20 0xFFFFFFFFFFFFFFFFFFFFFFFFFFFFFFFFFFFFFFFF MUL NOT AND SWAP1 DUP4 PUSH20 0xFFFFFFFFFFFFFFFFFFFFFFFFFFFFFFFFFFFFFFFF AND MUL OR SWAP1 SSTORE POP PUSH2 0x45E9 DUP1 PUSH2 0x61 PUSH1 0x0 CODECOPY PUSH1 0x0 RETURN INVALID PUSH1 0x80 PUSH1 0x40 MSTORE CALLVALUE DUP1 ISZERO PUSH3 0x11 JUMPI PUSH1 0x0 DUP1 REVERT JUMPDEST POP PUSH1 0x4 CALLDATASIZE LT PUSH3 0xC4 JUMPI PUSH1 0x0 CALLDATALOAD PUSH1 0xE0 SHR DUP1 PUSH4 0x8F0C86FA GT PUSH3 0x7B JUMPI DUP1 PUSH4 0x8F0C86FA EQ PUSH3 0x1E5 JUMPI DUP1 PUSH4 0xC1702D74 EQ PUSH3 0x21B JUMPI DUP1 PUSH4 0xC72BC67E EQ PUSH3 0x251 JUMPI DUP1 PUSH4 0xD0297EDA EQ PUSH3 0x287 JUMPI DUP1 PUSH4 0xF2FDE38B EQ PUSH3 0x2BD JUMPI DUP1 PUSH4 0xF6EDF18C EQ PUSH3 0x2DD JUMPI PUSH3 0xC4 JUMP JUMPDEST DUP1 PUSH4 0x15E0C191 EQ PUSH3 0xC9 JUMPI DUP1 PUSH4 0x3052FFA0 EQ PUSH3 0xFF JUMPI DUP1 PUSH4 0x7BD66C7F EQ PUSH3 0x135 JUMPI DUP1 PUSH4 0x8CC5FBDD EQ PUSH3 0x16B JUMPI DUP1 PUSH4 0x8DA5CB5B EQ PUSH3 0x1A1 JUMPI DUP1 PUSH4 0x8E24C34B EQ PUSH3 0x1C3 JUMPI JUMPDEST PUSH1 0x0 DUP1 REVERT JUMPDEST PUSH3 0xE7 PUSH1 0x4 DUP1 CALLDATASIZE SUB DUP2 ADD SWAP1 PUSH3 0xE1 SWAP2 SWAP1 PUSH3 0xD34 JUMP JUMPDEST PUSH3 0x2FF JUMP JUMPDEST PUSH1 0x40 MLOAD PUSH3 0xF6 SWAP2 SWAP1 PUSH3 0xD77 JUMP JUMPDEST PUSH1 0x40 MLOAD DUP1 SWAP2 SUB SWAP1 RETURN JUMPDEST PUSH3 0x11D PUSH1 0x4 DUP1 CALLDATASIZE SUB DUP2 ADD SWAP1 PUSH3 0x117 SWAP2 SWAP1 PUSH3 0xDCF JUMP JUMPDEST PUSH3 0x332 JUMP JUMPDEST PUSH1 0x40 MLOAD PUSH3 0x12C SWAP2 SWAP1 PUSH3 0xD77 JUMP JUMPDEST PUSH1 0x40 MLOAD DUP1 SWAP2 SUB SWAP1 RETURN JUMPDEST PUSH3 0x153 PUSH1 0x4 DUP1 CALLDATASIZE SUB DUP2 ADD SWAP1 PUSH3 0x14D SWAP2 SWAP1 PUSH3 0xE41 JUMP JUMPDEST PUSH3 0x84C JUMP JUMPDEST PUSH1 0x40 MLOAD PUSH3 0x162 SWAP2 SWAP1 PUSH3 0xD77 JUMP JUMPDEST PUSH1 0x40 MLOAD DUP1 SWAP2 SUB SWAP1 RETURN JUMPDEST PUSH3 0x189 PUSH1 0x4 DUP1 CALLDATASIZE SUB DUP2 ADD SWAP1 PUSH3 0x183 SWAP2 SWAP1 PUSH3 0xD34 JUMP JUMPDEST PUSH3 0x88C JUMP JUMPDEST PUSH1 0x40 MLOAD PUSH3 0x198 SWAP2 SWAP1 PUSH3 0xD77 JUMP JUMPDEST PUSH1 0x40 MLOAD DUP1 SWAP2 SUB SWAP1 RETURN JUMPDEST PUSH3 0x1AB PUSH3 0x8F5 JUMP JUMPDEST PUSH1 0x40 MLOAD PUSH3 0x1BA SWAP2 SWAP1 PUSH3 0xD77 JUMP JUMPDEST PUSH1 0x40 MLOAD DUP1 SWAP2 SUB SWAP1 RETURN JUMPDEST PUSH3 0x1CD PUSH3 0x91B JUMP JUMPDEST PUSH1 0x40 MLOAD PUSH3 0x1DC SWAP2 SWAP1 PUSH3 0xF41 JUMP JUMPDEST PUSH1 0x40 MLOAD DUP1 SWAP2 SUB SWAP1 RETURN JUMPDEST PUSH3 0x203 PUSH1 0x4 DUP1 CALLDATASIZE SUB DUP2 ADD SWAP1 PUSH3 0x1FD SWAP2 SWAP1 PUSH3 0xD34 JUMP JUMPDEST PUSH3 0x9AB JUMP JUMPDEST PUSH1 0x40 MLOAD PUSH3 0x212 SWAP2 SWAP1 PUSH3 0xF82 JUMP JUMPDEST PUSH1 0x40 MLOAD DUP1 SWAP2 SUB SWAP1 RETURN JUMPDEST PUSH3 0x239 PUSH1 0x4 DUP1 CALLDATASIZE SUB DUP2 ADD SWAP1 PUSH3 0x233 SWAP2 SWAP1 PUSH3 0xD34 JUMP JUMPDEST PUSH3 0x9CB JUMP JUMPDEST PUSH1 0x40 MLOAD PUSH3 0x248 SWAP2 SWAP1 PUSH3 0xD77 JUMP JUMPDEST PUSH1 0x40 MLOAD DUP1 SWAP2 SUB SWAP1 RETURN JUMPDEST PUSH3 0x26F PUSH1 0x4 DUP1 CALLDATASIZE SUB DUP2 ADD SWAP1 PUSH3 0x269 SWAP2 SWAP1 PUSH3 0xE41 JUMP JUMPDEST PUSH3 0xA34 JUMP JUMPDEST PUSH1 0x40 MLOAD PUSH3 0x27E SWAP2 SWAP1 PUSH3 0xD77 JUMP JUMPDEST PUSH1 0x40 MLOAD DUP1 SWAP2 SUB SWAP1 RETURN JUMPDEST PUSH3 0x2A5 PUSH1 0x4 DUP1 CALLDATASIZE SUB DUP2 ADD SWAP1 PUSH3 0x29F SWAP2 SWAP1 PUSH3 0xD34 JUMP JUMPDEST PUSH3 0xAC8 JUMP JUMPDEST PUSH1 0x40 MLOAD PUSH3 0x2B4 SWAP2 SWAP1 PUSH3 0xD77 JUMP JUMPDEST PUSH1 0x40 MLOAD DUP1 SWAP2 SUB SWAP1 RETURN JUMPDEST PUSH3 0x2DB PUSH1 0x4 DUP1 CALLDATASIZE SUB DUP2 ADD SWAP1 PUSH3 0x2D5 SWAP2 SWAP1 PUSH3 0xD34 JUMP JUMPDEST PUSH3 0xAFB JUMP JUMPDEST STOP JUMPDEST PUSH3 0x2E7 PUSH3 0xCB0 JUMP JUMPDEST PUSH1 0x40 MLOAD PUSH3 0x2F6 SWAP2 SWAP1 PUSH3 0xFB0 JUMP JUMPDEST PUSH1 0x40 MLOAD DUP1 SWAP2 SUB SWAP1 RETURN JUMPDEST PUSH1 0x2 PUSH1 0x20 MSTORE DUP1 PUSH1 0x0 MSTORE PUSH1 0x40 PUSH1 0x0 KECCAK256 PUSH1 0x0 SWAP2 POP SLOAD SWAP1 PUSH2 0x100 EXP SWAP1 DIV PUSH20 0xFFFFFFFFFFFFFFFFFFFFFFFFFFFFFFFFFFFFFFFF AND DUP2 JUMP JUMPDEST PUSH1 0x0 DUP1 PUSH20 0xFFFFFFFFFFFFFFFFFFFFFFFFFFFFFFFFFFFFFFFF AND DUP6 PUSH20 0xFFFFFFFFFFFFFFFFFFFFFFFFFFFFFFFFFFFFFFFF AND EQ DUP1 PUSH3 0x39B JUMPI POP PUSH1 0x0 PUSH20 0xFFFFFFFFFFFFFFFFFFFFFFFFFFFFFFFFFFFFFFFF AND DUP5 PUSH20 0xFFFFFFFFFFFFFFFFFFFFFFFFFFFFFFFFFFFFFFFF AND EQ JUMPDEST ISZERO PUSH3 0x3D3 JUMPI PUSH1 0x40 MLOAD PUSH32 0xE6C4247B00000000000000000000000000000000000000000000000000000000 DUP2 MSTORE PUSH1 0x4 ADD PUSH1 0x40 MLOAD DUP1 SWAP2 SUB SWAP1 REVERT JUMPDEST PUSH1 0x0 PUSH20 0xFFFFFFFFFFFFFFFFFFFFFFFFFFFFFFFFFFFFFFFF AND DUP3 PUSH20 0xFFFFFFFFFFFFFFFFFFFFFFFFFFFFFFFFFFFFFFFF AND SUB PUSH3 0x43A JUMPI PUSH1 0x40 MLOAD PUSH32 0xE6C4247B00000000000000000000000000000000000000000000000000000000 DUP2 MSTORE PUSH1 0x4 ADD PUSH1 0x40 MLOAD DUP1 SWAP2 SUB SWAP1 REVERT JUMPDEST PUSH1 0x0 PUSH20 0xFFFFFFFFFFFFFFFFFFFFFFFFFFFFFFFFFFFFFFFF AND PUSH1 0x1 PUSH1 0x0 DUP8 PUSH20 0xFFFFFFFFFFFFFFFFFFFFFFFFFFFFFFFFFFFFFFFF AND PUSH20 0xFFFFFFFFFFFFFFFFFFFFFFFFFFFFFFFFFFFFFFFF AND DUP2 MSTORE PUSH1 0x20 ADD SWAP1 DUP2 MSTORE PUSH1 0x20 ADD PUSH1 0x0 KECCAK256 PUSH1 0x0 SWAP1 SLOAD SWAP1 PUSH2 0x100 EXP SWAP1 DIV PUSH20 0xFFFFFFFFFFFFFFFFFFFFFFFFFFFFFFFFFFFFFFFF AND PUSH20 0xFFFFFFFFFFFFFFFFFFFFFFFFFFFFFFFFFFFFFFFF AND EQ PUSH3 0x500 JUMPI PUSH1 0x40 MLOAD PUSH32 0x198BBA4800000000000000000000000000000000000000000000000000000000 DUP2 MSTORE PUSH1 0x4 ADD PUSH1 0x40 MLOAD DUP1 SWAP2 SUB SWAP1 REVERT JUMPDEST PUSH1 0x0 PUSH20 0xFFFFFFFFFFFFFFFFFFFFFFFFFFFFFFFFFFFFFFFF AND PUSH1 0x2 PUSH1 0x0 DUP7 PUSH20 0xFFFFFFFFFFFFFFFFFFFFFFFFFFFFFFFFFFFFFFFF AND PUSH20 0xFFFFFFFFFFFFFFFFFFFFFFFFFFFFFFFFFFFFFFFF AND DUP2 MSTORE PUSH1 0x20 ADD SWAP1 DUP2 MSTORE PUSH1 0x20 ADD PUSH1 0x0 KECCAK256 PUSH1 0x0 SWAP1 SLOAD SWAP1 PUSH2 0x100 EXP SWAP1 DIV PUSH20 0xFFFFFFFFFFFFFFFFFFFFFFFFFFFFFFFFFFFFFFFF AND PUSH20 0xFFFFFFFFFFFFFFFFFFFFFFFFFFFFFFFFFFFFFFFF AND EQ PUSH3 0x5C6 JUMPI PUSH1 0x40 MLOAD PUSH32 0x198BBA4800000000000000000000000000000000000000000000000000000000 DUP2 MSTORE PUSH1 0x4 ADD PUSH1 0x40 MLOAD DUP1 SWAP2 SUB SWAP1 REVERT JUMPDEST PUSH1 0x0 DUP6 DUP6 DUP6 DUP6 PUSH1 0x40 MLOAD PUSH3 0x5DA SWAP1 PUSH3 0xCBC JUMP JUMPDEST PUSH3 0x5E9 SWAP5 SWAP4 SWAP3 SWAP2 SWAP1 PUSH3 0xFCD JUMP JUMPDEST PUSH1 0x40 MLOAD DUP1 SWAP2 SUB SWAP1 PUSH1 0x0 CREATE DUP1 ISZERO DUP1 ISZERO PUSH3 0x606 JUMPI RETURNDATASIZE PUSH1 0x0 DUP1 RETURNDATACOPY RETURNDATASIZE PUSH1 0x0 REVERT JUMPDEST POP SWAP1 POP DUP1 SWAP2 POP PUSH1 0x0 DUP3 SWAP1 DUP1 PUSH1 0x1 DUP2 SLOAD ADD DUP1 DUP3 SSTORE DUP1 SWAP2 POP POP PUSH1 0x1 SWAP1 SUB SWAP1 PUSH1 0x0 MSTORE PUSH1 0x20 PUSH1 0x0 KECCAK256 ADD PUSH1 0x0 SWAP1 SWAP2 SWAP1 SWAP2 SWAP1 SWAP2 PUSH2 0x100 EXP DUP2 SLOAD DUP2 PUSH20 0xFFFFFFFFFFFFFFFFFFFFFFFFFFFFFFFFFFFFFFFF MUL NOT AND SWAP1 DUP4 PUSH20 0xFFFFFFFFFFFFFFFFFFFFFFFFFFFFFFFFFFFFFFFF AND MUL OR SWAP1 SSTORE POP DUP2 PUSH1 0x1 PUSH1 0x0 DUP9 PUSH20 0xFFFFFFFFFFFFFFFFFFFFFFFFFFFFFFFFFFFFFFFF AND PUSH20 0xFFFFFFFFFFFFFFFFFFFFFFFFFFFFFFFFFFFFFFFF AND DUP2 MSTORE PUSH1 0x20 ADD SWAP1 DUP2 MSTORE PUSH1 0x20 ADD PUSH1 0x0 KECCAK256 PUSH1 0x0 PUSH2 0x100 EXP DUP2 SLOAD DUP2 PUSH20 0xFFFFFFFFFFFFFFFFFFFFFFFFFFFFFFFFFFFFFFFF MUL NOT AND SWAP1 DUP4 PUSH20 0xFFFFFFFFFFFFFFFFFFFFFFFFFFFFFFFFFFFFFFFF AND MUL OR SWAP1 SSTORE POP DUP2 PUSH1 0x2 PUSH1 0x0 DUP8 PUSH20 0xFFFFFFFFFFFFFFFFFFFFFFFFFFFFFFFFFFFFFFFF AND PUSH20 0xFFFFFFFFFFFFFFFFFFFFFFFFFFFFFFFFFFFFFFFF AND DUP2 MSTORE PUSH1 0x20 ADD SWAP1 DUP2 MSTORE PUSH1 0x20 ADD PUSH1 0x0 KECCAK256 PUSH1 0x0 PUSH2 0x100 EXP DUP2 SLOAD DUP2 PUSH20 0xFFFFFFFFFFFFFFFFFFFFFFFFFFFFFFFFFFFFFFFF MUL NOT AND SWAP1 DUP4 PUSH20 0xFFFFFFFFFFFFFFFFFFFFFFFFFFFFFFFFFFFFFFFF AND MUL OR SWAP1 SSTORE POP PUSH1 0x1 PUSH1 0x3 PUSH1 0x0 DUP5 PUSH20 0xFFFFFFFFFFFFFFFFFFFFFFFFFFFFFFFFFFFFFFFF AND PUSH20 0xFFFFFFFFFFFFFFFFFFFFFFFFFFFFFFFFFFFFFFFF AND DUP2 MSTORE PUSH1 0x20 ADD SWAP1 DUP2 MSTORE PUSH1 0x20 ADD PUSH1 0x0 KECCAK256 PUSH1 0x0 PUSH2 0x100 EXP DUP2 SLOAD DUP2 PUSH1 0xFF MUL NOT AND SWAP1 DUP4 ISZERO ISZERO MUL OR SWAP1 SSTORE POP DUP5 PUSH20 0xFFFFFFFFFFFFFFFFFFFFFFFFFFFFFFFFFFFFFFFF AND DUP7 PUSH20 0xFFFFFFFFFFFFFFFFFFFFFFFFFFFFFFFFFFFFFFFF AND DUP4 PUSH20 0xFFFFFFFFFFFFFFFFFFFFFFFFFFFFFFFFFFFFFFFF AND PUSH32 0xFEEEA802D29D8B3953B2BC5C50F6F702F2451C6866E61443E2075B8734E11819 DUP8 DUP8 PUSH1 0x40 MLOAD PUSH3 0x83B SWAP3 SWAP2 SWAP1 PUSH3 0x101A JUMP JUMPDEST PUSH1 0x40 MLOAD DUP1 SWAP2 SUB SWAP1 LOG4 POP SWAP5 SWAP4 POP POP POP POP JUMP JUMPDEST PUSH1 0x0 DUP2 DUP2 SLOAD DUP2 LT PUSH3 0x85D JUMPI PUSH1 0x0 DUP1 REVERT JUMPDEST SWAP1 PUSH1 0x0 MSTORE PUSH1 0x20 PUSH1 0x0 KECCAK256 ADD PUSH1 0x0 SWAP2 POP SLOAD SWAP1 PUSH2 0x100 EXP SWAP1 DIV PUSH20 0xFFFFFFFFFFFFFFFFFFFFFFFFFFFFFFFFFFFFFFFF AND DUP2 JUMP JUMPDEST PUSH1 0x0 PUSH1 0x1 PUSH1 0x0 DUP4 PUSH20 0xFFFFFFFFFFFFFFFFFFFFFFFFFFFFFFFFFFFFFFFF AND PUSH20 0xFFFFFFFFFFFFFFFFFFFFFFFFFFFFFFFFFFFFFFFF AND DUP2 MSTORE PUSH1 0x20 ADD SWAP1 DUP2 MSTORE PUSH1 0x20 ADD PUSH1 0x0 KECCAK256 PUSH1 0x0 SWAP1 SLOAD SWAP1 PUSH2 0x100 EXP SWAP1 DIV PUSH20 0xFFFFFFFFFFFFFFFFFFFFFFFFFFFFFFFFFFFFFFFF AND SWAP1 POP SWAP2 SWAP1 POP JUMP JUMPDEST PUSH1 0x4 PUSH1 0x0 SWAP1 SLOAD SWAP1 PUSH2 0x100 EXP SWAP1 DIV PUSH20 0xFFFFFFFFFFFFFFFFFFFFFFFFFFFFFFFFFFFFFFFF AND DUP2 JUMP JUMPDEST PUSH1 0x60 PUSH1 0x0 DUP1 SLOAD DUP1 PUSH1 0x20 MUL PUSH1 0x20 ADD PUSH1 0x40 MLOAD SWAP1 DUP2 ADD PUSH1 0x40 MSTORE DUP1 SWAP3 SWAP2 SWAP1 DUP2 DUP2 MSTORE PUSH1 0x20 ADD DUP3 DUP1 SLOAD DUP1 ISZERO PUSH3 0x9A1 JUMPI PUSH1 0x20 MUL DUP3 ADD SWAP2 SWAP1 PUSH1 0x0 MSTORE PUSH1 0x20 PUSH1 0x0 KECCAK256 SWAP1 JUMPDEST DUP2 PUSH1 0x0 SWAP1 SLOAD SWAP1 PUSH2 0x100 EXP SWAP1 DIV PUSH20 0xFFFFFFFFFFFFFFFFFFFFFFFFFFFFFFFFFFFFFFFF AND PUSH20 0xFFFFFFFFFFFFFFFFFFFFFFFFFFFFFFFFFFFFFFFF AND DUP2 MSTORE PUSH1 0x20 ADD SWAP1 PUSH1 0x1 ADD SWAP1 DUP1 DUP4 GT PUSH3 0x956 JUMPI JUMPDEST POP POP POP POP POP SWAP1 POP SWAP1 JUMP JUMPDEST PUSH1 0x3 PUSH1 0x20 MSTORE DUP1 PUSH1 0x0 MSTORE PUSH1 0x40 PUSH1 0x0 KECCAK256 PUSH1 0x0 SWAP2 POP SLOAD SWAP1 PUSH2 0x100 EXP SWAP1 DIV PUSH1 0xFF AND DUP2 JUMP JUMPDEST PUSH1 0x0 PUSH1 0x2 PUSH1 0x0 DUP4 PUSH20 0xFFFFFFFFFFFFFFFFFFFFFFFFFFFFFFFFFFFFFFFF AND PUSH20 0xFFFFFFFFFFFFFFFFFFFFFFFFFFFFFFFFFFFFFFFF AND DUP2 MSTORE PUSH1 0x20 ADD SWAP1 DUP2 MSTORE PUSH1 0x20 ADD PUSH1 0x0 KECCAK256 PUSH1 0x0 SWAP1 SLOAD SWAP1 PUSH2 0x100 EXP SWAP1 DIV PUSH20 0xFFFFFFFFFFFFFFFFFFFFFFFFFFFFFFFFFFFFFFFF AND SWAP1 POP SWAP2 SWAP1 POP JUMP JUMPDEST PUSH1 0x0 DUP1 DUP1 SLOAD SWAP1 POP DUP3 LT PUSH3 0xA7F JUMPI PUSH1 0x40 MLOAD PUSH32 0x8C379A000000000000000000000000000000000000000000000000000000000 DUP2 MSTORE PUSH1 0x4 ADD PUSH3 0xA76 SWAP1 PUSH3 0x10A8 JUMP JUMPDEST PUSH1 0x40 MLOAD DUP1 SWAP2 SUB SWAP1 REVERT JUMPDEST PUSH1 0x0 DUP3 DUP2 SLOAD DUP2 LT PUSH3 0xA96 JUMPI PUSH3 0xA95 PUSH3 0x10CA JUMP JUMPDEST JUMPDEST SWAP1 PUSH1 0x0 MSTORE PUSH1 0x20 PUSH1 0x0 KECCAK256 ADD PUSH1 0x0 SWAP1 SLOAD SWAP1 PUSH2 0x100 EXP SWAP1 DIV PUSH20 0xFFFFFFFFFFFFFFFFFFFFFFFFFFFFFFFFFFFFFFFF AND SWAP1 POP SWAP2 SWAP1 POP JUMP JUMPDEST PUSH1 0x1 PUSH1 0x20 MSTORE DUP1 PUSH1 0x0 MSTORE PUSH1 0x40 PUSH1 0x0 KECCAK256 PUSH1 0x0 SWAP2 POP SLOAD SWAP1 PUSH2 0x100 EXP SWAP1 DIV PUSH20 0xFFFFFFFFFFFFFFFFFFFFFFFFFFFFFFFFFFFFFFFF AND DUP2 JUMP JUMPDEST PUSH1 0x4 PUSH1 0x0 SWAP1 SLOAD SWAP1 PUSH2 0x100 EXP SWAP1 DIV PUSH20 0xFFFFFFFFFFFFFFFFFFFFFFFFFFFFFFFFFFFFFFFF AND PUSH20 0xFFFFFFFFFFFFFFFFFFFFFFFFFFFFFFFFFFFFFFFF AND CALLER PUSH20 0xFFFFFFFFFFFFFFFFFFFFFFFFFFFFFFFFFFFFFFFF AND EQ PUSH3 0xB83 JUMPI PUSH1 0x40 MLOAD PUSH32 0x82B4290000000000000000000000000000000000000000000000000000000000 DUP2 MSTORE PUSH1 0x4 ADD PUSH1 0x40 MLOAD DUP1 SWAP2 SUB SWAP1 REVERT JUMPDEST PUSH1 0x0 PUSH20 0xFFFFFFFFFFFFFFFFFFFFFFFFFFFFFFFFFFFFFFFF AND DUP2 PUSH20 0xFFFFFFFFFFFFFFFFFFFFFFFFFFFFFFFFFFFFFFFF AND SUB PUSH3 0xBEA JUMPI PUSH1 0x40 MLOAD PUSH32 0xE6C4247B00000000000000000000000000000000000000000000000000000000 DUP2 MSTORE PUSH1 0x4 ADD PUSH1 0x40 MLOAD DUP1 SWAP2 SUB SWAP1 REVERT JUMPDEST PUSH1 0x0 PUSH1 0x4 PUSH1 0x0 SWAP1 SLOAD SWAP1 PUSH2 0x100 EXP SWAP1 DIV PUSH20 0xFFFFFFFFFFFFFFFFFFFFFFFFFFFFFFFFFFFFFFFF AND SWAP1 POP DUP2 PUSH1 0x4 PUSH1 0x0 PUSH2 0x100 EXP DUP2 SLOAD DUP2 PUSH20 0xFFFFFFFFFFFFFFFFFFFFFFFFFFFFFFFFFFFFFFFF MUL NOT AND SWAP1 DUP4 PUSH20 0xFFFFFFFFFFFFFFFFFFFFFFFFFFFFFFFFFFFFFFFF AND MUL OR SWAP1 SSTORE POP DUP2 PUSH20 0xFFFFFFFFFFFFFFFFFFFFFFFFFFFFFFFFFFFFFFFF AND DUP2 PUSH20 0xFFFFFFFFFFFFFFFFFFFFFFFFFFFFFFFFFFFFFFFF AND PUSH32 0x8BE0079C531659141344CD1FD0A4F28419497F9722A3DAAFE3B4186F6B6457E0 PUSH1 0x40 MLOAD PUSH1 0x40 MLOAD DUP1 SWAP2 SUB SWAP1 LOG3 POP POP JUMP JUMPDEST PUSH1 0x0 DUP1 DUP1 SLOAD SWAP1 POP SWAP1 POP SWAP1 JUMP JUMPDEST PUSH2 0x34E3 DUP1 PUSH3 0x10FA DUP4 CODECOPY ADD SWAP1 JUMP JUMPDEST PUSH1 0x0 DUP1 REVERT JUMPDEST PUSH1 0x0 PUSH20 0xFFFFFFFFFFFFFFFFFFFFFFFFFFFFFFFFFFFFFFFF DUP3 AND SWAP1 POP SWAP2 SWAP1 POP JUMP JUMPDEST PUSH1 0x0 PUSH3 0xCFC DUP3 PUSH3 0xCCF JUMP JUMPDEST SWAP1 POP SWAP2 SWAP1 POP JUMP JUMPDEST PUSH3 0xD0E DUP2 PUSH3 0xCEF JUMP JUMPDEST DUP2 EQ PUSH3 0xD1A JUMPI PUSH1 0x0 DUP1 REVERT JUMPDEST POP JUMP JUMPDEST PUSH1 0x0 DUP2 CALLDATALOAD SWAP1 POP PUSH3 0xD2E DUP2 PUSH3 0xD03 JUMP JUMPDEST SWAP3 SWAP2 POP POP JUMP JUMPDEST PUSH1 0x0 PUSH1 0x20 DUP3 DUP5 SUB SLT ISZERO PUSH3 0xD4D JUMPI PUSH3 0xD4C PUSH3 0xCCA JUMP JUMPDEST JUMPDEST PUSH1 0x0 PUSH3 0xD5D DUP5 DUP3 DUP6 ADD PUSH3 0xD1D JUMP JUMPDEST SWAP2 POP POP SWAP3 SWAP2 POP POP JUMP JUMPDEST PUSH3 0xD71 DUP2 PUSH3 0xCEF JUMP JUMPDEST DUP3 MSTORE POP POP JUMP JUMPDEST PUSH1 0x0 PUSH1 0x20 DUP3 ADD SWAP1 POP PUSH3 0xD8E PUSH1 0x0 DUP4 ADD DUP5 PUSH3 0xD66 JUMP JUMPDEST SWAP3 SWAP2 POP POP JUMP JUMPDEST PUSH1 0x0 DUP2 SWAP1 POP SWAP2 SWAP1 POP JUMP JUMPDEST PUSH3 0xDA9 DUP2 PUSH3 0xD94 JUMP JUMPDEST DUP2 EQ PUSH3 0xDB5 JUMPI PUSH1 0x0 DUP1 REVERT JUMPDEST POP JUMP JUMPDEST PUSH1 0x0 DUP2 CALLDATALOAD SWAP1 POP PUSH3 0xDC9 DUP2 PUSH3 0xD9E JUMP JUMPDEST SWAP3 SWAP2 POP POP JUMP JUMPDEST PUSH1 0x0 DUP1 PUSH1 0x0 DUP1 PUSH1 0x80 DUP6 DUP8 SUB SLT ISZERO PUSH3 0xDEC JUMPI PUSH3 0xDEB PUSH3 0xCCA JUMP JUMPDEST JUMPDEST PUSH1 0x0 PUSH3 0xDFC DUP8 DUP3 DUP9 ADD PUSH3 0xD1D JUMP JUMPDEST SWAP5 POP POP PUSH1 0x20 PUSH3 0xE0F DUP8 DUP3 DUP9 ADD PUSH3 0xD1D JUMP JUMPDEST SWAP4 POP POP PUSH1 0x40 PUSH3 0xE22 DUP8 DUP3 DUP9 ADD PUSH3 0xDB8 JUMP JUMPDEST SWAP3 POP POP PUSH1 0x60 PUSH3 0xE35 DUP8 DUP3 DUP9 ADD PUSH3 0xD1D JUMP JUMPDEST SWAP2 POP POP SWAP3 SWAP6 SWAP2 SWAP5 POP SWAP3 POP JUMP JUMPDEST PUSH1 0x0 PUSH1 0x20 DUP3 DUP5 SUB SLT ISZERO PUSH3 0xE5A JUMPI PUSH3 0xE59 PUSH3 0xCCA JUMP JUMPDEST JUMPDEST PUSH1 0x0 PUSH3 0xE6A DUP5 DUP3 DUP6 ADD PUSH3 0xDB8 JUMP JUMPDEST SWAP2 POP POP SWAP3 SWAP2 POP POP JUMP JUMPDEST PUSH1 0x0 DUP2 MLOAD SWAP1 POP SWAP2 SWAP1 POP JUMP JUMPDEST PUSH1 0x0 DUP3 DUP3 MSTORE PUSH1 0x20 DUP3 ADD SWAP1 POP SWAP3 SWAP2 POP POP JUMP JUMPDEST PUSH1 0x0 DUP2 SWAP1 POP PUSH1 0x20 DUP3 ADD SWAP1 POP SWAP2 SWAP1 POP JUMP JUMPDEST PUSH3 0xEAA DUP2 PUSH3 0xCEF JUMP JUMPDEST DUP3 MSTORE POP POP JUMP JUMPDEST PUSH1 0x0 PUSH3 0xEBE DUP4 DUP4 PUSH3 0xE9F JUMP JUMPDEST PUSH1 0x20 DUP4 ADD SWAP1 POP SWAP3 SWAP2 POP POP JUMP JUMPDEST PUSH1 0x0 PUSH1 0x20 DUP3 ADD SWAP1 POP SWAP2 SWAP1 POP JUMP JUMPDEST PUSH1 0x0 PUSH3 0xEE4 DUP3 PUSH3 0xE73 JUMP JUMPDEST PUSH3 0xEF0 DUP2 DUP6 PUSH3 0xE7E JUMP JUMPDEST SWAP4 POP PUSH3 0xEFD DUP4 PUSH3 0xE8F JUMP JUMPDEST DUP1 PUSH1 0x0 JUMPDEST DUP4 DUP2 LT ISZERO PUSH3 0xF34 JUMPI DUP2 MLOAD PUSH3 0xF18 DUP9 DUP3 PUSH3 0xEB0 JUMP JUMPDEST SWAP8 POP PUSH3 0xF25 DUP4 PUSH3 0xECA JUMP JUMPDEST SWAP3 POP POP PUSH1 0x1 DUP2 ADD SWAP1 POP PUSH3 0xF01 JUMP JUMPDEST POP DUP6 SWAP4 POP POP POP POP SWAP3 SWAP2 POP POP JUMP JUMPDEST PUSH1 0x0 PUSH1 0x20 DUP3 ADD SWAP1 POP DUP2 DUP2 SUB PUSH1 0x0 DUP4 ADD MSTORE PUSH3 0xF5D DUP2 DUP5 PUSH3 0xED7 JUMP JUMPDEST SWAP1 POP SWAP3 SWAP2 POP POP JUMP JUMPDEST PUSH1 0x0 DUP2 ISZERO ISZERO SWAP1 POP SWAP2 SWAP1 POP JUMP JUMPDEST PUSH3 0xF7C DUP2 PUSH3 0xF65 JUMP JUMPDEST DUP3 MSTORE POP POP JUMP JUMPDEST PUSH1 0x0 PUSH1 0x20 DUP3 ADD SWAP1 POP PUSH3 0xF99 PUSH1 0x0 DUP4 ADD DUP5 PUSH3 0xF71 JUMP JUMPDEST SWAP3 SWAP2 POP POP JUMP JUMPDEST PUSH3 0xFAA DUP2 PUSH3 0xD94 JUMP JUMPDEST DUP3 MSTORE POP POP JUMP JUMPDEST PUSH1 0x0 PUSH1 0x20 DUP3 ADD SWAP1 POP PUSH3 0xFC7 PUSH1 0x0 DUP4 ADD DUP5 PUSH3 0xF9F JUMP JUMPDEST SWAP3 SWAP2 POP POP JUMP JUMPDEST PUSH1 0x0 PUSH1 0x80 DUP3 ADD SWAP1 POP PUSH3 0xFE4 PUSH1 0x0 DUP4 ADD DUP8 PUSH3 0xD66 JUMP JUMPDEST PUSH3 0xFF3 PUSH1 0x20 DUP4 ADD DUP7 PUSH3 0xD66 JUMP JUMPDEST PUSH3 0x1002 PUSH1 0x40 DUP4 ADD DUP6 PUSH3 0xF9F JUMP JUMPDEST PUSH3 0x1011 PUSH1 0x60 DUP4 ADD DUP5 PUSH3 0xD66 JUMP JUMPDEST SWAP6 SWAP5 POP POP POP POP POP JUMP JUMPDEST PUSH1 0x0 PUSH1 0x40 DUP3 ADD SWAP1 POP PUSH3 0x1031 PUSH1 0x0 DUP4 ADD DUP6 PUSH3 0xF9F JUMP JUMPDEST PUSH3 0x1040 PUSH1 0x20 DUP4 ADD DUP5 PUSH3 0xD66 JUMP JUMPDEST SWAP4 SWAP3 POP POP POP JUMP JUMPDEST PUSH1 0x0 DUP3 DUP3 MSTORE PUSH1 0x20 DUP3 ADD SWAP1 POP SWAP3 SWAP2 POP POP JUMP JUMPDEST PUSH32 0x496E646578206F7574206F6620626F756E647300000000000000000000000000 PUSH1 0x0 DUP3 ADD MSTORE POP JUMP JUMPDEST PUSH1 0x0 PUSH3 0x1090 PUSH1 0x13 DUP4 PUSH3 0x1047 JUMP JUMPDEST SWAP2 POP PUSH3 0x109D DUP3 PUSH3 0x1058 JUMP JUMPDEST PUSH1 0x20 DUP3 ADD SWAP1 POP SWAP2 SWAP1 POP JUMP JUMPDEST PUSH1 0x0 PUSH1 0x20 DUP3 ADD SWAP1 POP DUP2 DUP2 SUB PUSH1 0x0 DUP4 ADD MSTORE PUSH3 0x10C3 DUP2 PUSH3 0x1081 JUMP JUMPDEST SWAP1 POP SWAP2 SWAP1 POP JUMP JUMPDEST PUSH32 0x4E487B7100000000000000000000000000000000000000000000000000000000 PUSH1 0x0 MSTORE PUSH1 0x32 PUSH1 0x4 MSTORE PUSH1 0x24 PUSH1 0x0 REVERT INVALID PUSH1 0xC0 PUSH1 0x40 MSTORE CALLVALUE DUP1 ISZERO PUSH3 0x11 JUMPI PUSH1 0x0 DUP1 REVERT JUMPDEST POP PUSH1 0x40 MLOAD PUSH3 0x34E3 CODESIZE SUB DUP1 PUSH3 0x34E3 DUP4 CODECOPY DUP2 DUP2 ADD PUSH1 0x40 MSTORE DUP2 ADD SWAP1 PUSH3 0x37 SWAP2 SWAP1 PUSH3 0x3C2 JUMP JUMPDEST DUP1 PUSH1 0x1 PUSH1 0x0 DUP2 SWAP1 SSTORE POP PUSH1 0x0 PUSH20 0xFFFFFFFFFFFFFFFFFFFFFFFFFFFFFFFFFFFFFFFF AND DUP2 PUSH20 0xFFFFFFFFFFFFFFFFFFFFFFFFFFFFFFFFFFFFFFFF AND SUB PUSH3 0xB5 JUMPI PUSH1 0x0 PUSH1 0x40 MLOAD PUSH32 0x1E4FBDF700000000000000000000000000000000000000000000000000000000 DUP2 MSTORE PUSH1 0x4 ADD PUSH3 0xAC SWAP2 SWAP1 PUSH3 0x445 JUMP JUMPDEST PUSH1 0x40 MLOAD DUP1 SWAP2 SUB SWAP1 REVERT JUMPDEST PUSH3 0xC6 DUP2 PUSH3 0x257 PUSH1 0x20 SHL PUSH1 0x20 SHR JUMP JUMPDEST POP PUSH1 0x0 PUSH20 0xFFFFFFFFFFFFFFFFFFFFFFFFFFFFFFFFFFFFFFFF AND DUP5 PUSH20 0xFFFFFFFFFFFFFFFFFFFFFFFFFFFFFFFFFFFFFFFF AND EQ DUP1 PUSH3 0x12F JUMPI POP PUSH1 0x0 PUSH20 0xFFFFFFFFFFFFFFFFFFFFFFFFFFFFFFFFFFFFFFFF AND DUP4 PUSH20 0xFFFFFFFFFFFFFFFFFFFFFFFFFFFFFFFFFFFFFFFF AND EQ JUMPDEST ISZERO PUSH3 0x167 JUMPI PUSH1 0x40 MLOAD PUSH32 0xE6C4247B00000000000000000000000000000000000000000000000000000000 DUP2 MSTORE PUSH1 0x4 ADD PUSH1 0x40 MLOAD DUP1 SWAP2 SUB SWAP1 REVERT JUMPDEST PUSH1 0x0 DUP3 SUB PUSH3 0x1A2 JUMPI PUSH1 0x40 MLOAD PUSH32 0x2C5211C600000000000000000000000000000000000000000000000000000000 DUP2 MSTORE PUSH1 0x4 ADD PUSH1 0x40 MLOAD DUP1 SWAP2 SUB SWAP1 REVERT JUMPDEST DUP4 PUSH20 0xFFFFFFFFFFFFFFFFFFFFFFFFFFFFFFFFFFFFFFFF AND PUSH1 0x80 DUP2 PUSH20 0xFFFFFFFFFFFFFFFFFFFFFFFFFFFFFFFFFFFFFFFF AND DUP2 MSTORE POP POP DUP3 PUSH20 0xFFFFFFFFFFFFFFFFFFFFFFFFFFFFFFFFFFFFFFFF AND PUSH1 0xA0 DUP2 PUSH20 0xFFFFFFFFFFFFFFFFFFFFFFFFFFFFFFFFFFFFFFFF AND DUP2 MSTORE POP POP DUP2 PUSH1 0x2 DUP2 SWAP1 SSTORE POP PUSH32 0xD847752640337969F783BA291F56251D6165BA92DD3D27984AD0F81995AEF0B6 PUSH1 0x0 DUP4 PUSH1 0x40 MLOAD PUSH3 0x245 SWAP3 SWAP2 SWAP1 PUSH3 0x4C0 JUMP JUMPDEST PUSH1 0x40 MLOAD DUP1 SWAP2 SUB SWAP1 LOG1 POP POP POP POP PUSH3 0x4ED JUMP JUMPDEST PUSH1 0x0 PUSH1 0x1 PUSH1 0x0 SWAP1 SLOAD SWAP1 PUSH2 0x100 EXP SWAP1 DIV PUSH20 0xFFFFFFFFFFFFFFFFFFFFFFFFFFFFFFFFFFFFFFFF AND SWAP1 POP DUP2 PUSH1 0x1 PUSH1 0x0 PUSH2 0x100 EXP DUP2 SLOAD DUP2 PUSH20 0xFFFFFFFFFFFFFFFFFFFFFFFFFFFFFFFFFFFFFFFF MUL NOT AND SWAP1 DUP4 PUSH20 0xFFFFFFFFFFFFFFFFFFFFFFFFFFFFFFFFFFFFFFFF AND MUL OR SWAP1 SSTORE POP DUP2 PUSH20 0xFFFFFFFFFFFFFFFFFFFFFFFFFFFFFFFFFFFFFFFF AND DUP2 PUSH20 0xFFFFFFFFFFFFFFFFFFFFFFFFFFFFFFFFFFFFFFFF AND PUSH32 0x8BE0079C531659141344CD1FD0A4F28419497F9722A3DAAFE3B4186F6B6457E0 PUSH1 0x40 MLOAD PUSH1 0x40 MLOAD DUP1 SWAP2 SUB SWAP1 LOG3 POP POP JUMP JUMPDEST PUSH1 0x0 DUP1 REVERT JUMPDEST PUSH1 0x0 PUSH20 0xFFFFFFFFFFFFFFFFFFFFFFFFFFFFFFFFFFFFFFFF DUP3 AND SWAP1 POP SWAP2 SWAP1 POP JUMP JUMPDEST PUSH1 0x0 PUSH3 0x34F DUP3 PUSH3 0x322 JUMP JUMPDEST SWAP1 POP SWAP2 SWAP1 POP JUMP JUMPDEST PUSH3 0x361 DUP2 PUSH3 0x342 JUMP JUMPDEST DUP2 EQ PUSH3 0x36D JUMPI PUSH1 0x0 DUP1 REVERT JUMPDEST POP JUMP JUMPDEST PUSH1 0x0 DUP2 MLOAD SWAP1 POP PUSH3 0x381 DUP2 PUSH3 0x356 JUMP JUMPDEST SWAP3 SWAP2 POP POP JUMP JUMPDEST PUSH1 0x0 DUP2 SWAP1 POP SWAP2 SWAP1 POP JUMP JUMPDEST PUSH3 0x39C DUP2 PUSH3 0x387 JUMP JUMPDEST DUP2 EQ PUSH3 0x3A8 JUMPI PUSH1 0x0 DUP1 REVERT JUMPDEST POP JUMP JUMPDEST PUSH1 0x0 DUP2 MLOAD SWAP1 POP PUSH3 0x3BC DUP2 PUSH3 0x391 JUMP JUMPDEST SWAP3 SWAP2 POP POP JUMP JUMPDEST PUSH1 0x0 DUP1 PUSH1 0x0 DUP1 PUSH1 0x80 DUP6 DUP8 SUB SLT ISZERO PUSH3 0x3DF JUMPI PUSH3 0x3DE PUSH3 0x31D JUMP JUMPDEST JUMPDEST PUSH1 0x0 PUSH3 0x3EF DUP8 DUP3 DUP9 ADD PUSH3 0x370 JUMP JUMPDEST SWAP5 POP POP PUSH1 0x20 PUSH3 0x402 DUP8 DUP3 DUP9 ADD PUSH3 0x370 JUMP JUMPDEST SWAP4 POP POP PUSH1 0x40 PUSH3 0x415 DUP8 DUP3 DUP9 ADD PUSH3 0x3AB JUMP JUMPDEST SWAP3 POP POP PUSH1 0x60 PUSH3 0x428 DUP8 DUP3 DUP9 ADD PUSH3 0x370 JUMP JUMPDEST SWAP2 POP POP SWAP3 SWAP6 SWAP2 SWAP5 POP SWAP3 POP JUMP JUMPDEST PUSH3 0x43F DUP2 PUSH3 0x342 JUMP JUMPDEST DUP3 MSTORE POP POP JUMP JUMPDEST PUSH1 0x0 PUSH1 0x20 DUP3 ADD SWAP1 POP PUSH3 0x45C PUSH1 0x0 DUP4 ADD DUP5 PUSH3 0x434 JUMP JUMPDEST SWAP3 SWAP2 POP POP JUMP JUMPDEST PUSH1 0x0 DUP2 SWAP1 POP SWAP2 SWAP1 POP JUMP JUMPDEST PUSH1 0x0 DUP2 SWAP1 POP SWAP2 SWAP1 POP JUMP JUMPDEST PUSH1 0x0 PUSH3 0x497 PUSH3 0x491 PUSH3 0x48B DUP5 PUSH3 0x462 JUMP JUMPDEST PUSH3 0x46C JUMP JUMPDEST PUSH3 0x387 JUMP JUMPDEST SWAP1 POP SWAP2 SWAP1 POP JUMP JUMPDEST PUSH3 0x4A9 DUP2 PUSH3 0x476 JUMP JUMPDEST DUP3 MSTORE POP POP JUMP JUMPDEST PUSH3 0x4BA DUP2 PUSH3 0x387 JUMP JUMPDEST DUP3 MSTORE POP POP JUMP JUMPDEST PUSH1 0x0 PUSH1 0x40 DUP3 ADD SWAP1 POP PUSH3 0x4D7 PUSH1 0x0 DUP4 ADD DUP6 PUSH3 0x49E JUMP JUMPDEST PUSH3 0x4E6 PUSH1 0x20 DUP4 ADD DUP5 PUSH3 0x4AF JUMP JUMPDEST SWAP4 SWAP3 POP POP POP JUMP JUMPDEST PUSH1 0x80 MLOAD PUSH1 0xA0 MLOAD PUSH2 0x2FC9 PUSH3 0x51A PUSH1 0x0 CODECOPY PUSH1 0x0 DUP2 DUP2 PUSH2 0x1112 ADD MSTORE PUSH2 0x14DF ADD MSTORE PUSH1 0x0 PUSH2 0x1D65 ADD MSTORE PUSH2 0x2FC9 PUSH1 0x0 RETURN INVALID PUSH1 0x80 PUSH1 0x40 MSTORE PUSH1 0x4 CALLDATASIZE LT PUSH2 0x1A0 JUMPI PUSH1 0x0 CALLDATALOAD PUSH1 0xE0 SHR DUP1 PUSH4 0x64A1F248 GT PUSH2 0xEC JUMPI DUP1 PUSH4 0xAE449105 GT PUSH2 0x8A JUMPI DUP1 PUSH4 0xC0908A71 GT PUSH2 0x64 JUMPI DUP1 PUSH4 0xC0908A71 EQ PUSH2 0x676 JUMPI DUP1 PUSH4 0xE7AB70BE EQ PUSH2 0x6B3 JUMPI DUP1 PUSH4 0xEEF72A3C EQ PUSH2 0x6DE JUMPI DUP1 PUSH4 0xF2FDE38B EQ PUSH2 0x707 JUMPI PUSH2 0x27F JUMP JUMPDEST DUP1 PUSH4 0xAE449105 EQ PUSH2 0x61A JUMPI DUP1 PUSH4 0xB1FE48DE EQ PUSH2 0x624 JUMPI DUP1 PUSH4 0xB21B83E0 EQ PUSH2 0x64D JUMPI PUSH2 0x27F JUMP JUMPDEST DUP1 PUSH4 0x715018A6 GT PUSH2 0xC6 JUMPI DUP1 PUSH4 0x715018A6 EQ PUSH2 0x596 JUMPI DUP1 PUSH4 0x886BEC17 EQ PUSH2 0x5AD JUMPI DUP1 PUSH4 0x89CD9CF4 EQ PUSH2 0x5C4 JUMPI DUP1 PUSH4 0x8DA5CB5B EQ PUSH2 0x5EF JUMPI PUSH2 0x27F JUMP JUMPDEST DUP1 PUSH4 0x64A1F248 EQ PUSH2 0x505 JUMPI DUP1 PUSH4 0x66D49BAB EQ PUSH2 0x530 JUMPI DUP1 PUSH4 0x69580566 EQ PUSH2 0x559 JUMPI PUSH2 0x27F JUMP JUMPDEST DUP1 PUSH4 0x338B5DEA GT PUSH2 0x159 JUMPI DUP1 PUSH4 0x457DFC67 GT PUSH2 0x133 JUMPI DUP1 PUSH4 0x457DFC67 EQ PUSH2 0x449 JUMPI DUP1 PUSH4 0x5873EB9B EQ PUSH2 0x474 JUMPI DUP1 PUSH4 0x58E574C5 EQ PUSH2 0x4B1 JUMPI DUP1 PUSH4 0x5C975ABB EQ PUSH2 0x4DA JUMPI PUSH2 0x27F JUMP JUMPDEST DUP1 PUSH4 0x338B5DEA EQ PUSH2 0x3A6 JUMPI DUP1 PUSH4 0x39151165 EQ PUSH2 0x3CF JUMPI DUP1 PUSH4 0x39491B8C EQ PUSH2 0x40C JUMPI PUSH2 0x27F JUMP JUMPDEST DUP1 PUSH4 0x14205E28 EQ PUSH2 0x284 JUMPI DUP1 PUSH4 0x16C38B3C EQ PUSH2 0x2C1 JUMPI DUP1 PUSH4 0x1AB4E875 EQ PUSH2 0x2EA JUMPI DUP1 PUSH4 0x1B4D5975 EQ PUSH2 0x327 JUMPI DUP1 PUSH4 0x1E2DE0D1 EQ PUSH2 0x352 JUMPI DUP1 PUSH4 0x1FA91A85 EQ PUSH2 0x37B JUMPI PUSH2 0x27F JUMP JUMPDEST CALLDATASIZE PUSH2 0x27F JUMPI PUSH1 0x0 CALLVALUE GT DUP1 ISZERO PUSH2 0x1B7 JUMPI POP PUSH1 0x0 PUSH1 0x2 SLOAD GT JUMPDEST DUP1 ISZERO PUSH2 0x1D0 JUMPI POP PUSH1 0x9 PUSH1 0x0 SWAP1 SLOAD SWAP1 PUSH2 0x100 EXP SWAP1 DIV PUSH1 0xFF AND ISZERO JUMPDEST ISZERO PUSH2 0x27D JUMPI PUSH1 0x0 PUSH1 0x2 SLOAD PUSH5 0xE8D4A51000 CALLVALUE PUSH2 0x1EB SWAP2 SWAP1 PUSH2 0x23B2 JUMP JUMPDEST PUSH2 0x1F5 SWAP2 SWAP1 PUSH2 0x243B JUMP JUMPDEST SWAP1 POP DUP1 PUSH1 0x3 PUSH1 0x0 DUP3 DUP3 SLOAD PUSH2 0x209 SWAP2 SWAP1 PUSH2 0x246C JUMP JUMPDEST SWAP3 POP POP DUP2 SWAP1 SSTORE POP CALLVALUE PUSH1 0x4 PUSH1 0x0 DUP3 DUP3 SLOAD PUSH2 0x222 SWAP2 SWAP1 PUSH2 0x246C JUMP JUMPDEST SWAP3 POP POP DUP2 SWAP1 SSTORE POP CALLER PUSH20 0xFFFFFFFFFFFFFFFFFFFFFFFFFFFFFFFFFFFFFFFF AND PUSH32 0xB548377C5C0A1B6B67E22A933676C80A1874369367C95AD48B87360A3C065011 CALLVALUE PUSH1 0x3 SLOAD PUSH1 0x40 MLOAD PUSH2 0x273 SWAP3 SWAP2 SWAP1 PUSH2 0x24D1 JUMP JUMPDEST PUSH1 0x40 MLOAD DUP1 SWAP2 SUB SWAP1 LOG2 POP JUMPDEST STOP JUMPDEST PUSH1 0x0 DUP1 REVERT JUMPDEST CALLVALUE DUP1 ISZERO PUSH2 0x290 JUMPI PUSH1 0x0 DUP1 REVERT JUMPDEST POP PUSH2 0x2AB PUSH1 0x4 DUP1 CALLDATASIZE SUB DUP2 ADD SWAP1 PUSH2 0x2A6 SWAP2 SWAP1 PUSH2 0x2562 JUMP JUMPDEST PUSH2 0x730 JUMP JUMPDEST PUSH1 0x40 MLOAD PUSH2 0x2B8 SWAP2 SWAP1 PUSH2 0x258F JUMP JUMPDEST PUSH1 0x40 MLOAD DUP1 SWAP2 SUB SWAP1 RETURN JUMPDEST CALLVALUE DUP1 ISZERO PUSH2 0x2CD JUMPI PUSH1 0x0 DUP1 REVERT JUMPDEST POP PUSH2 0x2E8 PUSH1 0x4 DUP1 CALLDATASIZE SUB DUP2 ADD SWAP1 PUSH2 0x2E3 SWAP2 SWAP1 PUSH2 0x25E2 JUMP JUMPDEST PUSH2 0x7E3 JUMP JUMPDEST STOP JUMPDEST CALLVALUE DUP1 ISZERO PUSH2 0x2F6 JUMPI PUSH1 0x0 DUP1 REVERT JUMPDEST POP PUSH2 0x311 PUSH1 0x4 DUP1 CALLDATASIZE SUB DUP2 ADD SWAP1 PUSH2 0x30C SWAP2 SWAP1 PUSH2 0x260F JUMP JUMPDEST PUSH2 0x83F JUMP JUMPDEST PUSH1 0x40 MLOAD PUSH2 0x31E SWAP2 SWAP1 PUSH2 0x258F JUMP JUMPDEST PUSH1 0x40 MLOAD DUP1 SWAP2 SUB SWAP1 RETURN JUMPDEST CALLVALUE DUP1 ISZERO PUSH2 0x333 JUMPI PUSH1 0x0 DUP1 REVERT JUMPDEST POP PUSH2 0x33C PUSH2 0x864 JUMP JUMPDEST PUSH1 0x40 MLOAD PUSH2 0x349 SWAP2 SWAP1 PUSH2 0x258F JUMP JUMPDEST PUSH1 0x40 MLOAD DUP1 SWAP2 SUB SWAP1 RETURN JUMPDEST CALLVALUE DUP1 ISZERO PUSH2 0x35E JUMPI PUSH1 0x0 DUP1 REVERT JUMPDEST POP PUSH2 0x379 PUSH1 0x4 DUP1 CALLDATASIZE SUB DUP2 ADD SWAP1 PUSH2 0x374 SWAP2 SWAP1 PUSH2 0x26B4 JUMP JUMPDEST PUSH2 0x86A JUMP JUMPDEST STOP JUMPDEST CALLVALUE DUP1 ISZERO PUSH2 0x387 JUMPI PUSH1 0x0 DUP1 REVERT JUMPDEST POP PUSH2 0x390 PUSH2 0xD7F JUMP JUMPDEST PUSH1 0x40 MLOAD PUSH2 0x39D SWAP2 SWAP1 PUSH2 0x258F JUMP JUMPDEST PUSH1 0x40 MLOAD DUP1 SWAP2 SUB SWAP1 RETURN JUMPDEST CALLVALUE DUP1 ISZERO PUSH2 0x3B2 JUMPI PUSH1 0x0 DUP1 REVERT JUMPDEST POP PUSH2 0x3CD PUSH1 0x4 DUP1 CALLDATASIZE SUB DUP2 ADD SWAP1 PUSH2 0x3C8 SWAP2 SWAP1 PUSH2 0x272D JUMP JUMPDEST PUSH2 0xD87 JUMP JUMPDEST STOP JUMPDEST CALLVALUE DUP1 ISZERO PUSH2 0x3DB JUMPI PUSH1 0x0 DUP1 REVERT JUMPDEST POP PUSH2 0x3F6 PUSH1 0x4 DUP1 CALLDATASIZE SUB DUP2 ADD SWAP1 PUSH2 0x3F1 SWAP2 SWAP1 PUSH2 0x2562 JUMP JUMPDEST PUSH2 0x10D8 JUMP JUMPDEST PUSH1 0x40 MLOAD PUSH2 0x403 SWAP2 SWAP1 PUSH2 0x258F JUMP JUMPDEST PUSH1 0x40 MLOAD DUP1 SWAP2 SUB SWAP1 RETURN JUMPDEST CALLVALUE DUP1 ISZERO PUSH2 0x418 JUMPI PUSH1 0x0 DUP1 REVERT JUMPDEST POP PUSH2 0x433 PUSH1 0x4 DUP1 CALLDATASIZE SUB DUP2 ADD SWAP1 PUSH2 0x42E SWAP2 SWAP1 PUSH2 0x2562 JUMP JUMPDEST PUSH2 0x10F0 JUMP JUMPDEST PUSH1 0x40 MLOAD PUSH2 0x440 SWAP2 SWAP1 PUSH2 0x277C JUMP JUMPDEST PUSH1 0x40 MLOAD DUP1 SWAP2 SUB SWAP1 RETURN JUMPDEST CALLVALUE DUP1 ISZERO PUSH2 0x455 JUMPI PUSH1 0x0 DUP1 REVERT JUMPDEST POP PUSH2 0x45E PUSH2 0x1110 JUMP JUMPDEST PUSH1 0x40 MLOAD PUSH2 0x46B SWAP2 SWAP1 PUSH2 0x27A6 JUMP JUMPDEST PUSH1 0x40 MLOAD DUP1 SWAP2 SUB SWAP1 RETURN JUMPDEST CALLVALUE DUP1 ISZERO PUSH2 0x480 JUMPI PUSH1 0x0 DUP1 REVERT JUMPDEST POP PUSH2 0x49B PUSH1 0x4 DUP1 CALLDATASIZE SUB DUP2 ADD SWAP1 PUSH2 0x496 SWAP2 SWAP1 PUSH2 0x2562 JUMP JUMPDEST PUSH2 0x1134 JUMP JUMPDEST PUSH1 0x40 MLOAD PUSH2 0x4A8 SWAP2 SWAP1 PUSH2 0x258F JUMP JUMPDEST PUSH1 0x40 MLOAD DUP1 SWAP2 SUB SWAP1 RETURN JUMPDEST CALLVALUE DUP1 ISZERO PUSH2 0x4BD JUMPI PUSH1 0x0 DUP1 REVERT JUMPDEST POP PUSH2 0x4D8 PUSH1 0x4 DUP1 CALLDATASIZE SUB DUP2 ADD SWAP1 PUSH2 0x4D3 SWAP2 SWAP1 PUSH2 0x27FF JUMP JUMPDEST PUSH2 0x114C JUMP JUMPDEST STOP JUMPDEST CALLVALUE DUP1 ISZERO PUSH2 0x4E6 JUMPI PUSH1 0x0 DUP1 REVERT JUMPDEST POP PUSH2 0x4EF PUSH2 0x1417 JUMP JUMPDEST PUSH1 0x40 MLOAD PUSH2 0x4FC SWAP2 SWAP1 PUSH2 0x277C JUMP JUMPDEST PUSH1 0x40 MLOAD DUP1 SWAP2 SUB SWAP1 RETURN JUMPDEST CALLVALUE DUP1 ISZERO PUSH2 0x511 JUMPI PUSH1 0x0 DUP1 REVERT JUMPDEST POP PUSH2 0x51A PUSH2 0x142A JUMP JUMPDEST PUSH1 0x40 MLOAD PUSH2 0x527 SWAP2 SWAP1 PUSH2 0x258F JUMP JUMPDEST PUSH1 0x40 MLOAD DUP1 SWAP2 SUB SWAP1 RETURN JUMPDEST CALLVALUE DUP1 ISZERO PUSH2 0x53C JUMPI PUSH1 0x0 DUP1 REVERT JUMPDEST POP PUSH2 0x557 PUSH1 0x4 DUP1 CALLDATASIZE SUB DUP2 ADD SWAP1 PUSH2 0x552 SWAP2 SWAP1 PUSH2 0x2866 JUMP JUMPDEST PUSH2 0x1430 JUMP JUMPDEST STOP JUMPDEST CALLVALUE DUP1 ISZERO PUSH2 0x565 JUMPI PUSH1 0x0 DUP1 REVERT JUMPDEST POP PUSH2 0x580 PUSH1 0x4 DUP1 CALLDATASIZE SUB DUP2 ADD SWAP1 PUSH2 0x57B SWAP2 SWAP1 PUSH2 0x2562 JUMP JUMPDEST PUSH2 0x14BD JUMP JUMPDEST PUSH1 0x40 MLOAD PUSH2 0x58D SWAP2 SWAP1 PUSH2 0x258F JUMP JUMPDEST PUSH1 0x40 MLOAD DUP1 SWAP2 SUB SWAP1 RETURN JUMPDEST CALLVALUE DUP1 ISZERO PUSH2 0x5A2 JUMPI PUSH1 0x0 DUP1 REVERT JUMPDEST POP PUSH2 0x5AB PUSH2 0x1590 JUMP JUMPDEST STOP JUMPDEST CALLVALUE DUP1 ISZERO PUSH2 0x5B9 JUMPI PUSH1 0x0 DUP1 REVERT JUMPDEST POP PUSH2 0x5C2 PUSH2 0x15A4 JUMP JUMPDEST STOP JUMPDEST CALLVALUE DUP1 ISZERO PUSH2 0x5D0 JUMPI PUSH1 0x0 DUP1 REVERT JUMPDEST POP PUSH2 0x5D9 PUSH2 0x1846 JUMP JUMPDEST PUSH1 0x40 MLOAD PUSH2 0x5E6 SWAP2 SWAP1 PUSH2 0x258F JUMP JUMPDEST PUSH1 0x40 MLOAD DUP1 SWAP2 SUB SWAP1 RETURN JUMPDEST CALLVALUE DUP1 ISZERO PUSH2 0x5FB JUMPI PUSH1 0x0 DUP1 REVERT JUMPDEST POP PUSH2 0x604 PUSH2 0x184C JUMP JUMPDEST PUSH1 0x40 MLOAD PUSH2 0x611 SWAP2 SWAP1 PUSH2 0x27A6 JUMP JUMPDEST PUSH1 0x40 MLOAD DUP1 SWAP2 SUB SWAP1 RETURN JUMPDEST PUSH2 0x622 PUSH2 0x1876 JUMP JUMPDEST STOP JUMPDEST CALLVALUE DUP1 ISZERO PUSH2 0x630 JUMPI PUSH1 0x0 DUP1 REVERT JUMPDEST POP PUSH2 0x64B PUSH1 0x4 DUP1 CALLDATASIZE SUB DUP2 ADD SWAP1 PUSH2 0x646 SWAP2 SWAP1 PUSH2 0x2893 JUMP JUMPDEST PUSH2 0x19EC JUMP JUMPDEST STOP JUMPDEST CALLVALUE DUP1 ISZERO PUSH2 0x659 JUMPI PUSH1 0x0 DUP1 REVERT JUMPDEST POP PUSH2 0x674 PUSH1 0x4 DUP1 CALLDATASIZE SUB DUP2 ADD SWAP1 PUSH2 0x66F SWAP2 SWAP1 PUSH2 0x28D3 JUMP JUMPDEST PUSH2 0x1B03 JUMP JUMPDEST STOP JUMPDEST CALLVALUE DUP1 ISZERO PUSH2 0x682 JUMPI PUSH1 0x0 DUP1 REVERT JUMPDEST POP PUSH2 0x69D PUSH1 0x4 DUP1 CALLDATASIZE SUB DUP2 ADD SWAP1 PUSH2 0x698 SWAP2 SWAP1 PUSH2 0x2562 JUMP JUMPDEST PUSH2 0x1C7B JUMP JUMPDEST PUSH1 0x40 MLOAD PUSH2 0x6AA SWAP2 SWAP1 PUSH2 0x258F JUMP JUMPDEST PUSH1 0x40 MLOAD DUP1 SWAP2 SUB SWAP1 RETURN JUMPDEST CALLVALUE DUP1 ISZERO PUSH2 0x6BF JUMPI PUSH1 0x0 DUP1 REVERT JUMPDEST POP PUSH2 0x6C8 PUSH2 0x1D63 JUMP JUMPDEST PUSH1 0x40 MLOAD PUSH2 0x6D5 SWAP2 SWAP1 PUSH2 0x27A6 JUMP JUMPDEST PUSH1 0x40 MLOAD DUP1 SWAP2 SUB SWAP1 RETURN JUMPDEST CALLVALUE DUP1 ISZERO PUSH2 0x6EA JUMPI PUSH1 0x0 DUP1 REVERT JUMPDEST POP PUSH2 0x705 PUSH1 0x4 DUP1 CALLDATASIZE SUB DUP2 ADD SWAP1 PUSH2 0x700 SWAP2 SWAP1 PUSH2 0x26B4 JUMP JUMPDEST PUSH2 0x1D87 JUMP JUMPDEST STOP JUMPDEST CALLVALUE DUP1 ISZERO PUSH2 0x713 JUMPI PUSH1 0x0 DUP1 REVERT JUMPDEST POP PUSH2 0x72E PUSH1 0x4 DUP1 CALLDATASIZE SUB DUP2 ADD SWAP1 PUSH2 0x729 SWAP2 SWAP1 PUSH2 0x2562 JUMP JUMPDEST PUSH2 0x2164 JUMP JUMPDEST STOP JUMPDEST PUSH1 0x0 PUSH2 0x167 PUSH20 0xFFFFFFFFFFFFFFFFFFFFFFFFFFFFFFFFFFFFFFFF AND PUSH4 0xF7888AEC DUP4 ADDRESS PUSH1 0x40 MLOAD DUP4 PUSH4 0xFFFFFFFF AND PUSH1 0xE0 SHL DUP2 MSTORE PUSH1 0x4 ADD PUSH2 0x76F SWAP3 SWAP2 SWAP1 PUSH2 0x2926 JUMP JUMPDEST PUSH1 0x40 DUP1 MLOAD DUP1 DUP4 SUB DUP2 DUP7 GAS STATICCALL SWAP3 POP POP POP DUP1 ISZERO PUSH2 0x7A8 JUMPI POP PUSH1 0x40 MLOAD RETURNDATASIZE PUSH1 0x1F NOT PUSH1 0x1F DUP3 ADD AND DUP3 ADD DUP1 PUSH1 0x40 MSTORE POP DUP2 ADD SWAP1 PUSH2 0x7A5 SWAP2 SWAP1 PUSH2 0x29C1 JUMP JUMPDEST PUSH1 0x1 JUMPDEST PUSH2 0x7B5 JUMPI PUSH1 0x0 SWAP1 POP PUSH2 0x7DE JUMP JUMPDEST PUSH1 0x16 PUSH1 0x3 SIGNEXTEND DUP3 PUSH1 0x3 SIGNEXTEND EQ PUSH2 0x7CE JUMPI PUSH1 0x0 SWAP3 POP POP POP PUSH2 0x7DE JUMP JUMPDEST DUP1 PUSH8 0xFFFFFFFFFFFFFFFF AND SWAP3 POP POP POP JUMPDEST SWAP2 SWAP1 POP JUMP JUMPDEST PUSH2 0x7EB PUSH2 0x21EA JUMP JUMPDEST DUP1 PUSH1 0x9 PUSH1 0x0 PUSH2 0x100 EXP DUP2 SLOAD DUP2 PUSH1 0xFF MUL NOT AND SWAP1 DUP4 ISZERO ISZERO MUL OR SWAP1 SSTORE POP PUSH32 0x4543BAA938CB97F5073EC206AD35638CDB1F4DB8F677D31579B2F6FE7D18C14A DUP2 PUSH1 0x40 MLOAD PUSH2 0x834 SWAP2 SWAP1 PUSH2 0x277C JUMP JUMPDEST PUSH1 0x40 MLOAD DUP1 SWAP2 SUB SWAP1 LOG1 POP JUMP JUMPDEST PUSH1 0x8 PUSH1 0x20 MSTORE DUP2 PUSH1 0x0 MSTORE PUSH1 0x40 PUSH1 0x0 KECCAK256 PUSH1 0x20 MSTORE DUP1 PUSH1 0x0 MSTORE PUSH1 0x40 PUSH1 0x0 KECCAK256 PUSH1 0x0 SWAP2 POP SWAP2 POP POP SLOAD DUP2 JUMP JUMPDEST PUSH1 0x3 SLOAD DUP2 JUMP JUMPDEST PUSH1 0x9 PUSH1 0x0 SWAP1 SLOAD SWAP1 PUSH2 0x100 EXP SWAP1 DIV PUSH1 0xFF AND ISZERO PUSH2 0x8B1 JUMPI PUSH1 0x40 MLOAD PUSH32 0xAB35696F00000000000000000000000000000000000000000000000000000000 DUP2 MSTORE PUSH1 0x4 ADD PUSH1 0x40 MLOAD DUP1 SWAP2 SUB SWAP1 REVERT JUMPDEST PUSH2 0x8B9 PUSH2 0x2263 JUMP JUMPDEST PUSH1 0x0 PUSH2 0x8C4 CALLER PUSH2 0x1C7B JUMP JUMPDEST SWAP1 POP PUSH1 0x0 DUP4 DUP4 SWAP1 POP PUSH8 0xFFFFFFFFFFFFFFFF DUP2 GT ISZERO PUSH2 0x8E5 JUMPI PUSH2 0x8E4 PUSH2 0x2A01 JUMP JUMPDEST JUMPDEST PUSH1 0x40 MLOAD SWAP1 DUP1 DUP3 MSTORE DUP1 PUSH1 0x20 MUL PUSH1 0x20 ADD DUP3 ADD PUSH1 0x40 MSTORE DUP1 ISZERO PUSH2 0x913 JUMPI DUP2 PUSH1 0x20 ADD PUSH1 0x20 DUP3 MUL DUP1 CALLDATASIZE DUP4 CALLDATACOPY DUP1 DUP3 ADD SWAP2 POP POP SWAP1 POP JUMPDEST POP SWAP1 POP PUSH1 0x0 DUP3 GT ISZERO PUSH2 0xA33 JUMPI PUSH1 0x0 PUSH2 0x92A CALLER PUSH2 0x14BD JUMP JUMPDEST SWAP1 POP PUSH5 0xE8D4A51000 PUSH1 0x3 SLOAD DUP3 PUSH2 0x940 SWAP2 SWAP1 PUSH2 0x23B2 JUMP JUMPDEST PUSH2 0x94A SWAP2 SWAP1 PUSH2 0x243B JUMP JUMPDEST PUSH1 0x6 PUSH1 0x0 CALLER PUSH20 0xFFFFFFFFFFFFFFFFFFFFFFFFFFFFFFFFFFFFFFFF AND PUSH20 0xFFFFFFFFFFFFFFFFFFFFFFFFFFFFFFFFFFFFFFFF AND DUP2 MSTORE PUSH1 0x20 ADD SWAP1 DUP2 MSTORE PUSH1 0x20 ADD PUSH1 0x0 KECCAK256 DUP2 SWAP1 SSTORE POP PUSH1 0x0 CALLER PUSH20 0xFFFFFFFFFFFFFFFFFFFFFFFFFFFFFFFFFFFFFFFF AND DUP5 PUSH1 0x40 MLOAD PUSH2 0x9B3 SWAP1 PUSH2 0x2A61 JUMP JUMPDEST PUSH1 0x0 PUSH1 0x40 MLOAD DUP1 DUP4 SUB DUP2 DUP6 DUP8 GAS CALL SWAP3 POP POP POP RETURNDATASIZE DUP1 PUSH1 0x0 DUP2 EQ PUSH2 0x9F0 JUMPI PUSH1 0x40 MLOAD SWAP2 POP PUSH1 0x1F NOT PUSH1 0x3F RETURNDATASIZE ADD AND DUP3 ADD PUSH1 0x40 MSTORE RETURNDATASIZE DUP3 MSTORE RETURNDATASIZE PUSH1 0x0 PUSH1 0x20 DUP5 ADD RETURNDATACOPY PUSH2 0x9F5 JUMP JUMPDEST PUSH1 0x60 SWAP2 POP JUMPDEST POP POP SWAP1 POP DUP1 PUSH2 0xA30 JUMPI PUSH1 0x40 MLOAD PUSH32 0x90B8EC1800000000000000000000000000000000000000000000000000000000 DUP2 MSTORE PUSH1 0x4 ADD PUSH1 0x40 MLOAD DUP1 SWAP2 SUB SWAP1 REVERT JUMPDEST POP POP JUMPDEST PUSH1 0x0 PUSH2 0x167 SWAP1 POP PUSH1 0x0 DUP1 JUMPDEST DUP7 DUP7 SWAP1 POP DUP2 LT ISZERO PUSH2 0xCD5 JUMPI PUSH1 0x0 PUSH1 0x8 PUSH1 0x0 CALLER PUSH20 0xFFFFFFFFFFFFFFFFFFFFFFFFFFFFFFFFFFFFFFFF AND PUSH20 0xFFFFFFFFFFFFFFFFFFFFFFFFFFFFFFFFFFFFFFFF AND DUP2 MSTORE PUSH1 0x20 ADD SWAP1 DUP2 MSTORE PUSH1 0x20 ADD PUSH1 0x0 KECCAK256 PUSH1 0x0 DUP10 DUP10 DUP6 DUP2 DUP2 LT PUSH2 0xA9F JUMPI PUSH2 0xA9E PUSH2 0x2A76 JUMP JUMPDEST JUMPDEST SWAP1 POP PUSH1 0x20 MUL ADD PUSH1 0x20 DUP2 ADD SWAP1 PUSH2 0xAB4 SWAP2 SWAP1 PUSH2 0x2562 JUMP JUMPDEST PUSH20 0xFFFFFFFFFFFFFFFFFFFFFFFFFFFFFFFFFFFFFFFF AND PUSH20 0xFFFFFFFFFFFFFFFFFFFFFFFFFFFFFFFFFFFFFFFF AND DUP2 MSTORE PUSH1 0x20 ADD SWAP1 DUP2 MSTORE PUSH1 0x20 ADD PUSH1 0x0 KECCAK256 SLOAD SWAP1 POP PUSH1 0x0 DUP2 GT ISZERO PUSH2 0xCC1 JUMPI PUSH1 0x1 SWAP3 POP DUP1 DUP6 DUP4 DUP2 MLOAD DUP2 LT PUSH2 0xB12 JUMPI PUSH2 0xB11 PUSH2 0x2A76 JUMP JUMPDEST JUMPDEST PUSH1 0x20 MUL PUSH1 0x20 ADD ADD DUP2 DUP2 MSTORE POP POP PUSH1 0x0 PUSH1 0x8 PUSH1 0x0 CALLER PUSH20 0xFFFFFFFFFFFFFFFFFFFFFFFFFFFFFFFFFFFFFFFF AND PUSH20 0xFFFFFFFFFFFFFFFFFFFFFFFFFFFFFFFFFFFFFFFF AND DUP2 MSTORE PUSH1 0x20 ADD SWAP1 DUP2 MSTORE PUSH1 0x20 ADD PUSH1 0x0 KECCAK256 PUSH1 0x0 DUP11 DUP11 DUP7 DUP2 DUP2 LT PUSH2 0xB74 JUMPI PUSH2 0xB73 PUSH2 0x2A76 JUMP JUMPDEST JUMPDEST SWAP1 POP PUSH1 0x20 MUL ADD PUSH1 0x20 DUP2 ADD SWAP1 PUSH2 0xB89 SWAP2 SWAP1 PUSH2 0x2562 JUMP JUMPDEST PUSH20 0xFFFFFFFFFFFFFFFFFFFFFFFFFFFFFFFFFFFFFFFF AND PUSH20 0xFFFFFFFFFFFFFFFFFFFFFFFFFFFFFFFFFFFFFFFF AND DUP2 MSTORE PUSH1 0x20 ADD SWAP1 DUP2 MSTORE PUSH1 0x20 ADD PUSH1 0x0 KECCAK256 DUP2 SWAP1 SSTORE POP PUSH1 0x0 DUP5 PUSH20 0xFFFFFFFFFFFFFFFFFFFFFFFFFFFFFFFFFFFFFFFF AND PUSH4 0xECA36917 DUP11 DUP11 DUP7 DUP2 DUP2 LT PUSH2 0xBF8 JUMPI PUSH2 0xBF7 PUSH2 0x2A76 JUMP JUMPDEST JUMPDEST SWAP1 POP PUSH1 0x20 MUL ADD PUSH1 0x20 DUP2 ADD SWAP1 PUSH2 0xC0D SWAP2 SWAP1 PUSH2 0x2562 JUMP JUMPDEST ADDRESS CALLER DUP7 PUSH1 0x40 MLOAD DUP6 PUSH4 0xFFFFFFFF AND PUSH1 0xE0 SHL DUP2 MSTORE PUSH1 0x4 ADD PUSH2 0xC2F SWAP5 SWAP4 SWAP3 SWAP2 SWAP1 PUSH2 0x2AB4 JUMP JUMPDEST PUSH1 0x20 PUSH1 0x40 MLOAD DUP1 DUP4 SUB DUP2 PUSH1 0x0 DUP8 GAS CALL ISZERO DUP1 ISZERO PUSH2 0xC4E JUMPI RETURNDATASIZE PUSH1 0x0 DUP1 RETURNDATACOPY RETURNDATASIZE PUSH1 0x0 REVERT JUMPDEST POP POP POP POP PUSH1 0x40 MLOAD RETURNDATASIZE PUSH1 0x1F NOT PUSH1 0x1F DUP3 ADD AND DUP3 ADD DUP1 PUSH1 0x40 MSTORE POP DUP2 ADD SWAP1 PUSH2 0xC72 SWAP2 SWAP1 PUSH2 0x2AF9 JUMP JUMPDEST SWAP1 POP PUSH1 0x16 PUSH1 0x3 SIGNEXTEND DUP2 PUSH1 0x3 SIGNEXTEND EQ PUSH2 0xCBF JUMPI DUP1 PUSH1 0x40 MLOAD PUSH32 0x71DD4A9800000000000000000000000000000000000000000000000000000000 DUP2 MSTORE PUSH1 0x4 ADD PUSH2 0xCB6 SWAP2 SWAP1 PUSH2 0x2B35 JUMP JUMPDEST PUSH1 0x40 MLOAD DUP1 SWAP2 SUB SWAP1 REVERT JUMPDEST POP JUMPDEST POP DUP1 DUP1 PUSH2 0xCCD SWAP1 PUSH2 0x2B50 JUMP JUMPDEST SWAP2 POP POP PUSH2 0xA3E JUMP JUMPDEST POP PUSH1 0x0 DUP5 EQ DUP1 ISZERO PUSH2 0xCE4 JUMPI POP DUP1 ISZERO JUMPDEST ISZERO PUSH2 0xD1B JUMPI PUSH1 0x40 MLOAD PUSH32 0x73380D9900000000000000000000000000000000000000000000000000000000 DUP2 MSTORE PUSH1 0x4 ADD PUSH1 0x40 MLOAD DUP1 SWAP2 SUB SWAP1 REVERT JUMPDEST CALLER PUSH20 0xFFFFFFFFFFFFFFFFFFFFFFFFFFFFFFFFFFFFFFFF AND PUSH32 0x630FFD80CA0EA5347D3FC507EC01147EB329AF83F39CB0D336E9BA79A6A13558 DUP6 DUP9 DUP9 DUP8 PUSH1 0x40 MLOAD PUSH2 0xD67 SWAP5 SWAP4 SWAP3 SWAP2 SWAP1 PUSH2 0x2D19 JUMP JUMPDEST PUSH1 0x40 MLOAD DUP1 SWAP2 SUB SWAP1 LOG2 POP POP POP POP PUSH2 0xD7B PUSH2 0x22A9 JUMP JUMPDEST POP POP JUMP JUMPDEST PUSH1 0x0 SELFBALANCE SWAP1 POP SWAP1 JUMP JUMPDEST PUSH1 0x9 PUSH1 0x0 SWAP1 SLOAD SWAP1 PUSH2 0x100 EXP SWAP1 DIV PUSH1 0xFF AND ISZERO PUSH2 0xDCE JUMPI PUSH1 0x40 MLOAD PUSH32 0xAB35696F00000000000000000000000000000000000000000000000000000000 DUP2 MSTORE PUSH1 0x4 ADD PUSH1 0x40 MLOAD DUP1 SWAP2 SUB SWAP1 REVERT JUMPDEST PUSH2 0xDD6 PUSH2 0x2263 JUMP JUMPDEST PUSH1 0x0 PUSH20 0xFFFFFFFFFFFFFFFFFFFFFFFFFFFFFFFFFFFFFFFF AND DUP3 PUSH20 0xFFFFFFFFFFFFFFFFFFFFFFFFFFFFFFFFFFFFFFFF AND SUB PUSH2 0xE3C JUMPI PUSH1 0x40 MLOAD PUSH32 0xE6C4247B00000000000000000000000000000000000000000000000000000000 DUP2 MSTORE PUSH1 0x4 ADD PUSH1 0x40 MLOAD DUP1 SWAP2 SUB SWAP1 REVERT JUMPDEST PUSH1 0x0 DUP2 SUB PUSH2 0xE76 JUMPI PUSH1 0x40 MLOAD PUSH32 0x2C5211C600000000000000000000000000000000000000000000000000000000 DUP2 MSTORE PUSH1 0x4 ADD PUSH1 0x40 MLOAD DUP1 SWAP2 SUB SWAP1 REVERT JUMPDEST PUSH1 0x0 PUSH1 0x2 SLOAD SUB PUSH2 0xEB2 JUMPI PUSH1 0x40 MLOAD PUSH32 0x2C5211C600000000000000000000000000000000000000000000000000000000 DUP2 MSTORE PUSH1 0x4 ADD PUSH1 0x40 MLOAD DUP1 SWAP2 SUB SWAP1 REVERT JUMPDEST PUSH1 0x7 PUSH1 0x0 DUP4 PUSH20 0xFFFFFFFFFFFFFFFFFFFFFFFFFFFFFFFFFFFFFFFF AND PUSH20 0xFFFFFFFFFFFFFFFFFFFFFFFFFFFFFFFFFFFFFFFF AND DUP2 MSTORE PUSH1 0x20 ADD SWAP1 DUP2 MSTORE PUSH1 0x20 ADD PUSH1 0x0 KECCAK256 PUSH1 0x0 SWAP1 SLOAD SWAP1 PUSH2 0x100 EXP SWAP1 DIV PUSH1 0xFF AND PUSH2 0xF35 JUMPI PUSH1 0x40 MLOAD PUSH32 0x3F9F188E00000000000000000000000000000000000000000000000000000000 DUP2 MSTORE PUSH1 0x4 ADD PUSH1 0x40 MLOAD DUP1 SWAP2 SUB SWAP1 REVERT JUMPDEST PUSH1 0x0 PUSH2 0x167 SWAP1 POP PUSH1 0x0 DUP2 PUSH20 0xFFFFFFFFFFFFFFFFFFFFFFFFFFFFFFFFFFFFFFFF AND PUSH4 0xECA36917 DUP6 CALLER ADDRESS DUP8 PUSH1 0x40 MLOAD DUP6 PUSH4 0xFFFFFFFF AND PUSH1 0xE0 SHL DUP2 MSTORE PUSH1 0x4 ADD PUSH2 0xF7D SWAP5 SWAP4 SWAP3 SWAP2 SWAP1 PUSH2 0x2AB4 JUMP JUMPDEST PUSH1 0x20 PUSH1 0x40 MLOAD DUP1 DUP4 SUB DUP2 PUSH1 0x0 DUP8 GAS CALL ISZERO DUP1 ISZERO PUSH2 0xF9C JUMPI RETURNDATASIZE PUSH1 0x0 DUP1 RETURNDATACOPY RETURNDATASIZE PUSH1 0x0 REVERT JUMPDEST POP POP POP POP PUSH1 0x40 MLOAD RETURNDATASIZE PUSH1 0x1F NOT PUSH1 0x1F DUP3 ADD AND DUP3 ADD DUP1 PUSH1 0x40 MSTORE POP DUP2 ADD SWAP1 PUSH2 0xFC0 SWAP2 SWAP1 PUSH2 0x2AF9 JUMP JUMPDEST SWAP1 POP PUSH1 0x16 PUSH1 0x3 SIGNEXTEND DUP2 PUSH1 0x3 SIGNEXTEND EQ PUSH2 0x100D JUMPI DUP1 PUSH1 0x40 MLOAD PUSH32 0x71DD4A9800000000000000000000000000000000000000000000000000000000 DUP2 MSTORE PUSH1 0x4 ADD PUSH2 0x1004 SWAP2 SWAP1 PUSH2 0x2B35 JUMP JUMPDEST PUSH1 0x40 MLOAD DUP1 SWAP2 SUB SWAP1 REVERT JUMPDEST DUP3 PUSH1 0x5 PUSH1 0x0 DUP7 PUSH20 0xFFFFFFFFFFFFFFFFFFFFFFFFFFFFFFFFFFFFFFFF AND PUSH20 0xFFFFFFFFFFFFFFFFFFFFFFFFFFFFFFFFFFFFFFFF AND DUP2 MSTORE PUSH1 0x20 ADD SWAP1 DUP2 MSTORE PUSH1 0x20 ADD PUSH1 0x0 KECCAK256 PUSH1 0x0 DUP3 DUP3 SLOAD PUSH2 0x105C SWAP2 SWAP1 PUSH2 0x246C JUMP JUMPDEST SWAP3 POP POP DUP2 SWAP1 SSTORE POP DUP4 PUSH20 0xFFFFFFFFFFFFFFFFFFFFFFFFFFFFFFFFFFFFFFFF AND CALLER PUSH20 0xFFFFFFFFFFFFFFFFFFFFFFFFFFFFFFFFFFFFFFFF AND PUSH32 0x80C225C8E9D9F966820EF915F5F555D575E9C3A188F1252D19E94AA2250F09D DUP6 TIMESTAMP PUSH1 0x40 MLOAD PUSH2 0x10C2 SWAP3 SWAP2 SWAP1 PUSH2 0x24D1 JUMP JUMPDEST PUSH1 0x40 MLOAD DUP1 SWAP2 SUB SWAP1 LOG3 POP POP PUSH2 0x10D4 PUSH2 0x22A9 JUMP JUMPDEST POP POP JUMP JUMPDEST PUSH1 0x5 PUSH1 0x20 MSTORE DUP1 PUSH1 0x0 MSTORE PUSH1 0x40 PUSH1 0x0 KECCAK256 PUSH1 0x0 SWAP2 POP SWAP1 POP SLOAD DUP2 JUMP JUMPDEST PUSH1 0x7 PUSH1 0x20 MSTORE DUP1 PUSH1 0x0 MSTORE PUSH1 0x40 PUSH1 0x0 KECCAK256 PUSH1 0x0 SWAP2 POP SLOAD SWAP1 PUSH2 0x100 EXP SWAP1 DIV PUSH1 0xFF AND DUP2 JUMP JUMPDEST PUSH32 0x0 DUP2 JUMP JUMPDEST PUSH1 0x6 PUSH1 0x20 MSTORE DUP1 PUSH1 0x0 MSTORE PUSH1 0x40 PUSH1 0x0 KECCAK256 PUSH1 0x0 SWAP2 POP SWAP1 POP SLOAD DUP2 JUMP JUMPDEST PUSH2 0x1154 PUSH2 0x21EA JUMP JUMPDEST PUSH1 0x0 PUSH20 0xFFFFFFFFFFFFFFFFFFFFFFFFFFFFFFFFFFFFFFFF AND DUP5 PUSH20 0xFFFFFFFFFFFFFFFFFFFFFFFFFFFFFFFFFFFFFFFF AND SUB PUSH2 0x11BA JUMPI PUSH1 0x40 MLOAD PUSH32 0xE6C4247B00000000000000000000000000000000000000000000000000000000 DUP2 MSTORE PUSH1 0x4 ADD PUSH1 0x40 MLOAD DUP1 SWAP2 SUB SWAP1 REVERT JUMPDEST PUSH1 0x0 DUP4 GT ISZERO PUSH2 0x12A2 JUMPI DUP3 SELFBALANCE LT ISZERO PUSH2 0x11FD JUMPI PUSH1 0x40 MLOAD PUSH32 0xF4D678B800000000000000000000000000000000000000000000000000000000 DUP2 MSTORE PUSH1 0x4 ADD PUSH1 0x40 MLOAD DUP1 SWAP2 SUB SWAP1 REVERT JUMPDEST PUSH1 0x0 DUP5 PUSH20 0xFFFFFFFFFFFFFFFFFFFFFFFFFFFFFFFFFFFFFFFF AND DUP5 PUSH1 0x40 MLOAD PUSH2 0x1223 SWAP1 PUSH2 0x2A61 JUMP JUMPDEST PUSH1 0x0 PUSH1 0x40 MLOAD DUP1 DUP4 SUB DUP2 DUP6 DUP8 GAS CALL SWAP3 POP POP POP RETURNDATASIZE DUP1 PUSH1 0x0 DUP2 EQ PUSH2 0x1260 JUMPI PUSH1 0x40 MLOAD SWAP2 POP PUSH1 0x1F NOT PUSH1 0x3F RETURNDATASIZE ADD AND DUP3 ADD PUSH1 0x40 MSTORE RETURNDATASIZE DUP3 MSTORE RETURNDATASIZE PUSH1 0x0 PUSH1 0x20 DUP5 ADD RETURNDATACOPY PUSH2 0x1265 JUMP JUMPDEST PUSH1 0x60 SWAP2 POP JUMPDEST POP POP SWAP1 POP DUP1 PUSH2 0x12A0 JUMPI PUSH1 0x40 MLOAD PUSH32 0x90B8EC1800000000000000000000000000000000000000000000000000000000 DUP2 MSTORE PUSH1 0x4 ADD PUSH1 0x40 MLOAD DUP1 SWAP2 SUB SWAP1 REVERT JUMPDEST POP JUMPDEST PUSH1 0x0 PUSH20 0xFFFFFFFFFFFFFFFFFFFFFFFFFFFFFFFFFFFFFFFF AND DUP3 PUSH20 0xFFFFFFFFFFFFFFFFFFFFFFFFFFFFFFFFFFFFFFFF AND EQ ISZERO DUP1 ISZERO PUSH2 0x12DF JUMPI POP PUSH1 0x0 DUP2 GT JUMPDEST ISZERO PUSH2 0x13BF JUMPI PUSH1 0x0 PUSH2 0x167 SWAP1 POP PUSH1 0x0 DUP2 PUSH20 0xFFFFFFFFFFFFFFFFFFFFFFFFFFFFFFFFFFFFFFFF AND PUSH4 0xECA36917 DUP6 ADDRESS DUP10 DUP8 PUSH1 0x40 MLOAD DUP6 PUSH4 0xFFFFFFFF AND PUSH1 0xE0 SHL DUP2 MSTORE PUSH1 0x4 ADD PUSH2 0x132C SWAP5 SWAP4 SWAP3 SWAP2 SWAP1 PUSH2 0x2DBF JUMP JUMPDEST PUSH1 0x20 PUSH1 0x40 MLOAD DUP1 DUP4 SUB DUP2 PUSH1 0x0 DUP8 GAS CALL ISZERO DUP1 ISZERO PUSH2 0x134B JUMPI RETURNDATASIZE PUSH1 0x0 DUP1 RETURNDATACOPY RETURNDATASIZE PUSH1 0x0 REVERT JUMPDEST POP POP POP POP PUSH1 0x40 MLOAD RETURNDATASIZE PUSH1 0x1F NOT PUSH1 0x1F DUP3 ADD AND DUP3 ADD DUP1 PUSH1 0x40 MSTORE POP DUP2 ADD SWAP1 PUSH2 0x136F SWAP2 SWAP1 PUSH2 0x2AF9 JUMP JUMPDEST SWAP1 POP PUSH1 0x16 PUSH1 0x3 SIGNEXTEND DUP2 PUSH1 0x3 SIGNEXTEND EQ PUSH2 0x13BC JUMPI DUP1 PUSH1 0x40 MLOAD PUSH32 0x71DD4A9800000000000000000000000000000000000000000000000000000000 DUP2 MSTORE PUSH1 0x4 ADD PUSH2 0x13B3 SWAP2 SWAP1 PUSH2 0x2B35 JUMP JUMPDEST PUSH1 0x40 MLOAD DUP1 SWAP2 SUB SWAP1 REVERT JUMPDEST POP POP JUMPDEST DUP4 PUSH20 0xFFFFFFFFFFFFFFFFFFFFFFFFFFFFFFFFFFFFFFFF AND PUSH32 0xBBAE553982D541D38DACB1EA468AC757F324D0E279B6E4A2958F9E894DA575FF DUP5 DUP5 DUP5 PUSH1 0x40 MLOAD PUSH2 0x1409 SWAP4 SWAP3 SWAP2 SWAP1 PUSH2 0x2E04 JUMP JUMPDEST PUSH1 0x40 MLOAD DUP1 SWAP2 SUB SWAP1 LOG2 POP POP POP POP JUMP JUMPDEST PUSH1 0x9 PUSH1 0x0 SWAP1 SLOAD SWAP1 PUSH2 0x100 EXP SWAP1 DIV PUSH1 0xFF AND DUP2 JUMP JUMPDEST PUSH1 0x4 SLOAD DUP2 JUMP JUMPDEST PUSH2 0x1438 PUSH2 0x21EA JUMP JUMPDEST PUSH1 0x0 DUP2 SUB PUSH2 0x1472 JUMPI PUSH1 0x40 MLOAD PUSH32 0x2C5211C600000000000000000000000000000000000000000000000000000000 DUP2 MSTORE PUSH1 0x4 ADD PUSH1 0x40 MLOAD DUP1 SWAP2 SUB SWAP1 REVERT JUMPDEST PUSH1 0x0 PUSH1 0x2 SLOAD SWAP1 POP DUP2 PUSH1 0x2 DUP2 SWAP1 SSTORE POP PUSH32 0xD847752640337969F783BA291F56251D6165BA92DD3D27984AD0F81995AEF0B6 DUP2 DUP4 PUSH1 0x40 MLOAD PUSH2 0x14B1 SWAP3 SWAP2 SWAP1 PUSH2 0x24D1 JUMP JUMPDEST PUSH1 0x40 MLOAD DUP1 SWAP2 SUB SWAP1 LOG1 POP POP JUMP JUMPDEST PUSH1 0x0 PUSH2 0x167 PUSH20 0xFFFFFFFFFFFFFFFFFFFFFFFFFFFFFFFFFFFFFFFF AND PUSH4 0xF7888AEC PUSH32 0x0 DUP5 PUSH1 0x40 MLOAD DUP4 PUSH4 0xFFFFFFFF AND PUSH1 0xE0 SHL DUP2 MSTORE PUSH1 0x4 ADD PUSH2 0x151C SWAP3 SWAP2 SWAP1 PUSH2 0x2926 JUMP JUMPDEST PUSH1 0x40 DUP1 MLOAD DUP1 DUP4 SUB DUP2 DUP7 GAS STATICCALL SWAP3 POP POP POP DUP1 ISZERO PUSH2 0x1555 JUMPI POP PUSH1 0x40 MLOAD RETURNDATASIZE PUSH1 0x1F NOT PUSH1 0x1F DUP3 ADD AND DUP3 ADD DUP1 PUSH1 0x40 MSTORE POP DUP2 ADD SWAP1 PUSH2 0x1552 SWAP2 SWAP1 PUSH2 0x29C1 JUMP JUMPDEST PUSH1 0x1 JUMPDEST PUSH2 0x1562 JUMPI PUSH1 0x0 SWAP1 POP PUSH2 0x158B JUMP JUMPDEST PUSH1 0x16 PUSH1 0x3 SIGNEXTEND DUP3 PUSH1 0x3 SIGNEXTEND EQ PUSH2 0x157B JUMPI PUSH1 0x0 SWAP3 POP POP POP PUSH2 0x158B JUMP JUMPDEST DUP1 PUSH8 0xFFFFFFFFFFFFFFFF AND SWAP3 POP POP POP JUMPDEST SWAP2 SWAP1 POP JUMP JUMPDEST PUSH2 0x1598 PUSH2 0x21EA JUMP JUMPDEST PUSH2 0x15A2 PUSH1 0x0 PUSH2 0x22B3 JUMP JUMPDEST JUMP JUMPDEST PUSH1 0x9 PUSH1 0x0 SWAP1 SLOAD SWAP1 PUSH2 0x100 EXP SWAP1 DIV PUSH1 0xFF AND ISZERO PUSH2 0x15EB JUMPI PUSH1 0x40 MLOAD PUSH32 0xAB35696F00000000000000000000000000000000000000000000000000000000 DUP2 MSTORE PUSH1 0x4 ADD PUSH1 0x40 MLOAD DUP1 SWAP2 SUB SWAP1 REVERT JUMPDEST PUSH2 0x15F3 PUSH2 0x2263 JUMP JUMPDEST PUSH1 0x0 PUSH2 0x15FE CALLER PUSH2 0x1C7B JUMP JUMPDEST SWAP1 POP PUSH1 0x0 DUP2 SUB PUSH2 0x163A JUMPI PUSH1 0x40 MLOAD PUSH32 0x73380D9900000000000000000000000000000000000000000000000000000000 DUP2 MSTORE PUSH1 0x4 ADD PUSH1 0x40 MLOAD DUP1 SWAP2 SUB SWAP1 REVERT JUMPDEST PUSH1 0x0 PUSH2 0x1645 CALLER PUSH2 0x14BD JUMP JUMPDEST SWAP1 POP PUSH5 0xE8D4A51000 PUSH1 0x3 SLOAD DUP3 PUSH2 0x165B SWAP2 SWAP1 PUSH2 0x23B2 JUMP JUMPDEST PUSH2 0x1665 SWAP2 SWAP1 PUSH2 0x243B JUMP JUMPDEST PUSH1 0x6 PUSH1 0x0 CALLER PUSH20 0xFFFFFFFFFFFFFFFFFFFFFFFFFFFFFFFFFFFFFFFF AND PUSH20 0xFFFFFFFFFFFFFFFFFFFFFFFFFFFFFFFFFFFFFFFF AND DUP2 MSTORE PUSH1 0x20 ADD SWAP1 DUP2 MSTORE PUSH1 0x20 ADD PUSH1 0x0 KECCAK256 DUP2 SWAP1 SSTORE POP PUSH1 0x0 CALLER PUSH20 0xFFFFFFFFFFFFFFFFFFFFFFFFFFFFFFFFFFFFFFFF AND DUP4 PUSH1 0x40 MLOAD PUSH2 0x16CE SWAP1 PUSH2 0x2A61 JUMP JUMPDEST PUSH1 0x0 PUSH1 0x40 MLOAD DUP1 DUP4 SUB DUP2 DUP6 DUP8 GAS CALL SWAP3 POP POP POP RETURNDATASIZE DUP1 PUSH1 0x0 DUP2 EQ PUSH2 0x170B JUMPI PUSH1 0x40 MLOAD SWAP2 POP PUSH1 0x1F NOT PUSH1 0x3F RETURNDATASIZE ADD AND DUP3 ADD PUSH1 0x40 MSTORE RETURNDATASIZE DUP3 MSTORE RETURNDATASIZE PUSH1 0x0 PUSH1 0x20 DUP5 ADD RETURNDATACOPY PUSH2 0x1710 JUMP JUMPDEST PUSH1 0x60 SWAP2 POP JUMPDEST POP POP SWAP1 POP DUP1 PUSH2 0x174B JUMPI PUSH1 0x40 MLOAD PUSH32 0x90B8EC1800000000000000000000000000000000000000000000000000000000 DUP2 MSTORE PUSH1 0x4 ADD PUSH1 0x40 MLOAD DUP1 SWAP2 SUB SWAP1 REVERT JUMPDEST PUSH1 0x0 DUP1 PUSH8 0xFFFFFFFFFFFFFFFF DUP2 GT ISZERO PUSH2 0x1767 JUMPI PUSH2 0x1766 PUSH2 0x2A01 JUMP JUMPDEST JUMPDEST PUSH1 0x40 MLOAD SWAP1 DUP1 DUP3 MSTORE DUP1 PUSH1 0x20 MUL PUSH1 0x20 ADD DUP3 ADD PUSH1 0x40 MSTORE DUP1 ISZERO PUSH2 0x1795 JUMPI DUP2 PUSH1 0x20 ADD PUSH1 0x20 DUP3 MUL DUP1 CALLDATASIZE DUP4 CALLDATACOPY DUP1 DUP3 ADD SWAP2 POP POP SWAP1 POP JUMPDEST POP SWAP1 POP PUSH1 0x0 DUP1 PUSH8 0xFFFFFFFFFFFFFFFF DUP2 GT ISZERO PUSH2 0x17B4 JUMPI PUSH2 0x17B3 PUSH2 0x2A01 JUMP JUMPDEST JUMPDEST PUSH1 0x40 MLOAD SWAP1 DUP1 DUP3 MSTORE DUP1 PUSH1 0x20 MUL PUSH1 0x20 ADD DUP3 ADD PUSH1 0x40 MSTORE DUP1 ISZERO PUSH2 0x17E2 JUMPI DUP2 PUSH1 0x20 ADD PUSH1 0x20 DUP3 MUL DUP1 CALLDATASIZE DUP4 CALLDATACOPY DUP1 DUP3 ADD SWAP2 POP POP SWAP1 POP JUMPDEST POP SWAP1 POP CALLER PUSH20 0xFFFFFFFFFFFFFFFFFFFFFFFFFFFFFFFFFFFFFFFF AND PUSH32 0x630FFD80CA0EA5347D3FC507EC01147EB329AF83F39CB0D336E9BA79A6A13558 DUP7 DUP5 DUP5 PUSH1 0x40 MLOAD PUSH2 0x182F SWAP4 SWAP3 SWAP2 SWAP1 PUSH2 0x2EC1 JUMP JUMPDEST PUSH1 0x40 MLOAD DUP1 SWAP2 SUB SWAP1 LOG2 POP POP POP POP POP PUSH2 0x1844 PUSH2 0x22A9 JUMP JUMPDEST JUMP JUMPDEST PUSH1 0x2 SLOAD DUP2 JUMP JUMPDEST PUSH1 0x0 PUSH1 0x1 PUSH1 0x0 SWAP1 SLOAD SWAP1 PUSH2 0x100 EXP SWAP1 DIV PUSH20 0xFFFFFFFFFFFFFFFFFFFFFFFFFFFFFFFFFFFFFFFF AND SWAP1 POP SWAP1 JUMP JUMPDEST PUSH1 0x9 PUSH1 0x0 SWAP1 SLOAD SWAP1 PUSH2 0x100 EXP SWAP1 DIV PUSH1 0xFF AND ISZERO PUSH2 0x18BD JUMPI PUSH1 0x40 MLOAD PUSH32 0xAB35696F00000000000000000000000000000000000000000000000000000000 DUP2 MSTORE PUSH1 0x4 ADD PUSH1 0x40 MLOAD DUP1 SWAP2 SUB SWAP1 REVERT JUMPDEST PUSH2 0x18C5 PUSH2 0x2263 JUMP JUMPDEST PUSH1 0x0 CALLVALUE SUB PUSH2 0x18FF JUMPI PUSH1 0x40 MLOAD PUSH32 0x2C5211C600000000000000000000000000000000000000000000000000000000 DUP2 MSTORE PUSH1 0x4 ADD PUSH1 0x40 MLOAD DUP1 SWAP2 SUB SWAP1 REVERT JUMPDEST PUSH1 0x0 PUSH1 0x2 SLOAD SUB PUSH2 0x193B JUMPI PUSH1 0x40 MLOAD PUSH32 0x2C5211C600000000000000000000000000000000000000000000000000000000 DUP2 MSTORE PUSH1 0x4 ADD PUSH1 0x40 MLOAD DUP1 SWAP2 SUB SWAP1 REVERT JUMPDEST PUSH1 0x0 PUSH1 0x2 SLOAD PUSH5 0xE8D4A51000 CALLVALUE PUSH2 0x1951 SWAP2 SWAP1 PUSH2 0x23B2 JUMP JUMPDEST PUSH2 0x195B SWAP2 SWAP1 PUSH2 0x243B JUMP JUMPDEST SWAP1 POP DUP1 PUSH1 0x3 PUSH1 0x0 DUP3 DUP3 SLOAD PUSH2 0x196F SWAP2 SWAP1 PUSH2 0x246C JUMP JUMPDEST SWAP3 POP POP DUP2 SWAP1 SSTORE POP CALLVALUE PUSH1 0x4 PUSH1 0x0 DUP3 DUP3 SLOAD PUSH2 0x1988 SWAP2 SWAP1 PUSH2 0x246C JUMP JUMPDEST SWAP3 POP POP DUP2 SWAP1 SSTORE POP CALLER PUSH20 0xFFFFFFFFFFFFFFFFFFFFFFFFFFFFFFFFFFFFFFFF AND PUSH32 0xB548377C5C0A1B6B67E22A933676C80A1874369367C95AD48B87360A3C065011 CALLVALUE PUSH1 0x3 SLOAD PUSH1 0x40 MLOAD PUSH2 0x19D9 SWAP3 SWAP2 SWAP1 PUSH2 0x24D1 JUMP JUMPDEST PUSH1 0x40 MLOAD DUP1 SWAP2 SUB SWAP1 LOG2 POP PUSH2 0x19EA PUSH2 0x22A9 JUMP JUMPDEST JUMP JUMPDEST PUSH2 0x19F4 PUSH2 0x21EA JUMP JUMPDEST PUSH1 0x0 PUSH20 0xFFFFFFFFFFFFFFFFFFFFFFFFFFFFFFFFFFFFFFFF AND DUP3 PUSH20 0xFFFFFFFFFFFFFFFFFFFFFFFFFFFFFFFFFFFFFFFF AND SUB PUSH2 0x1A5A JUMPI PUSH1 0x40 MLOAD PUSH32 0xE6C4247B00000000000000000000000000000000000000000000000000000000 DUP2 MSTORE PUSH1 0x4 ADD PUSH1 0x40 MLOAD DUP1 SWAP2 SUB SWAP1 REVERT JUMPDEST DUP1 PUSH1 0x7 PUSH1 0x0 DUP5 PUSH20 0xFFFFFFFFFFFFFFFFFFFFFFFFFFFFFFFFFFFFFFFF AND PUSH20 0xFFFFFFFFFFFFFFFFFFFFFFFFFFFFFFFFFFFFFFFF AND DUP2 MSTORE PUSH1 0x20 ADD SWAP1 DUP2 MSTORE PUSH1 0x20 ADD PUSH1 0x0 KECCAK256 PUSH1 0x0 PUSH2 0x100 EXP DUP2 SLOAD DUP2 PUSH1 0xFF MUL NOT AND SWAP1 DUP4 ISZERO ISZERO MUL OR SWAP1 SSTORE POP DUP2 PUSH20 0xFFFFFFFFFFFFFFFFFFFFFFFFFFFFFFFFFFFFFFFF AND PUSH32 0x60D450F9FBA6F163C4D4F6329637EBD4B3D6C2D87F36229CF43B40D45753F7DB DUP3 PUSH1 0x40 MLOAD PUSH2 0x1AF7 SWAP2 SWAP1 PUSH2 0x277C JUMP JUMPDEST PUSH1 0x40 MLOAD DUP1 SWAP2 SUB SWAP1 LOG2 POP POP JUMP JUMPDEST PUSH2 0x1B0B PUSH2 0x21EA JUMP JUMPDEST PUSH1 0x0 PUSH20 0xFFFFFFFFFFFFFFFFFFFFFFFFFFFFFFFFFFFFFFFF AND DUP4 PUSH20 0xFFFFFFFFFFFFFFFFFFFFFFFFFFFFFFFFFFFFFFFF AND EQ DUP1 PUSH2 0x1B72 JUMPI POP PUSH1 0x0 PUSH20 0xFFFFFFFFFFFFFFFFFFFFFFFFFFFFFFFFFFFFFFFF AND DUP3 PUSH20 0xFFFFFFFFFFFFFFFFFFFFFFFFFFFFFFFFFFFFFFFF AND EQ JUMPDEST ISZERO PUSH2 0x1BA9 JUMPI PUSH1 0x40 MLOAD PUSH32 0xE6C4247B00000000000000000000000000000000000000000000000000000000 DUP2 MSTORE PUSH1 0x4 ADD PUSH1 0x40 MLOAD DUP1 SWAP2 SUB SWAP1 REVERT JUMPDEST PUSH1 0x0 DUP2 SUB PUSH2 0x1BE3 JUMPI PUSH1 0x40 MLOAD PUSH32 0x2C5211C600000000000000000000000000000000000000000000000000000000 DUP2 MSTORE PUSH1 0x4 ADD PUSH1 0x40 MLOAD DUP1 SWAP2 SUB SWAP1 REVERT JUMPDEST DUP1 PUSH1 0x8 PUSH1 0x0 DUP6 PUSH20 0xFFFFFFFFFFFFFFFFFFFFFFFFFFFFFFFFFFFFFFFF AND PUSH20 0xFFFFFFFFFFFFFFFFFFFFFFFFFFFFFFFFFFFFFFFF AND DUP2 MSTORE PUSH1 0x20 ADD SWAP1 DUP2 MSTORE PUSH1 0x20 ADD PUSH1 0x0 KECCAK256 PUSH1 0x0 DUP5 PUSH20 0xFFFFFFFFFFFFFFFFFFFFFFFFFFFFFFFFFFFFFFFF AND PUSH20 0xFFFFFFFFFFFFFFFFFFFFFFFFFFFFFFFFFFFFFFFF AND DUP2 MSTORE PUSH1 0x20 ADD SWAP1 DUP2 MSTORE PUSH1 0x20 ADD PUSH1 0x0 KECCAK256 PUSH1 0x0 DUP3 DUP3 SLOAD PUSH2 0x1C6F SWAP2 SWAP1 PUSH2 0x246C JUMP JUMPDEST SWAP3 POP POP DUP2 SWAP1 SSTORE POP POP POP POP JUMP JUMPDEST PUSH1 0x0 DUP1 PUSH2 0x1C87 DUP4 PUSH2 0x14BD JUMP JUMPDEST SWAP1 POP PUSH1 0x0 DUP2 SUB PUSH2 0x1C9B JUMPI PUSH1 0x0 SWAP2 POP POP PUSH2 0x1D5E JUMP JUMPDEST PUSH1 0x0 PUSH5 0xE8D4A51000 PUSH1 0x3 SLOAD DUP4 PUSH2 0x1CB1 SWAP2 SWAP1 PUSH2 0x23B2 JUMP JUMPDEST PUSH2 0x1CBB SWAP2 SWAP1 PUSH2 0x243B JUMP JUMPDEST SWAP1 POP PUSH1 0x6 PUSH1 0x0 DUP6 PUSH20 0xFFFFFFFFFFFFFFFFFFFFFFFFFFFFFFFFFFFFFFFF AND PUSH20 0xFFFFFFFFFFFFFFFFFFFFFFFFFFFFFFFFFFFFFFFF AND DUP2 MSTORE PUSH1 0x20 ADD SWAP1 DUP2 MSTORE PUSH1 0x20 ADD PUSH1 0x0 KECCAK256 SLOAD DUP2 GT PUSH2 0x1D0E JUMPI PUSH1 0x0 SWAP3 POP POP POP PUSH2 0x1D5E JUMP JUMPDEST PUSH1 0x6 PUSH1 0x0 DUP6 PUSH20 0xFFFFFFFFFFFFFFFFFFFFFFFFFFFFFFFFFFFFFFFF AND PUSH20 0xFFFFFFFFFFFFFFFFFFFFFFFFFFFFFFFFFFFFFFFF AND DUP2 MSTORE PUSH1 0x20 ADD SWAP1 DUP2 MSTORE PUSH1 0x20 ADD PUSH1 0x0 KECCAK256 SLOAD DUP2 PUSH2 0x1D59 SWAP2 SWAP1 PUSH2 0x2F06 JUMP JUMPDEST SWAP3 POP POP POP JUMPDEST SWAP2 SWAP1 POP JUMP JUMPDEST PUSH32 0x0 DUP2 JUMP JUMPDEST PUSH1 0x9 PUSH1 0x0 SWAP1 SLOAD SWAP1 PUSH2 0x100 EXP SWAP1 DIV PUSH1 0xFF AND ISZERO PUSH2 0x1DCE JUMPI PUSH1 0x40 MLOAD PUSH32 0xAB35696F00000000000000000000000000000000000000000000000000000000 DUP2 MSTORE PUSH1 0x4 ADD PUSH1 0x40 MLOAD DUP1 SWAP2 SUB SWAP1 REVERT JUMPDEST PUSH2 0x1DD6 PUSH2 0x2263 JUMP JUMPDEST PUSH1 0x0 DUP3 DUP3 SWAP1 POP PUSH8 0xFFFFFFFFFFFFFFFF DUP2 GT ISZERO PUSH2 0x1DF5 JUMPI PUSH2 0x1DF4 PUSH2 0x2A01 JUMP JUMPDEST JUMPDEST PUSH1 0x40 MLOAD SWAP1 DUP1 DUP3 MSTORE DUP1 PUSH1 0x20 MUL PUSH1 0x20 ADD DUP3 ADD PUSH1 0x40 MSTORE DUP1 ISZERO PUSH2 0x1E23 JUMPI DUP2 PUSH1 0x20 ADD PUSH1 0x20 DUP3 MUL DUP1 CALLDATASIZE DUP4 CALLDATACOPY DUP1 DUP3 ADD SWAP2 POP POP SWAP1 POP JUMPDEST POP SWAP1 POP PUSH1 0x0 DUP1 PUSH2 0x167 SWAP1 POP PUSH1 0x0 JUMPDEST DUP6 DUP6 SWAP1 POP DUP2 LT ISZERO PUSH2 0x20C8 JUMPI PUSH1 0x0 PUSH1 0x8 PUSH1 0x0 CALLER PUSH20 0xFFFFFFFFFFFFFFFFFFFFFFFFFFFFFFFFFFFFFFFF AND PUSH20 0xFFFFFFFFFFFFFFFFFFFFFFFFFFFFFFFFFFFFFFFF AND DUP2 MSTORE PUSH1 0x20 ADD SWAP1 DUP2 MSTORE PUSH1 0x20 ADD PUSH1 0x0 KECCAK256 PUSH1 0x0 DUP9 DUP9 DUP6 DUP2 DUP2 LT PUSH2 0x1E92 JUMPI PUSH2 0x1E91 PUSH2 0x2A76 JUMP JUMPDEST JUMPDEST SWAP1 POP PUSH1 0x20 MUL ADD PUSH1 0x20 DUP2 ADD SWAP1 PUSH2 0x1EA7 SWAP2 SWAP1 PUSH2 0x2562 JUMP JUMPDEST PUSH20 0xFFFFFFFFFFFFFFFFFFFFFFFFFFFFFFFFFFFFFFFF AND PUSH20 0xFFFFFFFFFFFFFFFFFFFFFFFFFFFFFFFFFFFFFFFF AND DUP2 MSTORE PUSH1 0x20 ADD SWAP1 DUP2 MSTORE PUSH1 0x20 ADD PUSH1 0x0 KECCAK256 SLOAD SWAP1 POP PUSH1 0x0 DUP2 GT ISZERO PUSH2 0x20B4 JUMPI PUSH1 0x1 SWAP4 POP DUP1 DUP6 DUP4 DUP2 MLOAD DUP2 LT PUSH2 0x1F05 JUMPI PUSH2 0x1F04 PUSH2 0x2A76 JUMP JUMPDEST JUMPDEST PUSH1 0x20 MUL PUSH1 0x20 ADD ADD DUP2 DUP2 MSTORE POP POP PUSH1 0x0 PUSH1 0x8 PUSH1 0x0 CALLER PUSH20 0xFFFFFFFFFFFFFFFFFFFFFFFFFFFFFFFFFFFFFFFF AND PUSH20 0xFFFFFFFFFFFFFFFFFFFFFFFFFFFFFFFFFFFFFFFF AND DUP2 MSTORE PUSH1 0x20 ADD SWAP1 DUP2 MSTORE PUSH1 0x20 ADD PUSH1 0x0 KECCAK256 PUSH1 0x0 DUP10 DUP10 DUP7 DUP2 DUP2 LT PUSH2 0x1F67 JUMPI PUSH2 0x1F66 PUSH2 0x2A76 JUMP JUMPDEST JUMPDEST SWAP1 POP PUSH1 0x20 MUL ADD PUSH1 0x20 DUP2 ADD SWAP1 PUSH2 0x1F7C SWAP2 SWAP1 PUSH2 0x2562 JUMP JUMPDEST PUSH20 0xFFFFFFFFFFFFFFFFFFFFFFFFFFFFFFFFFFFFFFFF AND PUSH20 0xFFFFFFFFFFFFFFFFFFFFFFFFFFFFFFFFFFFFFFFF AND DUP2 MSTORE PUSH1 0x20 ADD SWAP1 DUP2 MSTORE PUSH1 0x20 ADD PUSH1 0x0 KECCAK256 DUP2 SWAP1 SSTORE POP PUSH1 0x0 DUP4 PUSH20 0xFFFFFFFFFFFFFFFFFFFFFFFFFFFFFFFFFFFFFFFF AND PUSH4 0xECA36917 DUP10 DUP10 DUP7 DUP2 DUP2 LT PUSH2 0x1FEB JUMPI PUSH2 0x1FEA PUSH2 0x2A76 JUMP JUMPDEST JUMPDEST SWAP1 POP PUSH1 0x20 MUL ADD PUSH1 0x20 DUP2 ADD SWAP1 PUSH2 0x2000 SWAP2 SWAP1 PUSH2 0x2562 JUMP JUMPDEST ADDRESS CALLER DUP7 PUSH1 0x40 MLOAD DUP6 PUSH4 0xFFFFFFFF AND PUSH1 0xE0 SHL DUP2 MSTORE PUSH1 0x4 ADD PUSH2 0x2022 SWAP5 SWAP4 SWAP3 SWAP2 SWAP1 PUSH2 0x2AB4 JUMP JUMPDEST PUSH1 0x20 PUSH1 0x40 MLOAD DUP1 DUP4 SUB DUP2 PUSH1 0x0 DUP8 GAS CALL ISZERO DUP1 ISZERO PUSH2 0x2041 JUMPI RETURNDATASIZE PUSH1 0x0 DUP1 RETURNDATACOPY RETURNDATASIZE PUSH1 0x0 REVERT JUMPDEST POP POP POP POP PUSH1 0x40 MLOAD RETURNDATASIZE PUSH1 0x1F NOT PUSH1 0x1F DUP3 ADD AND DUP3 ADD DUP1 PUSH1 0x40 MSTORE POP DUP2 ADD SWAP1 PUSH2 0x2065 SWAP2 SWAP1 PUSH2 0x2AF9 JUMP JUMPDEST SWAP1 POP PUSH1 0x16 PUSH1 0x3 SIGNEXTEND DUP2 PUSH1 0x3 SIGNEXTEND EQ PUSH2 0x20B2 JUMPI DUP1 PUSH1 0x40 MLOAD PUSH32 0x71DD4A9800000000000000000000000000000000000000000000000000000000 DUP2 MSTORE PUSH1 0x4 ADD PUSH2 0x20A9 SWAP2 SWAP1 PUSH2 0x2B35 JUMP JUMPDEST PUSH1 0x40 MLOAD DUP1 SWAP2 SUB SWAP1 REVERT JUMPDEST POP JUMPDEST POP DUP1 DUP1 PUSH2 0x20C0 SWAP1 PUSH2 0x2B50 JUMP JUMPDEST SWAP2 POP POP PUSH2 0x1E31 JUMP JUMPDEST POP DUP2 PUSH2 0x2100 JUMPI PUSH1 0x40 MLOAD PUSH32 0x73380D9900000000000000000000000000000000000000000000000000000000 DUP2 MSTORE PUSH1 0x4 ADD PUSH1 0x40 MLOAD DUP1 SWAP2 SUB SWAP1 REVERT JUMPDEST CALLER PUSH20 0xFFFFFFFFFFFFFFFFFFFFFFFFFFFFFFFFFFFFFFFF AND PUSH32 0x630FFD80CA0EA5347D3FC507EC01147EB329AF83F39CB0D336E9BA79A6A13558 PUSH1 0x0 DUP8 DUP8 DUP8 PUSH1 0x40 MLOAD PUSH2 0x214D SWAP5 SWAP4 SWAP3 SWAP2 SWAP1 PUSH2 0x2F75 JUMP JUMPDEST PUSH1 0x40 MLOAD DUP1 SWAP2 SUB SWAP1 LOG2 POP POP POP PUSH2 0x2160 PUSH2 0x22A9 JUMP JUMPDEST POP POP JUMP JUMPDEST PUSH2 0x216C PUSH2 0x21EA JUMP JUMPDEST PUSH1 0x0 PUSH20 0xFFFFFFFFFFFFFFFFFFFFFFFFFFFFFFFFFFFFFFFF AND DUP2 PUSH20 0xFFFFFFFFFFFFFFFFFFFFFFFFFFFFFFFFFFFFFFFF AND SUB PUSH2 0x21DE JUMPI PUSH1 0x0 PUSH1 0x40 MLOAD PUSH32 0x1E4FBDF700000000000000000000000000000000000000000000000000000000 DUP2 MSTORE PUSH1 0x4 ADD PUSH2 0x21D5 SWAP2 SWAP1 PUSH2 0x27A6 JUMP JUMPDEST PUSH1 0x40 MLOAD DUP1 SWAP2 SUB SWAP1 REVERT JUMPDEST PUSH2 0x21E7 DUP2 PUSH2 0x22B3 JUMP JUMPDEST POP JUMP JUMPDEST CALLER PUSH20 0xFFFFFFFFFFFFFFFFFFFFFFFFFFFFFFFFFFFFFFFF AND PUSH2 0x2209 PUSH2 0x184C JUMP JUMPDEST PUSH20 0xFFFFFFFFFFFFFFFFFFFFFFFFFFFFFFFFFFFFFFFF AND EQ PUSH2 0x2261 JUMPI CALLER PUSH1 0x40 MLOAD PUSH32 0x118CDAA700000000000000000000000000000000000000000000000000000000 DUP2 MSTORE PUSH1 0x4 ADD PUSH2 0x2258 SWAP2 SWAP1 PUSH2 0x27A6 JUMP JUMPDEST PUSH1 0x40 MLOAD DUP1 SWAP2 SUB SWAP1 REVERT JUMPDEST JUMP JUMPDEST PUSH1 0x2 PUSH1 0x0 SLOAD SUB PUSH2 0x229F JUMPI PUSH1 0x40 MLOAD PUSH32 0x3EE5AEB500000000000000000000000000000000000000000000000000000000 DUP2 MSTORE PUSH1 0x4 ADD PUSH1 0x40 MLOAD DUP1 SWAP2 SUB SWAP1 REVERT JUMPDEST PUSH1 0x2 PUSH1 0x0 DUP2 SWAP1 SSTORE POP JUMP JUMPDEST PUSH1 0x1 PUSH1 0x0 DUP2 SWAP1 SSTORE POP JUMP JUMPDEST PUSH1 0x0 PUSH1 0x1 PUSH1 0x0 SWAP1 SLOAD SWAP1 PUSH2 0x100 EXP SWAP1 DIV PUSH20 0xFFFFFFFFFFFFFFFFFFFFFFFFFFFFFFFFFFFFFFFF AND SWAP1 POP DUP2 PUSH1 0x1 PUSH1 0x0 PUSH2 0x100 EXP DUP2 SLOAD DUP2 PUSH20 0xFFFFFFFFFFFFFFFFFFFFFFFFFFFFFFFFFFFFFFFF MUL NOT AND SWAP1 DUP4 PUSH20 0xFFFFFFFFFFFFFFFFFFFFFFFFFFFFFFFFFFFFFFFF AND MUL OR SWAP1 SSTORE POP DUP2 PUSH20 0xFFFFFFFFFFFFFFFFFFFFFFFFFFFFFFFFFFFFFFFF AND DUP2 PUSH20 0xFFFFFFFFFFFFFFFFFFFFFFFFFFFFFFFFFFFFFFFF AND PUSH32 0x8BE0079C531659141344CD1FD0A4F28419497F9722A3DAAFE3B4186F6B6457E0 PUSH1 0x40 MLOAD PUSH1 0x40 MLOAD DUP1 SWAP2 SUB SWAP1 LOG3 POP POP JUMP JUMPDEST PUSH1 0x0 DUP2 SWAP1 POP SWAP2 SWAP1 POP JUMP JUMPDEST PUSH32 0x4E487B7100000000000000000000000000000000000000000000000000000000 PUSH1 0x0 MSTORE PUSH1 0x11 PUSH1 0x4 MSTORE PUSH1 0x24 PUSH1 0x0 REVERT JUMPDEST PUSH1 0x0 PUSH2 0x23BD DUP3 PUSH2 0x2379 JUMP JUMPDEST SWAP2 POP PUSH2 0x23C8 DUP4 PUSH2 0x2379 JUMP JUMPDEST SWAP3 POP DUP2 PUSH32 0xFFFFFFFFFFFFFFFFFFFFFFFFFFFFFFFFFFFFFFFFFFFFFFFFFFFFFFFFFFFFFFFF DIV DUP4 GT DUP3 ISZERO ISZERO AND ISZERO PUSH2 0x2401 JUMPI PUSH2 0x2400 PUSH2 0x2383 JUMP JUMPDEST JUMPDEST DUP3 DUP3 MUL SWAP1 POP SWAP3 SWAP2 POP POP JUMP JUMPDEST PUSH32 0x4E487B7100000000000000000000000000000000000000000000000000000000 PUSH1 0x0 MSTORE PUSH1 0x12 PUSH1 0x4 MSTORE PUSH1 0x24 PUSH1 0x0 REVERT JUMPDEST PUSH1 0x0 PUSH2 0x2446 DUP3 PUSH2 0x2379 JUMP JUMPDEST SWAP2 POP PUSH2 0x2451 DUP4 PUSH2 0x2379 JUMP JUMPDEST SWAP3 POP DUP3 PUSH2 0x2461 JUMPI PUSH2 0x2460 PUSH2 0x240C JUMP JUMPDEST JUMPDEST DUP3 DUP3 DIV SWAP1 POP SWAP3 SWAP2 POP POP JUMP JUMPDEST PUSH1 0x0 PUSH2 0x2477 DUP3 PUSH2 0x2379 JUMP JUMPDEST SWAP2 POP PUSH2 0x2482 DUP4 PUSH2 0x2379 JUMP JUMPDEST SWAP3 POP DUP3 PUSH32 0xFFFFFFFFFFFFFFFFFFFFFFFFFFFFFFFFFFFFFFFFFFFFFFFFFFFFFFFFFFFFFFFF SUB DUP3 GT ISZERO PUSH2 0x24B7 JUMPI PUSH2 0x24B6 PUSH2 0x2383 JUMP JUMPDEST JUMPDEST DUP3 DUP3 ADD SWAP1 POP SWAP3 SWAP2 POP POP JUMP JUMPDEST PUSH2 0x24CB DUP2 PUSH2 0x2379 JUMP JUMPDEST DUP3 MSTORE POP POP JUMP JUMPDEST PUSH1 0x0 PUSH1 0x40 DUP3 ADD SWAP1 POP PUSH2 0x24E6 PUSH1 0x0 DUP4 ADD DUP6 PUSH2 0x24C2 JUMP JUMPDEST PUSH2 0x24F3 PUSH1 0x20 DUP4 ADD DUP5 PUSH2 0x24C2 JUMP JUMPDEST SWAP4 SWAP3 POP POP POP JUMP JUMPDEST PUSH1 0x0 DUP1 REVERT JUMPDEST PUSH1 0x0 DUP1 REVERT JUMPDEST PUSH1 0x0 PUSH20 0xFFFFFFFFFFFFFFFFFFFFFFFFFFFFFFFFFFFFFFFF DUP3 AND SWAP1 POP SWAP2 SWAP1 POP JUMP JUMPDEST PUSH1 0x0 PUSH2 0x252F DUP3 PUSH2 0x2504 JUMP JUMPDEST SWAP1 POP SWAP2 SWAP1 POP JUMP JUMPDEST PUSH2 0x253F DUP2 PUSH2 0x2524 JUMP JUMPDEST DUP2 EQ PUSH2 0x254A JUMPI PUSH1 0x0 DUP1 REVERT JUMPDEST POP JUMP JUMPDEST PUSH1 0x0 DUP2 CALLDATALOAD SWAP1 POP PUSH2 0x255C DUP2 PUSH2 0x2536 JUMP JUMPDEST SWAP3 SWAP2 POP POP JUMP JUMPDEST PUSH1 0x0 PUSH1 0x20 DUP3 DUP5 SUB SLT ISZERO PUSH2 0x2578 JUMPI PUSH2 0x2577 PUSH2 0x24FA JUMP JUMPDEST JUMPDEST PUSH1 0x0 PUSH2 0x2586 DUP5 DUP3 DUP6 ADD PUSH2 0x254D JUMP JUMPDEST SWAP2 POP POP SWAP3 SWAP2 POP POP JUMP JUMPDEST PUSH1 0x0 PUSH1 0x20 DUP3 ADD SWAP1 POP PUSH2 0x25A4 PUSH1 0x0 DUP4 ADD DUP5 PUSH2 0x24C2 JUMP JUMPDEST SWAP3 SWAP2 POP POP JUMP JUMPDEST PUSH1 0x0 DUP2 ISZERO ISZERO SWAP1 POP SWAP2 SWAP1 POP JUMP JUMPDEST PUSH2 0x25BF DUP2 PUSH2 0x25AA JUMP JUMPDEST DUP2 EQ PUSH2 0x25CA JUMPI PUSH1 0x0 DUP1 REVERT JUMPDEST POP JUMP JUMPDEST PUSH1 0x0 DUP2 CALLDATALOAD SWAP1 POP PUSH2 0x25DC DUP2 PUSH2 0x25B6 JUMP JUMPDEST SWAP3 SWAP2 POP POP JUMP JUMPDEST PUSH1 0x0 PUSH1 0x20 DUP3 DUP5 SUB SLT ISZERO PUSH2 0x25F8 JUMPI PUSH2 0x25F7 PUSH2 0x24FA JUMP JUMPDEST JUMPDEST PUSH1 0x0 PUSH2 0x2606 DUP5 DUP3 DUP6 ADD PUSH2 0x25CD JUMP JUMPDEST SWAP2 POP POP SWAP3 SWAP2 POP POP JUMP JUMPDEST PUSH1 0x0 DUP1 PUSH1 0x40 DUP4 DUP6 SUB SLT ISZERO PUSH2 0x2626 JUMPI PUSH2 0x2625 PUSH2 0x24FA JUMP JUMPDEST JUMPDEST PUSH1 0x0 PUSH2 0x2634 DUP6 DUP3 DUP7 ADD PUSH2 0x254D JUMP JUMPDEST SWAP3 POP POP PUSH1 0x20 PUSH2 0x2645 DUP6 DUP3 DUP7 ADD PUSH2 0x254D JUMP JUMPDEST SWAP2 POP POP SWAP3 POP SWAP3 SWAP1 POP JUMP JUMPDEST PUSH1 0x0 DUP1 REVERT JUMPDEST PUSH1 0x0 DUP1 REVERT JUMPDEST PUSH1 0x0 DUP1 REVERT JUMPDEST PUSH1 0x0 DUP1 DUP4 PUSH1 0x1F DUP5 ADD SLT PUSH2 0x2674 JUMPI PUSH2 0x2673 PUSH2 0x264F JUMP JUMPDEST JUMPDEST DUP3 CALLDATALOAD SWAP1 POP PUSH8 0xFFFFFFFFFFFFFFFF DUP2 GT ISZERO PUSH2 0x2691 JUMPI PUSH2 0x2690 PUSH2 0x2654 JUMP JUMPDEST JUMPDEST PUSH1 0x20 DUP4 ADD SWAP2 POP DUP4 PUSH1 0x20 DUP3 MUL DUP4 ADD GT ISZERO PUSH2 0x26AD JUMPI PUSH2 0x26AC PUSH2 0x2659 JUMP JUMPDEST JUMPDEST SWAP3 POP SWAP3 SWAP1 POP JUMP JUMPDEST PUSH1 0x0 DUP1 PUSH1 0x20 DUP4 DUP6 SUB SLT ISZERO PUSH2 0x26CB JUMPI PUSH2 0x26CA PUSH2 0x24FA JUMP JUMPDEST JUMPDEST PUSH1 0x0 DUP4 ADD CALLDATALOAD PUSH8 0xFFFFFFFFFFFFFFFF DUP2 GT ISZERO PUSH2 0x26E9 JUMPI PUSH2 0x26E8 PUSH2 0x24FF JUMP JUMPDEST JUMPDEST PUSH2 0x26F5 DUP6 DUP3 DUP7 ADD PUSH2 0x265E JUMP JUMPDEST SWAP3 POP SWAP3 POP POP SWAP3 POP SWAP3 SWAP1 POP JUMP JUMPDEST PUSH2 0x270A DUP2 PUSH2 0x2379 JUMP JUMPDEST DUP2 EQ PUSH2 0x2715 JUMPI PUSH1 0x0 DUP1 REVERT JUMPDEST POP JUMP JUMPDEST PUSH1 0x0 DUP2 CALLDATALOAD SWAP1 POP PUSH2 0x2727 DUP2 PUSH2 0x2701 JUMP JUMPDEST SWAP3 SWAP2 POP POP JUMP JUMPDEST PUSH1 0x0 DUP1 PUSH1 0x40 DUP4 DUP6 SUB SLT ISZERO PUSH2 0x2744 JUMPI PUSH2 0x2743 PUSH2 0x24FA JUMP JUMPDEST JUMPDEST PUSH1 0x0 PUSH2 0x2752 DUP6 DUP3 DUP7 ADD PUSH2 0x254D JUMP JUMPDEST SWAP3 POP POP PUSH1 0x20 PUSH2 0x2763 DUP6 DUP3 DUP7 ADD PUSH2 0x2718 JUMP JUMPDEST SWAP2 POP POP SWAP3 POP SWAP3 SWAP1 POP JUMP JUMPDEST PUSH2 0x2776 DUP2 PUSH2 0x25AA JUMP JUMPDEST DUP3 MSTORE POP POP JUMP JUMPDEST PUSH1 0x0 PUSH1 0x20 DUP3 ADD SWAP1 POP PUSH2 0x2791 PUSH1 0x0 DUP4 ADD DUP5 PUSH2 0x276D JUMP JUMPDEST SWAP3 SWAP2 POP POP JUMP JUMPDEST PUSH2 0x27A0 DUP2 PUSH2 0x2524 JUMP JUMPDEST DUP3 MSTORE POP POP JUMP JUMPDEST PUSH1 0x0 PUSH1 0x20 DUP3 ADD SWAP1 POP PUSH2 0x27BB PUSH1 0x0 DUP4 ADD DUP5 PUSH2 0x2797 JUMP JUMPDEST SWAP3 SWAP2 POP POP JUMP JUMPDEST PUSH1 0x0 PUSH2 0x27CC DUP3 PUSH2 0x2504 JUMP JUMPDEST SWAP1 POP SWAP2 SWAP1 POP JUMP JUMPDEST PUSH2 0x27DC DUP2 PUSH2 0x27C1 JUMP JUMPDEST DUP2 EQ PUSH2 0x27E7 JUMPI PUSH1 0x0 DUP1 REVERT JUMPDEST POP JUMP JUMPDEST PUSH1 0x0 DUP2 CALLDATALOAD SWAP1 POP PUSH2 0x27F9 DUP2 PUSH2 0x27D3 JUMP JUMPDEST SWAP3 SWAP2 POP POP JUMP JUMPDEST PUSH1 0x0 DUP1 PUSH1 0x0 DUP1 PUSH1 0x80 DUP6 DUP8 SUB SLT ISZERO PUSH2 0x2819 JUMPI PUSH2 0x2818 PUSH2 0x24FA JUMP JUMPDEST JUMPDEST PUSH1 0x0 PUSH2 0x2827 DUP8 DUP3 DUP9 ADD PUSH2 0x27EA JUMP JUMPDEST SWAP5 POP POP PUSH1 0x20 PUSH2 0x2838 DUP8 DUP3 DUP9 ADD PUSH2 0x2718 JUMP JUMPDEST SWAP4 POP POP PUSH1 0x40 PUSH2 0x2849 DUP8 DUP3 DUP9 ADD PUSH2 0x254D JUMP JUMPDEST SWAP3 POP POP PUSH1 0x60 PUSH2 0x285A DUP8 DUP3 DUP9 ADD PUSH2 0x2718 JUMP JUMPDEST SWAP2 POP POP SWAP3 SWAP6 SWAP2 SWAP5 POP SWAP3 POP JUMP JUMPDEST PUSH1 0x0 PUSH1 0x20 DUP3 DUP5 SUB SLT ISZERO PUSH2 0x287C JUMPI PUSH2 0x287B PUSH2 0x24FA JUMP JUMPDEST JUMPDEST PUSH1 0x0 PUSH2 0x288A DUP5 DUP3 DUP6 ADD PUSH2 0x2718 JUMP JUMPDEST SWAP2 POP POP SWAP3 SWAP2 POP POP JUMP JUMPDEST PUSH1 0x0 DUP1 PUSH1 0x40 DUP4 DUP6 SUB SLT ISZERO PUSH2 0x28AA JUMPI PUSH2 0x28A9 PUSH2 0x24FA JUMP JUMPDEST JUMPDEST PUSH1 0x0 PUSH2 0x28B8 DUP6 DUP3 DUP7 ADD PUSH2 0x254D JUMP JUMPDEST SWAP3 POP POP PUSH1 0x20 PUSH2 0x28C9 DUP6 DUP3 DUP7 ADD PUSH2 0x25CD JUMP JUMPDEST SWAP2 POP POP SWAP3 POP SWAP3 SWAP1 POP JUMP JUMPDEST PUSH1 0x0 DUP1 PUSH1 0x0 PUSH1 0x60 DUP5 DUP7 SUB SLT ISZERO PUSH2 0x28EC JUMPI PUSH2 0x28EB PUSH2 0x24FA JUMP JUMPDEST JUMPDEST PUSH1 0x0 PUSH2 0x28FA DUP7 DUP3 DUP8 ADD PUSH2 0x254D JUMP JUMPDEST SWAP4 POP POP PUSH1 0x20 PUSH2 0x290B DUP7 DUP3 DUP8 ADD PUSH2 0x254D JUMP JUMPDEST SWAP3 POP POP PUSH1 0x40 PUSH2 0x291C DUP7 DUP3 DUP8 ADD PUSH2 0x2718 JUMP JUMPDEST SWAP2 POP POP SWAP3 POP SWAP3 POP SWAP3 JUMP JUMPDEST PUSH1 0x0 PUSH1 0x40 DUP3 ADD SWAP1 POP PUSH2 0x293B PUSH1 0x0 DUP4 ADD DUP6 PUSH2 0x2797 JUMP JUMPDEST PUSH2 0x2948 PUSH1 0x20 DUP4 ADD DUP5 PUSH2 0x2797 JUMP JUMPDEST SWAP4 SWAP3 POP POP POP JUMP JUMPDEST PUSH1 0x0 DUP2 PUSH1 0x3 SIGNEXTEND SWAP1 POP SWAP2 SWAP1 POP JUMP JUMPDEST PUSH2 0x2965 DUP2 PUSH2 0x294F JUMP JUMPDEST DUP2 EQ PUSH2 0x2970 JUMPI PUSH1 0x0 DUP1 REVERT JUMPDEST POP JUMP JUMPDEST PUSH1 0x0 DUP2 MLOAD SWAP1 POP PUSH2 0x2982 DUP2 PUSH2 0x295C JUMP JUMPDEST SWAP3 SWAP2 POP POP JUMP JUMPDEST PUSH1 0x0 DUP2 PUSH1 0x7 SIGNEXTEND SWAP1 POP SWAP2 SWAP1 POP JUMP JUMPDEST PUSH2 0x299E DUP2 PUSH2 0x2988 JUMP JUMPDEST DUP2 EQ PUSH2 0x29A9 JUMPI PUSH1 0x0 DUP1 REVERT JUMPDEST POP JUMP JUMPDEST PUSH1 0x0 DUP2 MLOAD SWAP1 POP PUSH2 0x29BB DUP2 PUSH2 0x2995 JUMP JUMPDEST SWAP3 SWAP2 POP POP JUMP JUMPDEST PUSH1 0x0 DUP1 PUSH1 0x40 DUP4 DUP6 SUB SLT ISZERO PUSH2 0x29D8 JUMPI PUSH2 0x29D7 PUSH2 0x24FA JUMP JUMPDEST JUMPDEST PUSH1 0x0 PUSH2 0x29E6 DUP6 DUP3 DUP7 ADD PUSH2 0x2973 JUMP JUMPDEST SWAP3 POP POP PUSH1 0x20 PUSH2 0x29F7 DUP6 DUP3 DUP7 ADD PUSH2 0x29AC JUMP JUMPDEST SWAP2 POP POP SWAP3 POP SWAP3 SWAP1 POP JUMP JUMPDEST PUSH32 0x4E487B7100000000000000000000000000000000000000000000000000000000 PUSH1 0x0 MSTORE PUSH1 0x41 PUSH1 0x4 MSTORE PUSH1 0x24 PUSH1 0x0 REVERT JUMPDEST PUSH1 0x0 DUP2 SWAP1 POP SWAP3 SWAP2 POP POP JUMP JUMPDEST POP JUMP JUMPDEST PUSH1 0x0 PUSH2 0x2A4B PUSH1 0x0 DUP4 PUSH2 0x2A30 JUMP JUMPDEST SWAP2 POP PUSH2 0x2A56 DUP3 PUSH2 0x2A3B JUMP JUMPDEST PUSH1 0x0 DUP3 ADD SWAP1 POP SWAP2 SWAP1 POP JUMP JUMPDEST PUSH1 0x0 PUSH2 0x2A6C DUP3 PUSH2 0x2A3E JUMP JUMPDEST SWAP2 POP DUP2 SWAP1 POP SWAP2 SWAP1 POP JUMP JUMPDEST PUSH32 0x4E487B7100000000000000000000000000000000000000000000000000000000 PUSH1 0x0 MSTORE PUSH1 0x32 PUSH1 0x4 MSTORE PUSH1 0x24 PUSH1 0x0 REVERT JUMPDEST PUSH2 0x2AAE DUP2 PUSH2 0x2988 JUMP JUMPDEST DUP3 MSTORE POP POP JUMP JUMPDEST PUSH1 0x0 PUSH1 0x80 DUP3 ADD SWAP1 POP PUSH2 0x2AC9 PUSH1 0x0 DUP4 ADD DUP8 PUSH2 0x2797 JUMP JUMPDEST PUSH2 0x2AD6 PUSH1 0x20 DUP4 ADD DUP7 PUSH2 0x2797 JUMP JUMPDEST PUSH2 0x2AE3 PUSH1 0x40 DUP4 ADD DUP6 PUSH2 0x2797 JUMP JUMPDEST PUSH2 0x2AF0 PUSH1 0x60 DUP4 ADD DUP5 PUSH2 0x2AA5 JUMP JUMPDEST SWAP6 SWAP5 POP POP POP POP POP JUMP JUMPDEST PUSH1 0x0 PUSH1 0x20 DUP3 DUP5 SUB SLT ISZERO PUSH2 0x2B0F JUMPI PUSH2 0x2B0E PUSH2 0x24FA JUMP JUMPDEST JUMPDEST PUSH1 0x0 PUSH2 0x2B1D DUP5 DUP3 DUP6 ADD PUSH2 0x2973 JUMP JUMPDEST SWAP2 POP POP SWAP3 SWAP2 POP POP JUMP JUMPDEST PUSH2 0x2B2F DUP2 PUSH2 0x294F JUMP JUMPDEST DUP3 MSTORE POP POP JUMP JUMPDEST PUSH1 0x0 PUSH1 0x20 DUP3 ADD SWAP1 POP PUSH2 0x2B4A PUSH1 0x0 DUP4 ADD DUP5 PUSH2 0x2B26 JUMP JUMPDEST SWAP3 SWAP2 POP POP JUMP JUMPDEST PUSH1 0x0 PUSH2 0x2B5B DUP3 PUSH2 0x2379 JUMP JUMPDEST SWAP2 POP PUSH32 0xFFFFFFFFFFFFFFFFFFFFFFFFFFFFFFFFFFFFFFFFFFFFFFFFFFFFFFFFFFFFFFFF DUP3 SUB PUSH2 0x2B8D JUMPI PUSH2 0x2B8C PUSH2 0x2383 JUMP JUMPDEST JUMPDEST PUSH1 0x1 DUP3 ADD SWAP1 POP SWAP2 SWAP1 POP JUMP JUMPDEST PUSH1 0x0 DUP3 DUP3 MSTORE PUSH1 0x20 DUP3 ADD SWAP1 POP SWAP3 SWAP2 POP POP JUMP JUMPDEST PUSH1 0x0 DUP2 SWAP1 POP SWAP2 SWAP1 POP JUMP JUMPDEST PUSH2 0x2BBC DUP2 PUSH2 0x2524 JUMP JUMPDEST DUP3 MSTORE POP POP JUMP JUMPDEST PUSH1 0x0 PUSH2 0x2BCE DUP4 DUP4 PUSH2 0x2BB3 JUMP JUMPDEST PUSH1 0x20 DUP4 ADD SWAP1 POP SWAP3 SWAP2 POP POP JUMP JUMPDEST PUSH1 0x0 PUSH2 0x2BE9 PUSH1 0x20 DUP5 ADD DUP5 PUSH2 0x254D JUMP JUMPDEST SWAP1 POP SWAP3 SWAP2 POP POP JUMP JUMPDEST PUSH1 0x0 PUSH1 0x20 DUP3 ADD SWAP1 POP SWAP2 SWAP1 POP JUMP JUMPDEST PUSH1 0x0 PUSH2 0x2C0A DUP4 DUP6 PUSH2 0x2B98 JUMP JUMPDEST SWAP4 POP PUSH2 0x2C15 DUP3 PUSH2 0x2BA9 JUMP JUMPDEST DUP1 PUSH1 0x0 JUMPDEST DUP6 DUP2 LT ISZERO PUSH2 0x2C4E JUMPI PUSH2 0x2C2B DUP3 DUP5 PUSH2 0x2BDA JUMP JUMPDEST PUSH2 0x2C35 DUP9 DUP3 PUSH2 0x2BC2 JUMP JUMPDEST SWAP8 POP PUSH2 0x2C40 DUP4 PUSH2 0x2BF1 JUMP JUMPDEST SWAP3 POP POP PUSH1 0x1 DUP2 ADD SWAP1 POP PUSH2 0x2C19 JUMP JUMPDEST POP DUP6 SWAP3 POP POP POP SWAP4 SWAP3 POP POP POP JUMP JUMPDEST PUSH1 0x0 DUP2 MLOAD SWAP1 POP SWAP2 SWAP1 POP JUMP JUMPDEST PUSH1 0x0 DUP3 DUP3 MSTORE PUSH1 0x20 DUP3 ADD SWAP1 POP SWAP3 SWAP2 POP POP JUMP JUMPDEST PUSH1 0x0 DUP2 SWAP1 POP PUSH1 0x20 DUP3 ADD SWAP1 POP SWAP2 SWAP1 POP JUMP JUMPDEST PUSH2 0x2C90 DUP2 PUSH2 0x2379 JUMP JUMPDEST DUP3 MSTORE POP POP JUMP JUMPDEST PUSH1 0x0 PUSH2 0x2CA2 DUP4 DUP4 PUSH2 0x2C87 JUMP JUMPDEST PUSH1 0x20 DUP4 ADD SWAP1 POP SWAP3 SWAP2 POP POP JUMP JUMPDEST PUSH1 0x0 PUSH1 0x20 DUP3 ADD SWAP1 POP SWAP2 SWAP1 POP JUMP JUMPDEST PUSH1 0x0 PUSH2 0x2CC6 DUP3 PUSH2 0x2C5B JUMP JUMPDEST PUSH2 0x2CD0 DUP2 DUP6 PUSH2 0x2C66 JUMP JUMPDEST SWAP4 POP PUSH2 0x2CDB DUP4 PUSH2 0x2C77 JUMP JUMPDEST DUP1 PUSH1 0x0 JUMPDEST DUP4 DUP2 LT ISZERO PUSH2 0x2D0C JUMPI DUP2 MLOAD PUSH2 0x2CF3 DUP9 DUP3 PUSH2 0x2C96 JUMP JUMPDEST SWAP8 POP PUSH2 0x2CFE DUP4 PUSH2 0x2CAE JUMP JUMPDEST SWAP3 POP POP PUSH1 0x1 DUP2 ADD SWAP1 POP PUSH2 0x2CDF JUMP JUMPDEST POP DUP6 SWAP4 POP POP POP POP SWAP3 SWAP2 POP POP JUMP JUMPDEST PUSH1 0x0 PUSH1 0x60 DUP3 ADD SWAP1 POP PUSH2 0x2D2E PUSH1 0x0 DUP4 ADD DUP8 PUSH2 0x24C2 JUMP JUMPDEST DUP2 DUP2 SUB PUSH1 0x20 DUP4 ADD MSTORE PUSH2 0x2D41 DUP2 DUP6 DUP8 PUSH2 0x2BFE JUMP JUMPDEST SWAP1 POP DUP2 DUP2 SUB PUSH1 0x40 DUP4 ADD MSTORE PUSH2 0x2D55 DUP2 DUP5 PUSH2 0x2CBB JUMP JUMPDEST SWAP1 POP SWAP6 SWAP5 POP POP POP POP POP JUMP JUMPDEST PUSH1 0x0 DUP2 SWAP1 POP SWAP2 SWAP1 POP JUMP JUMPDEST PUSH1 0x0 PUSH2 0x2D85 PUSH2 0x2D80 PUSH2 0x2D7B DUP5 PUSH2 0x2504 JUMP JUMPDEST PUSH2 0x2D60 JUMP JUMPDEST PUSH2 0x2504 JUMP JUMPDEST SWAP1 POP SWAP2 SWAP1 POP JUMP JUMPDEST PUSH1 0x0 PUSH2 0x2D97 DUP3 PUSH2 0x2D6A JUMP JUMPDEST SWAP1 POP SWAP2 SWAP1 POP JUMP JUMPDEST PUSH1 0x0 PUSH2 0x2DA9 DUP3 PUSH2 0x2D8C JUMP JUMPDEST SWAP1 POP SWAP2 SWAP1 POP JUMP JUMPDEST PUSH2 0x2DB9 DUP2 PUSH2 0x2D9E JUMP JUMPDEST DUP3 MSTORE POP POP JUMP JUMPDEST PUSH1 0x0 PUSH1 0x80 DUP3 ADD SWAP1 POP PUSH2 0x2DD4 PUSH1 0x0 DUP4 ADD DUP8 PUSH2 0x2797 JUMP JUMPDEST PUSH2 0x2DE1 PUSH1 0x20 DUP4 ADD DUP7 PUSH2 0x2797 JUMP JUMPDEST PUSH2 0x2DEE PUSH1 0x40 DUP4 ADD DUP6 PUSH2 0x2DB0 JUMP JUMPDEST PUSH2 0x2DFB PUSH1 0x60 DUP4 ADD DUP5 PUSH2 0x2AA5 JUMP JUMPDEST SWAP6 SWAP5 POP POP POP POP POP JUMP JUMPDEST PUSH1 0x0 PUSH1 0x60 DUP3 ADD SWAP1 POP PUSH2 0x2E19 PUSH1 0x0 DUP4 ADD DUP7 PUSH2 0x24C2 JUMP JUMPDEST PUSH2 0x2E26 PUSH1 0x20 DUP4 ADD DUP6 PUSH2 0x2797 JUMP JUMPDEST PUSH2 0x2E33 PUSH1 0x40 DUP4 ADD DUP5 PUSH2 0x24C2 JUMP JUMPDEST SWAP5 SWAP4 POP POP POP POP JUMP JUMPDEST PUSH1 0x0 DUP2 MLOAD SWAP1 POP SWAP2 SWAP1 POP JUMP JUMPDEST PUSH1 0x0 DUP2 SWAP1 POP PUSH1 0x20 DUP3 ADD SWAP1 POP SWAP2 SWAP1 POP JUMP JUMPDEST PUSH1 0x0 PUSH1 0x20 DUP3 ADD SWAP1 POP SWAP2 SWAP1 POP JUMP JUMPDEST PUSH1 0x0 PUSH2 0x2E6E DUP3 PUSH2 0x2E3B JUMP JUMPDEST PUSH2 0x2E78 DUP2 DUP6 PUSH2 0x2B98 JUMP JUMPDEST SWAP4 POP PUSH2 0x2E83 DUP4 PUSH2 0x2E46 JUMP JUMPDEST DUP1 PUSH1 0x0 JUMPDEST DUP4 DUP2 LT ISZERO PUSH2 0x2EB4 JUMPI DUP2 MLOAD PUSH2 0x2E9B DUP9 DUP3 PUSH2 0x2BC2 JUMP JUMPDEST SWAP8 POP PUSH2 0x2EA6 DUP4 PUSH2 0x2E56 JUMP JUMPDEST SWAP3 POP POP PUSH1 0x1 DUP2 ADD SWAP1 POP PUSH2 0x2E87 JUMP JUMPDEST POP DUP6 SWAP4 POP POP POP POP SWAP3 SWAP2 POP POP JUMP JUMPDEST PUSH1 0x0 PUSH1 0x60 DUP3 ADD SWAP1 POP PUSH2 0x2ED6 PUSH1 0x0 DUP4 ADD DUP7 PUSH2 0x24C2 JUMP JUMPDEST DUP2 DUP2 SUB PUSH1 0x20 DUP4 ADD MSTORE PUSH2 0x2EE8 DUP2 DUP6 PUSH2 0x2E63 JUMP JUMPDEST SWAP1 POP DUP2 DUP2 SUB PUSH1 0x40 DUP4 ADD MSTORE PUSH2 0x2EFC DUP2 DUP5 PUSH2 0x2CBB JUMP JUMPDEST SWAP1 POP SWAP5 SWAP4 POP POP POP POP JUMP JUMPDEST PUSH1 0x0 PUSH2 0x2F11 DUP3 PUSH2 0x2379 JUMP JUMPDEST SWAP2 POP PUSH2 0x2F1C DUP4 PUSH2 0x2379 JUMP JUMPDEST SWAP3 POP DUP3 DUP3 LT ISZERO PUSH2 0x2F2F JUMPI PUSH2 0x2F2E PUSH2 0x2383 JUMP JUMPDEST JUMPDEST DUP3 DUP3 SUB SWAP1 POP SWAP3 SWAP2 POP POP JUMP JUMPDEST PUSH1 0x0 DUP2 SWAP1 POP SWAP2 SWAP1 POP JUMP JUMPDEST PUSH1 0x0 PUSH2 0x2F5F PUSH2 0x2F5A PUSH2 0x2F55 DUP5 PUSH2 0x2F3A JUMP JUMPDEST PUSH2 0x2D60 JUMP JUMPDEST PUSH2 0x2379 JUMP JUMPDEST SWAP1 POP SWAP2 SWAP1 POP JUMP JUMPDEST PUSH2 0x2F6F DUP2 PUSH2 0x2F44 JUMP JUMPDEST DUP3 MSTORE POP POP JUMP JUMPDEST PUSH1 0x0 PUSH1 0x60 DUP3 ADD SWAP1 POP PUSH2 0x2F8A PUSH1 0x0 DUP4 ADD DUP8 PUSH2 0x2F66 JUMP JUMPDEST DUP2 DUP2 SUB PUSH1 0x20 DUP4 ADD MSTORE PUSH2 0x2F9D DUP2 DUP6 DUP8 PUSH2 0x2BFE JUMP JUMPDEST SWAP1 POP DUP2 DUP2 SUB PUSH1 0x40 DUP4 ADD MSTORE PUSH2 0x2FB1 DUP2 DUP5 PUSH2 0x2CBB JUMP JUMPDEST SWAP1 POP SWAP6 SWAP5 POP POP POP POP POP JUMP INVALID LOG1 PUSH5 0x736F6C6343 STOP ADDMOD 0xD STOP EXP LOG1 PUSH5 0x736F6C6343 STOP ADDMOD 0xD STOP EXP "},"methodIdentifiers":{"allDistributors(uint256)":"7bd66c7f","assetToDistributor(address)":"d0297eda","createDistributor(address,address,uint256,address)":"3052ffa0","fractionToDistributor(address)":"15e0c191","getAllDistributors()":"8e24c34b","getDistributorAt(uint256)":"c72bc67e","getDistributorByAsset(address)":"8cc5fbdd","getDistributorByFraction(address)":"c1702d74","getDistributorCount()":"f6edf18c","isDistributor(address)":"8f0c86fa","owner()":"8da5cb5b","transferOwnership(address)":"f2fde38b"}}}}}