{
  "_format": "hh-sol-artifact-1",
  "contractName": "MaliciousReentrancy",
  "sourceName": "contracts/mocks/MaliciousReentrancy.sol",
  "abi": [
    {
      "inputs": [
        {
          "internalType": "address",
          "name": "_targetDistributor",
          "type": "address"
        }
      ],
      "stateMutability": "nonpayable",
      "type": "constructor"
    },
    {
      "anonymous": false,
      "inputs": [
        {
          "indexed": false,
          "internalType": "uint256",
          "name": "count",
          "type": "uint256"
        }
      ],
      "name": "AttackAttempted",
      "type": "event"
    },
    {
      "anonymous": false,
      "inputs": [
        {
          "indexed": false,
          "internalType": "string",
          "name": "reason",
          "type": "string"
        }
      ],
      "name": "AttackFailed",
      "type": "event"
    },
    {
      "inputs": [],
      "name": "attack",
      "outputs": [],
      "stateMutability": "payable",
      "type": "function"
    },
    {
      "inputs": [],
      "name": "attackCount",
      "outputs": [
        {
          "internalType": "uint256",
          "name": "",
          "type": "uint256"
        }
      ],
      "stateMutability": "view",
      "type": "function"
    },
    {
      "inputs": [],
      "name": "maxAttacks",
      "outputs": [
        {
          "internalType": "uint256",
          "name": "",
          "type": "uint256"
        }
      ],
      "stateMutability": "view",
      "type": "function"
    },
    {
      "inputs": [
        {
          "internalType": "uint256",
          "name": "_max",
          "type": "uint256"
        }
      ],
      "name": "setMaxAttacks",
      "outputs": [],
      "stateMutability": "nonpayable",
      "type": "function"
    },
    {
      "inputs": [],
      "name": "targetDistributor",
      "outputs": [
        {
          "internalType": "address",
          "name": "",
          "type": "address"
        }
      ],
      "stateMutability": "view",
      "type": "function"
    },
    {
      "inputs": [],
      "name": "withdraw",
      "outputs": [],
      "stateMutability": "nonpayable",
      "type": "function"
    },
    {
      "stateMutability": "payable",
      "type": "receive"
    }
  ],
  "bytecode": "0x6080604052600360025534801561001557600080fd5b506040516108bb3803806108bb833981810160405281019061003791906100e0565b806000806101000a81548173ffffffffffffffffffffffffffffffffffffffff021916908373ffffffffffffffffffffffffffffffffffffffff1602179055505061010d565b600080fd5b600073ffffffffffffffffffffffffffffffffffffffff82169050919050565b60006100ad82610082565b9050919050565b6100bd816100a2565b81146100c857600080fd5b50565b6000815190506100da816100b4565b92915050565b6000602082840312156100f6576100f561007d565b5b6000610104848285016100cb565b91505092915050565b61079f8061011c6000396000f3fe6080604052600436106100595760003560e01c80633ccfd60b1461020f578063407c282114610226578063617a09d7146102515780639e5faafc1461027a578063a37573d614610284578063ee2472f4146102af5761020a565b3661020a5760016000815480929190610071906104ec565b91905055507f9de7696c1ddde10847858955a8530cc578ad5b8a8887b231fad51acf0a4cfa0a6001546040516100a79190610543565b60405180910390a160025460015410156102085760008060009054906101000a900473ffffffffffffffffffffffffffffffffffffffff1673ffffffffffffffffffffffffffffffffffffffff166040516024016040516020818303038152906040527f886bec17000000000000000000000000000000000000000000000000000000007bffffffffffffffffffffffffffffffffffffffffffffffffffffffff19166020820180517bffffffffffffffffffffffffffffffffffffffffffffffffffffffff838183161783525050505060405161018591906105d8565b6000604051808303816000865af19150503d80600081146101c2576040519150601f19603f3d011682016040523d82523d6000602084013e6101c7565b606091505b5050905080610206577ff7ce286cb87e5c742d8641799444d56f1df046fa657c97d13b6f4fddb35a8cc36040516101fd9061064c565b60405180910390a15b505b005b600080fd5b34801561021b57600080fd5b506102246102da565b005b34801561023257600080fd5b5061023b610323565b6040516102489190610543565b60405180910390f35b34801561025d57600080fd5b506102786004803603810190610273919061069d565b610329565b005b610282610333565b005b34801561029057600080fd5b50610299610489565b6040516102a69190610543565b60405180910390f35b3480156102bb57600080fd5b506102c461048f565b6040516102d1919061070b565b60405180910390f35b3373ffffffffffffffffffffffffffffffffffffffff166108fc479081150290604051600060405180830381858888f19350505050158015610320573d6000803e3d6000fd5b50565b60015481565b8060028190555050565b600060018190555060008060009054906101000a900473ffffffffffffffffffffffffffffffffffffffff1673ffffffffffffffffffffffffffffffffffffffff166040516024016040516020818303038152906040527f886bec17000000000000000000000000000000000000000000000000000000007bffffffffffffffffffffffffffffffffffffffffffffffffffffffff19166020820180517bffffffffffffffffffffffffffffffffffffffffffffffffffffffff838183161783525050505060405161040591906105d8565b6000604051808303816000865af19150503d8060008114610442576040519150601f19603f3d011682016040523d82523d6000602084013e610447565b606091505b5050905080610486577ff7ce286cb87e5c742d8641799444d56f1df046fa657c97d13b6f4fddb35a8cc360405161047d90610772565b60405180910390a15b50565b60025481565b60008054906101000a900473ffffffffffffffffffffffffffffffffffffffff1681565b7f4e487b7100000000000000000000000000000000000000000000000000000000600052601160045260246000fd5b6000819050919050565b60006104f7826104e2565b91507fffffffffffffffffffffffffffffffffffffffffffffffffffffffffffffffff8203610529576105286104b3565b5b600182019050919050565b61053d816104e2565b82525050565b60006020820190506105586000830184610534565b92915050565b600081519050919050565b600081905092915050565b60005b83811015610592578082015181840152602081019050610577565b838111156105a1576000848401525b50505050565b60006105b28261055e565b6105bc8185610569565b93506105cc818560208601610574565b80840191505092915050565b60006105e482846105a7565b915081905092915050565b600082825260208201905092915050565b7f5265656e7472616e637920626c6f636b65640000000000000000000000000000600082015250565b60006106366012836105ef565b915061064182610600565b602082019050919050565b6000602082019050818103600083015261066581610629565b9050919050565b600080fd5b61067a816104e2565b811461068557600080fd5b50565b60008135905061069781610671565b92915050565b6000602082840312156106b3576106b261066c565b5b60006106c184828501610688565b91505092915050565b600073ffffffffffffffffffffffffffffffffffffffff82169050919050565b60006106f5826106ca565b9050919050565b610705816106ea565b82525050565b600060208201905061072060008301846106fc565b92915050565b7f496e697469616c2061747461636b206661696c65640000000000000000000000600082015250565b600061075c6015836105ef565b915061076782610726565b602082019050919050565b6000602082019050818103600083015261078b8161074f565b905091905056fea164736f6c634300080d000a",
  "linkReferences": {},
  "deployedLinkReferences": {}
}