{
  "_format": "hh-sol-artifact-1",
  "contractName": "FractionalFactory",
  "sourceName": "contracts/FractionalFactory.sol",
  "abi": [
    {
      "inputs": [],
      "stateMutability": "nonpayable",
      "type": "constructor"
    },
    {
      "inputs": [],
      "name": "DistributorAlreadyExists",
      "type": "error"
    },
    {
      "inputs": [],
      "name": "InvalidAddress",
      "type": "error"
    },
    {
      "inputs": [],
      "name": "Unauthorized",
      "type": "error"
    },
    {
      "anonymous": false,
      "inputs": [
        {
          "indexed": true,
          "internalType": "address",
          "name": "distributor",
          "type": "address"
        },
        {
          "indexed": true,
          "internalType": "address",
          "name": "assetNft",
          "type": "address"
        },
        {
          "indexed": true,
          "internalType": "address",
          "name": "fractionToken",
          "type": "address"
        },
        {
          "indexed": false,
          "internalType": "uint256",
          "name": "totalSupply",
          "type": "uint256"
        },
        {
          "indexed": false,
          "internalType": "address",
          "name": "owner",
          "type": "address"
        }
      ],
      "name": "DistributorCreated",
      "type": "event"
    },
    {
      "anonymous": false,
      "inputs": [
        {
          "indexed": true,
          "internalType": "address",
          "name": "previousOwner",
          "type": "address"
        },
        {
          "indexed": true,
          "internalType": "address",
          "name": "newOwner",
          "type": "address"
        }
      ],
      "name": "OwnershipTransferred",
      "type": "event"
    },
    {
      "inputs": [
        {
          "internalType": "uint256",
          "name": "",
          "type": "uint256"
        }
      ],
      "name": "allDistributors",
      "outputs": [
        {
          "internalType": "address",
          "name": "",
          "type": "address"
        }
      ],
      "stateMutability": "view",
      "type": "function"
    },
    {
      "inputs": [
        {
          "internalType": "address",
          "name": "",
          "type": "address"
        }
      ],
      "name": "assetToDistributor",
      "outputs": [
        {
          "internalType": "address",
          "name": "",
          "type": "address"
        }
      ],
      "stateMutability": "view",
      "type": "function"
    },
    {
      "inputs": [
        {
          "internalType": "address",
          "name": "assetNft",
          "type": "address"
        },
        {
          "internalType": "address",
          "name": "fractionToken",
          "type": "address"
        },
        {
          "internalType": "uint256",
          "name": "totalSupply",
          "type": "uint256"
        },
        {
          "internalType": "address",
          "name": "distributorOwner",
          "type": "address"
        }
      ],
      "name": "createDistributor",
      "outputs": [
        {
          "internalType": "address",
          "name": "distributor",
          "type": "address"
        }
      ],
      "stateMutability": "nonpayable",
      "type": "function"
    },
    {
      "inputs": [
        {
          "internalType": "address",
          "name": "",
          "type": "address"
        }
      ],
      "name": "fractionToDistributor",
      "outputs": [
        {
          "internalType": "address",
          "name": "",
          "type": "address"
        }
      ],
      "stateMutability": "view",
      "type": "function"
    },
    {
      "inputs": [],
      "name": "getAllDistributors",
      "outputs": [
        {
          "internalType": "address[]",
          "name": "",
          "type": "address[]"
        }
      ],
      "stateMutability": "view",
      "type": "function"
    },
    {
      "inputs": [
        {
          "internalType": "uint256",
          "name": "index",
          "type": "uint256"
        }
      ],
      "name": "getDistributorAt",
      "outputs": [
        {
          "internalType": "address",
          "name": "",
          "type": "address"
        }
      ],
      "stateMutability": "view",
      "type": "function"
    },
    {
      "inputs": [
        {
          "internalType": "address",
          "name": "assetNft",
          "type": "address"
        }
      ],
      "name": "getDistributorByAsset",
      "outputs": [
        {
          "internalType": "address",
          "name": "",
          "type": "address"
        }
      ],
      "stateMutability": "view",
      "type": "function"
    },
    {
      "inputs": [
        {
          "internalType": "address",
          "name": "fractionToken",
          "type": "address"
        }
      ],
      "name": "getDistributorByFraction",
      "outputs": [
        {
          "internalType": "address",
          "name": "",
          "type": "address"
        }
      ],
      "stateMutability": "view",
      "type": "function"
    },
    {
      "inputs": [],
      "name": "getDistributorCount",
      "outputs": [
        {
          "internalType": "uint256",
          "name": "",
          "type": "uint256"
        }
      ],
      "stateMutability": "view",
      "type": "function"
    },
    {
      "inputs": [
        {
          "internalType": "address",
          "name": "",
          "type": "address"
        }
      ],
      "name": "isDistributor",
      "outputs": [
        {
          "internalType": "bool",
          "name": "",
          "type": "bool"
        }
      ],
      "stateMutability": "view",
      "type": "function"
    },
    {
      "inputs": [],
      "name": "owner",
      "outputs": [
        {
          "internalType": "address",
          "name": "",
          "type": "address"
        }
      ],
      "stateMutability": "view",
      "type": "function"
    },
    {
      "inputs": [
        {
          "internalType": "address",
          "name": "newOwner",
          "type": "address"
        }
      ],
      "name": "transferOwnership",
      "outputs": [],
      "stateMutability": "nonpayable",
      "type": "function"
    }
  ],
  "bytecode": "0x608060405234801561001057600080fd5b5033600460006101000a81548173ffffffffffffffffffffffffffffffffffffffff021916908373ffffffffffffffffffffffffffffffffffffffff1602179055506145e9806100616000396000f3fe60806040523480156200001157600080fd5b5060043610620000c45760003560e01c80638f0c86fa116200007b5780638f0c86fa14620001e5578063c1702d74146200021b578063c72bc67e1462000251578063d0297eda1462000287578063f2fde38b14620002bd578063f6edf18c14620002dd57620000c4565b806315e0c19114620000c95780633052ffa014620000ff5780637bd66c7f14620001355780638cc5fbdd146200016b5780638da5cb5b14620001a15780638e24c34b14620001c3575b600080fd5b620000e76004803603810190620000e1919062000d34565b620002ff565b604051620000f6919062000d77565b60405180910390f35b6200011d600480360381019062000117919062000dcf565b62000332565b6040516200012c919062000d77565b60405180910390f35b6200015360048036038101906200014d919062000e41565b6200084c565b60405162000162919062000d77565b60405180910390f35b62000189600480360381019062000183919062000d34565b6200088c565b60405162000198919062000d77565b60405180910390f35b620001ab620008f5565b604051620001ba919062000d77565b60405180910390f35b620001cd6200091b565b604051620001dc919062000f41565b60405180910390f35b620002036004803603810190620001fd919062000d34565b620009ab565b60405162000212919062000f82565b60405180910390f35b62000239600480360381019062000233919062000d34565b620009cb565b60405162000248919062000d77565b60405180910390f35b6200026f600480360381019062000269919062000e41565b62000a34565b6040516200027e919062000d77565b60405180910390f35b620002a560048036038101906200029f919062000d34565b62000ac8565b604051620002b4919062000d77565b60405180910390f35b620002db6004803603810190620002d5919062000d34565b62000afb565b005b620002e762000cb0565b604051620002f6919062000fb0565b60405180910390f35b60026020528060005260406000206000915054906101000a900473ffffffffffffffffffffffffffffffffffffffff1681565b60008073ffffffffffffffffffffffffffffffffffffffff168573ffffffffffffffffffffffffffffffffffffffff1614806200039b5750600073ffffffffffffffffffffffffffffffffffffffff168473ffffffffffffffffffffffffffffffffffffffff16145b15620003d3576040517fe6c4247b00000000000000000000000000000000000000000000000000000000815260040160405180910390fd5b600073ffffffffffffffffffffffffffffffffffffffff168273ffffffffffffffffffffffffffffffffffffffff16036200043a576040517fe6c4247b00000000000000000000000000000000000000000000000000000000815260040160405180910390fd5b600073ffffffffffffffffffffffffffffffffffffffff16600160008773ffffffffffffffffffffffffffffffffffffffff1673ffffffffffffffffffffffffffffffffffffffff16815260200190815260200160002060009054906101000a900473ffffffffffffffffffffffffffffffffffffffff1673ffffffffffffffffffffffffffffffffffffffff161462000500576040517f198bba4800000000000000000000000000000000000000000000000000000000815260040160405180910390fd5b600073ffffffffffffffffffffffffffffffffffffffff16600260008673ffffffffffffffffffffffffffffffffffffffff1673ffffffffffffffffffffffffffffffffffffffff16815260200190815260200160002060009054906101000a900473ffffffffffffffffffffffffffffffffffffffff1673ffffffffffffffffffffffffffffffffffffffff1614620005c6576040517f198bba4800000000000000000000000000000000000000000000000000000000815260040160405180910390fd5b600085858585604051620005da9062000cbc565b620005e9949392919062000fcd565b604051809103906000f08015801562000606573d6000803e3d6000fd5b5090508091506000829080600181540180825580915050600190039060005260206000200160009091909190916101000a81548173ffffffffffffffffffffffffffffffffffffffff021916908373ffffffffffffffffffffffffffffffffffffffff16021790555081600160008873ffffffffffffffffffffffffffffffffffffffff1673ffffffffffffffffffffffffffffffffffffffff16815260200190815260200160002060006101000a81548173ffffffffffffffffffffffffffffffffffffffff021916908373ffffffffffffffffffffffffffffffffffffffff16021790555081600260008773ffffffffffffffffffffffffffffffffffffffff1673ffffffffffffffffffffffffffffffffffffffff16815260200190815260200160002060006101000a81548173ffffffffffffffffffffffffffffffffffffffff021916908373ffffffffffffffffffffffffffffffffffffffff1602179055506001600360008473ffffffffffffffffffffffffffffffffffffffff1673ffffffffffffffffffffffffffffffffffffffff16815260200190815260200160002060006101000a81548160ff0219169083151502179055508473ffffffffffffffffffffffffffffffffffffffff168673ffffffffffffffffffffffffffffffffffffffff168373ffffffffffffffffffffffffffffffffffffffff167ffeeea802d29d8b3953b2bc5c50f6f702f2451c6866e61443e2075b8734e1181987876040516200083b9291906200101a565b60405180910390a450949350505050565b600081815481106200085d57600080fd5b906000526020600020016000915054906101000a900473ffffffffffffffffffffffffffffffffffffffff1681565b6000600160008373ffffffffffffffffffffffffffffffffffffffff1673ffffffffffffffffffffffffffffffffffffffff16815260200190815260200160002060009054906101000a900473ffffffffffffffffffffffffffffffffffffffff169050919050565b600460009054906101000a900473ffffffffffffffffffffffffffffffffffffffff1681565b60606000805480602002602001604051908101604052809291908181526020018280548015620009a157602002820191906000526020600020905b8160009054906101000a900473ffffffffffffffffffffffffffffffffffffffff1673ffffffffffffffffffffffffffffffffffffffff168152602001906001019080831162000956575b5050505050905090565b60036020528060005260406000206000915054906101000a900460ff1681565b6000600260008373ffffffffffffffffffffffffffffffffffffffff1673ffffffffffffffffffffffffffffffffffffffff16815260200190815260200160002060009054906101000a900473ffffffffffffffffffffffffffffffffffffffff169050919050565b60008080549050821062000a7f576040517f08c379a000000000000000000000000000000000000000000000000000000000815260040162000a7690620010a8565b60405180910390fd5b6000828154811062000a965762000a95620010ca565b5b9060005260206000200160009054906101000a900473ffffffffffffffffffffffffffffffffffffffff169050919050565b60016020528060005260406000206000915054906101000a900473ffffffffffffffffffffffffffffffffffffffff1681565b600460009054906101000a900473ffffffffffffffffffffffffffffffffffffffff1673ffffffffffffffffffffffffffffffffffffffff163373ffffffffffffffffffffffffffffffffffffffff161462000b83576040517f82b4290000000000000000000000000000000000000000000000000000000000815260040160405180910390fd5b600073ffffffffffffffffffffffffffffffffffffffff168173ffffffffffffffffffffffffffffffffffffffff160362000bea576040517fe6c4247b00000000000000000000000000000000000000000000000000000000815260040160405180910390fd5b6000600460009054906101000a900473ffffffffffffffffffffffffffffffffffffffff16905081600460006101000a81548173ffffffffffffffffffffffffffffffffffffffff021916908373ffffffffffffffffffffffffffffffffffffffff1602179055508173ffffffffffffffffffffffffffffffffffffffff168173ffffffffffffffffffffffffffffffffffffffff167f8be0079c531659141344cd1fd0a4f28419497f9722a3daafe3b4186f6b6457e060405160405180910390a35050565b60008080549050905090565b6134e380620010fa83390190565b600080fd5b600073ffffffffffffffffffffffffffffffffffffffff82169050919050565b600062000cfc8262000ccf565b9050919050565b62000d0e8162000cef565b811462000d1a57600080fd5b50565b60008135905062000d2e8162000d03565b92915050565b60006020828403121562000d4d5762000d4c62000cca565b5b600062000d5d8482850162000d1d565b91505092915050565b62000d718162000cef565b82525050565b600060208201905062000d8e600083018462000d66565b92915050565b6000819050919050565b62000da98162000d94565b811462000db557600080fd5b50565b60008135905062000dc98162000d9e565b92915050565b6000806000806080858703121562000dec5762000deb62000cca565b5b600062000dfc8782880162000d1d565b945050602062000e0f8782880162000d1d565b935050604062000e228782880162000db8565b925050606062000e358782880162000d1d565b91505092959194509250565b60006020828403121562000e5a5762000e5962000cca565b5b600062000e6a8482850162000db8565b91505092915050565b600081519050919050565b600082825260208201905092915050565b6000819050602082019050919050565b62000eaa8162000cef565b82525050565b600062000ebe838362000e9f565b60208301905092915050565b6000602082019050919050565b600062000ee48262000e73565b62000ef0818562000e7e565b935062000efd8362000e8f565b8060005b8381101562000f3457815162000f18888262000eb0565b975062000f258362000eca565b92505060018101905062000f01565b5085935050505092915050565b6000602082019050818103600083015262000f5d818462000ed7565b905092915050565b60008115159050919050565b62000f7c8162000f65565b82525050565b600060208201905062000f99600083018462000f71565b92915050565b62000faa8162000d94565b82525050565b600060208201905062000fc7600083018462000f9f565b92915050565b600060808201905062000fe4600083018762000d66565b62000ff3602083018662000d66565b62001002604083018562000f9f565b62001011606083018462000d66565b95945050505050565b600060408201905062001031600083018562000f9f565b62001040602083018462000d66565b9392505050565b600082825260208201905092915050565b7f496e646578206f7574206f6620626f756e647300000000000000000000000000600082015250565b60006200109060138362001047565b91506200109d8262001058565b602082019050919050565b60006020820190508181036000830152620010c38162001081565b9050919050565b7f4e487b7100000000000000000000000000000000000000000000000000000000600052603260045260246000fdfe60c06040523480156200001157600080fd5b50604051620034e3380380620034e38339818101604052810190620000379190620003c2565b806001600081905550600073ffffffffffffffffffffffffffffffffffffffff168173ffffffffffffffffffffffffffffffffffffffff1603620000b55760006040517f1e4fbdf7000000000000000000000000000000000000000000000000000000008152600401620000ac919062000445565b60405180910390fd5b620000c6816200025760201b60201c565b50600073ffffffffffffffffffffffffffffffffffffffff168473ffffffffffffffffffffffffffffffffffffffff1614806200012f5750600073ffffffffffffffffffffffffffffffffffffffff168373ffffffffffffffffffffffffffffffffffffffff16145b1562000167576040517fe6c4247b00000000000000000000000000000000000000000000000000000000815260040160405180910390fd5b60008203620001a2576040517f2c5211c600000000000000000000000000000000000000000000000000000000815260040160405180910390fd5b8373ffffffffffffffffffffffffffffffffffffffff1660808173ffffffffffffffffffffffffffffffffffffffff16815250508273ffffffffffffffffffffffffffffffffffffffff1660a08173ffffffffffffffffffffffffffffffffffffffff1681525050816002819055507fd847752640337969f783ba291f56251d6165ba92dd3d27984ad0f81995aef0b660008360405162000245929190620004c0565b60405180910390a150505050620004ed565b6000600160009054906101000a900473ffffffffffffffffffffffffffffffffffffffff16905081600160006101000a81548173ffffffffffffffffffffffffffffffffffffffff021916908373ffffffffffffffffffffffffffffffffffffffff1602179055508173ffffffffffffffffffffffffffffffffffffffff168173ffffffffffffffffffffffffffffffffffffffff167f8be0079c531659141344cd1fd0a4f28419497f9722a3daafe3b4186f6b6457e060405160405180910390a35050565b600080fd5b600073ffffffffffffffffffffffffffffffffffffffff82169050919050565b60006200034f8262000322565b9050919050565b620003618162000342565b81146200036d57600080fd5b50565b600081519050620003818162000356565b92915050565b6000819050919050565b6200039c8162000387565b8114620003a857600080fd5b50565b600081519050620003bc8162000391565b92915050565b60008060008060808587031215620003df57620003de6200031d565b5b6000620003ef8782880162000370565b9450506020620004028782880162000370565b93505060406200041587828801620003ab565b9250506060620004288782880162000370565b91505092959194509250565b6200043f8162000342565b82525050565b60006020820190506200045c600083018462000434565b92915050565b6000819050919050565b6000819050919050565b600062000497620004916200048b8462000462565b6200046c565b62000387565b9050919050565b620004a98162000476565b82525050565b620004ba8162000387565b82525050565b6000604082019050620004d760008301856200049e565b620004e66020830184620004af565b9392505050565b60805160a051612fc96200051a6000396000818161111201526114df01526000611d650152612fc96000f3fe6080604052600436106101a05760003560e01c806364a1f248116100ec578063ae4491051161008a578063c0908a7111610064578063c0908a7114610676578063e7ab70be146106b3578063eef72a3c146106de578063f2fde38b146107075761027f565b8063ae4491051461061a578063b1fe48de14610624578063b21b83e01461064d5761027f565b8063715018a6116100c6578063715018a614610596578063886bec17146105ad57806389cd9cf4146105c45780638da5cb5b146105ef5761027f565b806364a1f2481461050557806366d49bab1461053057806369580566146105595761027f565b8063338b5dea11610159578063457dfc6711610133578063457dfc67146104495780635873eb9b1461047457806358e574c5146104b15780635c975abb146104da5761027f565b8063338b5dea146103a657806339151165146103cf57806339491b8c1461040c5761027f565b806314205e281461028457806316c38b3c146102c15780631ab4e875146102ea5780631b4d5975146103275780631e2de0d1146103525780631fa91a851461037b5761027f565b3661027f576000341180156101b757506000600254115b80156101d05750600960009054906101000a900460ff16155b1561027d57600060025464e8d4a51000346101eb91906123b2565b6101f5919061243b565b90508060036000828254610209919061246c565b925050819055503460046000828254610222919061246c565b925050819055503373ffffffffffffffffffffffffffffffffffffffff167fb548377c5c0a1b6b67e22a933676c80a1874369367c95ad48b87360a3c065011346003546040516102739291906124d1565b60405180910390a2505b005b600080fd5b34801561029057600080fd5b506102ab60048036038101906102a69190612562565b610730565b6040516102b8919061258f565b60405180910390f35b3480156102cd57600080fd5b506102e860048036038101906102e391906125e2565b6107e3565b005b3480156102f657600080fd5b50610311600480360381019061030c919061260f565b61083f565b60405161031e919061258f565b60405180910390f35b34801561033357600080fd5b5061033c610864565b604051610349919061258f565b60405180910390f35b34801561035e57600080fd5b50610379600480360381019061037491906126b4565b61086a565b005b34801561038757600080fd5b50610390610d7f565b60405161039d919061258f565b60405180910390f35b3480156103b257600080fd5b506103cd60048036038101906103c8919061272d565b610d87565b005b3480156103db57600080fd5b506103f660048036038101906103f19190612562565b6110d8565b604051610403919061258f565b60405180910390f35b34801561041857600080fd5b50610433600480360381019061042e9190612562565b6110f0565b604051610440919061277c565b60405180910390f35b34801561045557600080fd5b5061045e611110565b60405161046b91906127a6565b60405180910390f35b34801561048057600080fd5b5061049b60048036038101906104969190612562565b611134565b6040516104a8919061258f565b60405180910390f35b3480156104bd57600080fd5b506104d860048036038101906104d391906127ff565b61114c565b005b3480156104e657600080fd5b506104ef611417565b6040516104fc919061277c565b60405180910390f35b34801561051157600080fd5b5061051a61142a565b604051610527919061258f565b60405180910390f35b34801561053c57600080fd5b5061055760048036038101906105529190612866565b611430565b005b34801561056557600080fd5b50610580600480360381019061057b9190612562565b6114bd565b60405161058d919061258f565b60405180910390f35b3480156105a257600080fd5b506105ab611590565b005b3480156105b957600080fd5b506105c26115a4565b005b3480156105d057600080fd5b506105d9611846565b6040516105e6919061258f565b60405180910390f35b3480156105fb57600080fd5b5061060461184c565b60405161061191906127a6565b60405180910390f35b610622611876565b005b34801561063057600080fd5b5061064b60048036038101906106469190612893565b6119ec565b005b34801561065957600080fd5b50610674600480360381019061066f91906128d3565b611b03565b005b34801561068257600080fd5b5061069d60048036038101906106989190612562565b611c7b565b6040516106aa919061258f565b60405180910390f35b3480156106bf57600080fd5b506106c8611d63565b6040516106d591906127a6565b60405180910390f35b3480156106ea57600080fd5b50610705600480360381019061070091906126b4565b611d87565b005b34801561071357600080fd5b5061072e60048036038101906107299190612562565b612164565b005b600061016773ffffffffffffffffffffffffffffffffffffffff1663f7888aec83306040518363ffffffff1660e01b815260040161076f929190612926565b6040805180830381865afa9250505080156107a857506040513d601f19601f820116820180604052508101906107a591906129c1565b60015b6107b557600090506107de565b601660030b8260030b146107ce576000925050506107de565b8067ffffffffffffffff16925050505b919050565b6107eb6121ea565b80600960006101000a81548160ff0219169083151502179055507f4543baa938cb97f5073ec206ad35638cdb1f4db8f677d31579b2f6fe7d18c14a81604051610834919061277c565b60405180910390a150565b6008602052816000526040600020602052806000526040600020600091509150505481565b60035481565b600960009054906101000a900460ff16156108b1576040517fab35696f00000000000000000000000000000000000000000000000000000000815260040160405180910390fd5b6108b9612263565b60006108c433611c7b565b905060008383905067ffffffffffffffff8111156108e5576108e4612a01565b5b6040519080825280602002602001820160405280156109135781602001602082028036833780820191505090505b5090506000821115610a3357600061092a336114bd565b905064e8d4a510006003548261094091906123b2565b61094a919061243b565b600660003373ffffffffffffffffffffffffffffffffffffffff1673ffffffffffffffffffffffffffffffffffffffff1681526020019081526020016000208190555060003373ffffffffffffffffffffffffffffffffffffffff16846040516109b390612a61565b60006040518083038185875af1925050503d80600081146109f0576040519150601f19603f3d011682016040523d82523d6000602084013e6109f5565b606091505b5050905080610a30576040517f90b8ec1800000000000000000000000000000000000000000000000000000000815260040160405180910390fd5b50505b600061016790506000805b86869050811015610cd5576000600860003373ffffffffffffffffffffffffffffffffffffffff1673ffffffffffffffffffffffffffffffffffffffff1681526020019081526020016000206000898985818110610a9f57610a9e612a76565b5b9050602002016020810190610ab49190612562565b73ffffffffffffffffffffffffffffffffffffffff1673ffffffffffffffffffffffffffffffffffffffff1681526020019081526020016000205490506000811115610cc1576001925080858381518110610b1257610b11612a76565b5b6020026020010181815250506000600860003373ffffffffffffffffffffffffffffffffffffffff1673ffffffffffffffffffffffffffffffffffffffff16815260200190815260200160002060008a8a86818110610b7457610b73612a76565b5b9050602002016020810190610b899190612562565b73ffffffffffffffffffffffffffffffffffffffff1673ffffffffffffffffffffffffffffffffffffffff1681526020019081526020016000208190555060008473ffffffffffffffffffffffffffffffffffffffff1663eca369178a8a86818110610bf857610bf7612a76565b5b9050602002016020810190610c0d9190612562565b3033866040518563ffffffff1660e01b8152600401610c2f9493929190612ab4565b6020604051808303816000875af1158015610c4e573d6000803e3d6000fd5b505050506040513d601f19601f82011682018060405250810190610c729190612af9565b9050601660030b8160030b14610cbf57806040517f71dd4a98000000000000000000000000000000000000000000000000000000008152600401610cb69190612b35565b60405180910390fd5b505b508080610ccd90612b50565b915050610a3e565b50600084148015610ce4575080155b15610d1b576040517f73380d9900000000000000000000000000000000000000000000000000000000815260040160405180910390fd5b3373ffffffffffffffffffffffffffffffffffffffff167f630ffd80ca0ea5347d3fc507ec01147eb329af83f39cb0d336e9ba79a6a1355885888887604051610d679493929190612d19565b60405180910390a250505050610d7b6122a9565b5050565b600047905090565b600960009054906101000a900460ff1615610dce576040517fab35696f00000000000000000000000000000000000000000000000000000000815260040160405180910390fd5b610dd6612263565b600073ffffffffffffffffffffffffffffffffffffffff168273ffffffffffffffffffffffffffffffffffffffff1603610e3c576040517fe6c4247b00000000000000000000000000000000000000000000000000000000815260040160405180910390fd5b60008103610e76576040517f2c5211c600000000000000000000000000000000000000000000000000000000815260040160405180910390fd5b600060025403610eb2576040517f2c5211c600000000000000000000000000000000000000000000000000000000815260040160405180910390fd5b600760008373ffffffffffffffffffffffffffffffffffffffff1673ffffffffffffffffffffffffffffffffffffffff16815260200190815260200160002060009054906101000a900460ff16610f35576040517f3f9f188e00000000000000000000000000000000000000000000000000000000815260040160405180910390fd5b6000610167905060008173ffffffffffffffffffffffffffffffffffffffff1663eca36917853330876040518563ffffffff1660e01b8152600401610f7d9493929190612ab4565b6020604051808303816000875af1158015610f9c573d6000803e3d6000fd5b505050506040513d601f19601f82011682018060405250810190610fc09190612af9565b9050601660030b8160030b1461100d57806040517f71dd4a980000000000000000000000000000000000000000000000000000000081526004016110049190612b35565b60405180910390fd5b82600560008673ffffffffffffffffffffffffffffffffffffffff1673ffffffffffffffffffffffffffffffffffffffff168152602001908152602001600020600082825461105c919061246c565b925050819055508373ffffffffffffffffffffffffffffffffffffffff163373ffffffffffffffffffffffffffffffffffffffff167f080c225c8e9d9f966820ef915f5f555d575e9c3a188f1252d19e94aa2250f09d85426040516110c29291906124d1565b60405180910390a350506110d46122a9565b5050565b60056020528060005260406000206000915090505481565b60076020528060005260406000206000915054906101000a900460ff1681565b7f000000000000000000000000000000000000000000000000000000000000000081565b60066020528060005260406000206000915090505481565b6111546121ea565b600073ffffffffffffffffffffffffffffffffffffffff168473ffffffffffffffffffffffffffffffffffffffff16036111ba576040517fe6c4247b00000000000000000000000000000000000000000000000000000000815260040160405180910390fd5b60008311156112a257824710156111fd576040517ff4d678b800000000000000000000000000000000000000000000000000000000815260040160405180910390fd5b60008473ffffffffffffffffffffffffffffffffffffffff168460405161122390612a61565b60006040518083038185875af1925050503d8060008114611260576040519150601f19603f3d011682016040523d82523d6000602084013e611265565b606091505b50509050806112a0576040517f90b8ec1800000000000000000000000000000000000000000000000000000000815260040160405180910390fd5b505b600073ffffffffffffffffffffffffffffffffffffffff168273ffffffffffffffffffffffffffffffffffffffff16141580156112df5750600081115b156113bf576000610167905060008173ffffffffffffffffffffffffffffffffffffffff1663eca36917853089876040518563ffffffff1660e01b815260040161132c9493929190612dbf565b6020604051808303816000875af115801561134b573d6000803e3d6000fd5b505050506040513d601f19601f8201168201806040525081019061136f9190612af9565b9050601660030b8160030b146113bc57806040517f71dd4a980000000000000000000000000000000000000000000000000000000081526004016113b39190612b35565b60405180910390fd5b50505b8373ffffffffffffffffffffffffffffffffffffffff167fbbae553982d541d38dacb1ea468ac757f324d0e279b6e4a2958f9e894da575ff84848460405161140993929190612e04565b60405180910390a250505050565b600960009054906101000a900460ff1681565b60045481565b6114386121ea565b60008103611472576040517f2c5211c600000000000000000000000000000000000000000000000000000000815260040160405180910390fd5b60006002549050816002819055507fd847752640337969f783ba291f56251d6165ba92dd3d27984ad0f81995aef0b681836040516114b19291906124d1565b60405180910390a15050565b600061016773ffffffffffffffffffffffffffffffffffffffff1663f7888aec7f0000000000000000000000000000000000000000000000000000000000000000846040518363ffffffff1660e01b815260040161151c929190612926565b6040805180830381865afa92505050801561155557506040513d601f19601f8201168201806040525081019061155291906129c1565b60015b611562576000905061158b565b601660030b8260030b1461157b5760009250505061158b565b8067ffffffffffffffff16925050505b919050565b6115986121ea565b6115a260006122b3565b565b600960009054906101000a900460ff16156115eb576040517fab35696f00000000000000000000000000000000000000000000000000000000815260040160405180910390fd5b6115f3612263565b60006115fe33611c7b565b90506000810361163a576040517f73380d9900000000000000000000000000000000000000000000000000000000815260040160405180910390fd5b6000611645336114bd565b905064e8d4a510006003548261165b91906123b2565b611665919061243b565b600660003373ffffffffffffffffffffffffffffffffffffffff1673ffffffffffffffffffffffffffffffffffffffff1681526020019081526020016000208190555060003373ffffffffffffffffffffffffffffffffffffffff16836040516116ce90612a61565b60006040518083038185875af1925050503d806000811461170b576040519150601f19603f3d011682016040523d82523d6000602084013e611710565b606091505b505090508061174b576040517f90b8ec1800000000000000000000000000000000000000000000000000000000815260040160405180910390fd5b60008067ffffffffffffffff81111561176757611766612a01565b5b6040519080825280602002602001820160405280156117955781602001602082028036833780820191505090505b50905060008067ffffffffffffffff8111156117b4576117b3612a01565b5b6040519080825280602002602001820160405280156117e25781602001602082028036833780820191505090505b5090503373ffffffffffffffffffffffffffffffffffffffff167f630ffd80ca0ea5347d3fc507ec01147eb329af83f39cb0d336e9ba79a6a1355886848460405161182f93929190612ec1565b60405180910390a250505050506118446122a9565b565b60025481565b6000600160009054906101000a900473ffffffffffffffffffffffffffffffffffffffff16905090565b600960009054906101000a900460ff16156118bd576040517fab35696f00000000000000000000000000000000000000000000000000000000815260040160405180910390fd5b6118c5612263565b600034036118ff576040517f2c5211c600000000000000000000000000000000000000000000000000000000815260040160405180910390fd5b60006002540361193b576040517f2c5211c600000000000000000000000000000000000000000000000000000000815260040160405180910390fd5b600060025464e8d4a510003461195191906123b2565b61195b919061243b565b9050806003600082825461196f919061246c565b925050819055503460046000828254611988919061246c565b925050819055503373ffffffffffffffffffffffffffffffffffffffff167fb548377c5c0a1b6b67e22a933676c80a1874369367c95ad48b87360a3c065011346003546040516119d99291906124d1565b60405180910390a2506119ea6122a9565b565b6119f46121ea565b600073ffffffffffffffffffffffffffffffffffffffff168273ffffffffffffffffffffffffffffffffffffffff1603611a5a576040517fe6c4247b00000000000000000000000000000000000000000000000000000000815260040160405180910390fd5b80600760008473ffffffffffffffffffffffffffffffffffffffff1673ffffffffffffffffffffffffffffffffffffffff16815260200190815260200160002060006101000a81548160ff0219169083151502179055508173ffffffffffffffffffffffffffffffffffffffff167f60d450f9fba6f163c4d4f6329637ebd4b3d6c2d87f36229cf43b40d45753f7db82604051611af7919061277c565b60405180910390a25050565b611b0b6121ea565b600073ffffffffffffffffffffffffffffffffffffffff168373ffffffffffffffffffffffffffffffffffffffff161480611b725750600073ffffffffffffffffffffffffffffffffffffffff168273ffffffffffffffffffffffffffffffffffffffff16145b15611ba9576040517fe6c4247b00000000000000000000000000000000000000000000000000000000815260040160405180910390fd5b60008103611be3576040517f2c5211c600000000000000000000000000000000000000000000000000000000815260040160405180910390fd5b80600860008573ffffffffffffffffffffffffffffffffffffffff1673ffffffffffffffffffffffffffffffffffffffff16815260200190815260200160002060008473ffffffffffffffffffffffffffffffffffffffff1673ffffffffffffffffffffffffffffffffffffffff1681526020019081526020016000206000828254611c6f919061246c565b92505081905550505050565b600080611c87836114bd565b905060008103611c9b576000915050611d5e565b600064e8d4a5100060035483611cb191906123b2565b611cbb919061243b565b9050600660008573ffffffffffffffffffffffffffffffffffffffff1673ffffffffffffffffffffffffffffffffffffffff168152602001908152602001600020548111611d0e57600092505050611d5e565b600660008573ffffffffffffffffffffffffffffffffffffffff1673ffffffffffffffffffffffffffffffffffffffff1681526020019081526020016000205481611d599190612f06565b925050505b919050565b7f000000000000000000000000000000000000000000000000000000000000000081565b600960009054906101000a900460ff1615611dce576040517fab35696f00000000000000000000000000000000000000000000000000000000815260040160405180910390fd5b611dd6612263565b60008282905067ffffffffffffffff811115611df557611df4612a01565b5b604051908082528060200260200182016040528015611e235781602001602082028036833780820191505090505b509050600080610167905060005b858590508110156120c8576000600860003373ffffffffffffffffffffffffffffffffffffffff1673ffffffffffffffffffffffffffffffffffffffff1681526020019081526020016000206000888885818110611e9257611e91612a76565b5b9050602002016020810190611ea79190612562565b73ffffffffffffffffffffffffffffffffffffffff1673ffffffffffffffffffffffffffffffffffffffff16815260200190815260200160002054905060008111156120b4576001935080858381518110611f0557611f04612a76565b5b6020026020010181815250506000600860003373ffffffffffffffffffffffffffffffffffffffff1673ffffffffffffffffffffffffffffffffffffffff1681526020019081526020016000206000898986818110611f6757611f66612a76565b5b9050602002016020810190611f7c9190612562565b73ffffffffffffffffffffffffffffffffffffffff1673ffffffffffffffffffffffffffffffffffffffff1681526020019081526020016000208190555060008373ffffffffffffffffffffffffffffffffffffffff1663eca36917898986818110611feb57611fea612a76565b5b90506020020160208101906120009190612562565b3033866040518563ffffffff1660e01b81526004016120229493929190612ab4565b6020604051808303816000875af1158015612041573d6000803e3d6000fd5b505050506040513d601f19601f820116820180604052508101906120659190612af9565b9050601660030b8160030b146120b257806040517f71dd4a980000000000000000000000000000000000000000000000000000000081526004016120a99190612b35565b60405180910390fd5b505b5080806120c090612b50565b915050611e31565b5081612100576040517f73380d9900000000000000000000000000000000000000000000000000000000815260040160405180910390fd5b3373ffffffffffffffffffffffffffffffffffffffff167f630ffd80ca0ea5347d3fc507ec01147eb329af83f39cb0d336e9ba79a6a13558600087878760405161214d9493929190612f75565b60405180910390a25050506121606122a9565b5050565b61216c6121ea565b600073ffffffffffffffffffffffffffffffffffffffff168173ffffffffffffffffffffffffffffffffffffffff16036121de5760006040517f1e4fbdf70000000000000000000000000000000000000000000000000000000081526004016121d591906127a6565b60405180910390fd5b6121e7816122b3565b50565b3373ffffffffffffffffffffffffffffffffffffffff1661220961184c565b73ffffffffffffffffffffffffffffffffffffffff161461226157336040517f118cdaa700000000000000000000000000000000000000000000000000000000815260040161225891906127a6565b60405180910390fd5b565b60026000540361229f576040517f3ee5aeb500000000000000000000000000000000000000000000000000000000815260040160405180910390fd5b6002600081905550565b6001600081905550565b6000600160009054906101000a900473ffffffffffffffffffffffffffffffffffffffff16905081600160006101000a81548173ffffffffffffffffffffffffffffffffffffffff021916908373ffffffffffffffffffffffffffffffffffffffff1602179055508173ffffffffffffffffffffffffffffffffffffffff168173ffffffffffffffffffffffffffffffffffffffff167f8be0079c531659141344cd1fd0a4f28419497f9722a3daafe3b4186f6b6457e060405160405180910390a35050565b6000819050919050565b7f4e487b7100000000000000000000000000000000000000000000000000000000600052601160045260246000fd5b60006123bd82612379565b91506123c883612379565b9250817fffffffffffffffffffffffffffffffffffffffffffffffffffffffffffffffff048311821515161561240157612400612383565b5b828202905092915050565b7f4e487b7100000000000000000000000000000000000000000000000000000000600052601260045260246000fd5b600061244682612379565b915061245183612379565b9250826124615761246061240c565b5b828204905092915050565b600061247782612379565b915061248283612379565b9250827fffffffffffffffffffffffffffffffffffffffffffffffffffffffffffffffff038211156124b7576124b6612383565b5b828201905092915050565b6124cb81612379565b82525050565b60006040820190506124e660008301856124c2565b6124f360208301846124c2565b9392505050565b600080fd5b600080fd5b600073ffffffffffffffffffffffffffffffffffffffff82169050919050565b600061252f82612504565b9050919050565b61253f81612524565b811461254a57600080fd5b50565b60008135905061255c81612536565b92915050565b600060208284031215612578576125776124fa565b5b60006125868482850161254d565b91505092915050565b60006020820190506125a460008301846124c2565b92915050565b60008115159050919050565b6125bf816125aa565b81146125ca57600080fd5b50565b6000813590506125dc816125b6565b92915050565b6000602082840312156125f8576125f76124fa565b5b6000612606848285016125cd565b91505092915050565b60008060408385031215612626576126256124fa565b5b60006126348582860161254d565b92505060206126458582860161254d565b9150509250929050565b600080fd5b600080fd5b600080fd5b60008083601f8401126126745761267361264f565b5b8235905067ffffffffffffffff81111561269157612690612654565b5b6020830191508360208202830111156126ad576126ac612659565b5b9250929050565b600080602083850312156126cb576126ca6124fa565b5b600083013567ffffffffffffffff8111156126e9576126e86124ff565b5b6126f58582860161265e565b92509250509250929050565b61270a81612379565b811461271557600080fd5b50565b60008135905061272781612701565b92915050565b60008060408385031215612744576127436124fa565b5b60006127528582860161254d565b925050602061276385828601612718565b9150509250929050565b612776816125aa565b82525050565b6000602082019050612791600083018461276d565b92915050565b6127a081612524565b82525050565b60006020820190506127bb6000830184612797565b92915050565b60006127cc82612504565b9050919050565b6127dc816127c1565b81146127e757600080fd5b50565b6000813590506127f9816127d3565b92915050565b60008060008060808587031215612819576128186124fa565b5b6000612827878288016127ea565b945050602061283887828801612718565b93505060406128498782880161254d565b925050606061285a87828801612718565b91505092959194509250565b60006020828403121561287c5761287b6124fa565b5b600061288a84828501612718565b91505092915050565b600080604083850312156128aa576128a96124fa565b5b60006128b88582860161254d565b92505060206128c9858286016125cd565b9150509250929050565b6000806000606084860312156128ec576128eb6124fa565b5b60006128fa8682870161254d565b935050602061290b8682870161254d565b925050604061291c86828701612718565b9150509250925092565b600060408201905061293b6000830185612797565b6129486020830184612797565b9392505050565b60008160030b9050919050565b6129658161294f565b811461297057600080fd5b50565b6000815190506129828161295c565b92915050565b60008160070b9050919050565b61299e81612988565b81146129a957600080fd5b50565b6000815190506129bb81612995565b92915050565b600080604083850312156129d8576129d76124fa565b5b60006129e685828601612973565b92505060206129f7858286016129ac565b9150509250929050565b7f4e487b7100000000000000000000000000000000000000000000000000000000600052604160045260246000fd5b600081905092915050565b50565b6000612a4b600083612a30565b9150612a5682612a3b565b600082019050919050565b6000612a6c82612a3e565b9150819050919050565b7f4e487b7100000000000000000000000000000000000000000000000000000000600052603260045260246000fd5b612aae81612988565b82525050565b6000608082019050612ac96000830187612797565b612ad66020830186612797565b612ae36040830185612797565b612af06060830184612aa5565b95945050505050565b600060208284031215612b0f57612b0e6124fa565b5b6000612b1d84828501612973565b91505092915050565b612b2f8161294f565b82525050565b6000602082019050612b4a6000830184612b26565b92915050565b6000612b5b82612379565b91507fffffffffffffffffffffffffffffffffffffffffffffffffffffffffffffffff8203612b8d57612b8c612383565b5b600182019050919050565b600082825260208201905092915050565b6000819050919050565b612bbc81612524565b82525050565b6000612bce8383612bb3565b60208301905092915050565b6000612be9602084018461254d565b905092915050565b6000602082019050919050565b6000612c0a8385612b98565b9350612c1582612ba9565b8060005b85811015612c4e57612c2b8284612bda565b612c358882612bc2565b9750612c4083612bf1565b925050600181019050612c19565b5085925050509392505050565b600081519050919050565b600082825260208201905092915050565b6000819050602082019050919050565b612c9081612379565b82525050565b6000612ca28383612c87565b60208301905092915050565b6000602082019050919050565b6000612cc682612c5b565b612cd08185612c66565b9350612cdb83612c77565b8060005b83811015612d0c578151612cf38882612c96565b9750612cfe83612cae565b925050600181019050612cdf565b5085935050505092915050565b6000606082019050612d2e60008301876124c2565b8181036020830152612d41818587612bfe565b90508181036040830152612d558184612cbb565b905095945050505050565b6000819050919050565b6000612d85612d80612d7b84612504565b612d60565b612504565b9050919050565b6000612d9782612d6a565b9050919050565b6000612da982612d8c565b9050919050565b612db981612d9e565b82525050565b6000608082019050612dd46000830187612797565b612de16020830186612797565b612dee6040830185612db0565b612dfb6060830184612aa5565b95945050505050565b6000606082019050612e1960008301866124c2565b612e266020830185612797565b612e3360408301846124c2565b949350505050565b600081519050919050565b6000819050602082019050919050565b6000602082019050919050565b6000612e6e82612e3b565b612e788185612b98565b9350612e8383612e46565b8060005b83811015612eb4578151612e9b8882612bc2565b9750612ea683612e56565b925050600181019050612e87565b5085935050505092915050565b6000606082019050612ed660008301866124c2565b8181036020830152612ee88185612e63565b90508181036040830152612efc8184612cbb565b9050949350505050565b6000612f1182612379565b9150612f1c83612379565b925082821015612f2f57612f2e612383565b5b828203905092915050565b6000819050919050565b6000612f5f612f5a612f5584612f3a565b612d60565b612379565b9050919050565b612f6f81612f44565b82525050565b6000606082019050612f8a6000830187612f66565b8181036020830152612f9d818587612bfe565b90508181036040830152612fb18184612cbb565b90509594505050505056fea164736f6c634300080d000aa164736f6c634300080d000a",
  "linkReferences": {},
  "deployedLinkReferences": {}
}